:020000040800F2
:1000000000000120C50200086D4400086F4400088C
:1000100071440008734400087544000800000000A3
:10002000000000000000000000000000B1470008D0
:100030007744000800000000514800087944000897
:10004000792A0008792A0008792A0008792A000804
:10005000792A0008792A0008792A0008792A0008F4
:10006000792A0008792A0008792A0008792A0008E4
:10007000792A0008792A0008792A0008792A0008D4
:10008000792A0008792A000881440008000000004D
:10009000000000000000000000000000792A0008B5
:1000A000792A000891440008792A0008792A000872
:1000B000A1440008792A0008792A0008792A000852
:1000C000792A0008792A0008792A0008792A000884
:1000D000792A0008792A0008792A0008000000001F
:1000E000792A0008792A0008792A0008000000000F
:1000F000000000000000000000000000792A000855
:1001000000000000792A0008792A0008792A0008EE
:1001100000000000000000000000000000000000DF
:10012000CD440008792A0008792A0008792A0008B5
:10013000792A000800000000000000000000000014
:10014000000000000000000000000000792A000804
:10015000792A0008792A0008792A0008792A0008F3
:10016000792A0008792A0008000000000000000039
:10017000000000000000000000000000000000007F
:1001800000000000792A00080000000000000000C4
:10019000792A000800B583B002F0CEFB384B394A0B
:1001A0001360394A1360394900E02146384B9942BF
:1001B0000BD20A684B6801F10C0488689842F4D9A4
:1001C0001168196004330432F8E72E4B1A68314B7A
:1001D0009A4200D0FEE72C4B1A682F4B9A42F9D175
:1001E000274B2E4A13602E4A13602E4B05E0002049
:1001F000106004329342FAD80B462B4A934204D241
:10020000194651F8082B5B68F4E7244B1B6813B9B7
:10021000234B1B6803B1FEE702F0A0FB694601A86F
:1002200002F036FB214C224BE41AA4100025AC420C
:1002300014DC204C204BE41AA4100025AC4213DC43
:100240000099019804F006F805461C4C1C4BE41A72
:10025000A410002C0EDC284602F0F6FA144B53F8DA
:10026000253098470135E2E7134B53F8253098477E
:100270000135E3E7013C124B53F824309847E8E797
:10028000BABADECA000000207C000020F00300089B
:100290000804000878563412325476988000002002
:1002A000F0BF002008040008180400081804000823
:1002B00018040008180400081804000818040008AE
:1002C0001804000808B5FFF765FF00BEFEE71EF042
:1002D000040F0CBFEFF30880EFF309807146414A29
:1002E00010472DE9F04182B004468846124B5E6B00
:1002F0009F6B9D6A1B6B13F0020F03D00E4BDB6AE2
:10030000002B0CDB0D4802F0CBFACDF800803B4609
:1003100032462946204602F025FB00BEFEE74BF69A
:10032000AB6102F099FB0028ECD0034B4FF0004288
:10033000DA6202B0BDE8F08100ED00E0605D000827
:1003400000BEFEE71EF0040F0CBFEFF30880EFF3D2
:1003500009807146244A10472DE9F04182B00446D5
:100360008846084B5E6B9F6B9D6A074802F098FABF
:10037000CDF800803B4632462946204602F0F2FA8C
:1003800000BEFEE700ED00E0705D00081EF0040F07
:100390000CBFEFF30880EFF309807146134A104752
:1003A0002DE9F04182B004468846084B5E6B9F6B96
:1003B0009D6A074802F074FACDF800803B46324649
:1003C0002946204602F0CEFA00BEFEE700ED00E02E
:1003D0007C5D000800BEFEE700BEFEE700BEFEE753
:1003E00070470000E302000859030008A103000859
:1003F0009C92010800000020800000209C920108CF
:10040000000000100000001080000020F4BF002059
:080410000000001000000010C4
:1004200008B50B4B1A6842F400721A601A6842F45D
:1004300080621A601A6842F480721A60032000F029
:1004400065FC002003F0D6FF03F035FF002008BD57
:10045000003C0240024A136801331360704700BF3A
:10046000683E0020014B1868704700BF683E0020BE
:1004700010B50446514B5A6822F440325A605A680B
:1004800041680A435A600268536823F480735360DA
:1004900002685368016943EA0123536002685368A4
:1004A00023F0407353600268536881680B435360C4
:1004B0000268936823F40063936002689368C168DC
:1004C0000B439360826A3E4B9A425FD00268936806
:1004D00023F07063936002689368816A0B439360B2
:1004E0000268936823F04053936002689368C16A7E
:1004F0000B4393602268936823F0020393602268A1
:100500009368A16943EA41039360236A002B4ED0AC
:10051000636A013B072B44D82268536843F40063A5
:1005200053602268536823F460435360636A013B5D
:100530004FF4604292FAA2F2B2FA82F2934021683A
:100540004A6813434B602268D36A23F47003D36272
:100550002168CB6AE269013A43EA0253CB6222681E
:10056000936823F40073936022689368216B43EAD5
:10057000412393602268936823F480639360226828
:100580009368616943EA8123936010BD02689368B0
:1005900023F0706393600268936823F04053936084
:1005A000A8E740F20A61074803F084FEB4E7226836
:1005B000536823F400635360C5E700BF0023014084
:1005C0000100000FD45A0008002800F0E38010B5A5
:1005D00004460268704B9A4204D040F20D116F48F5
:1005E00003F068FE636843B1B3F5803F05D0B3F50F
:1005F000003F02D0B3F5403F6FD1A36843B1B3F1E0
:10060000807F05D0B3F1007F02D0B3F1407F6AD183
:100610002369012B6DD8A369012B70D8A36A7BB322
:10062000B3F1807F2CD0B3F1007F29D0B3F1407FAC
:1006300026D0B3F1806F23D0B3F1A06F20D0B3F1F7
:10064000C06F1DD0B3F1E06F1AD0B3F1006F17D0B7
:10065000B3F1106F14D0B3F1206F11D0B3F1306F3C
:100660000ED0B3F1406F0BD0B3F1506F08D0B3F19F
:10067000606F05D0B3F1706F02D0494A934244D104
:10068000E36813B1B3F5006F45D1E369013B0F2B6C
:1006900047D8236B012B4AD86369022B4DD8236AB4
:1006A000012B50D8A26A3E4B9A420AD0E36A43B16A
:1006B000B3F1805F05D0B3F1005F02D0B3F1405FCA
:1006C00047D1236C002B4AD0236C13F0100F4DD070
:1006D0000120002384F83C3010BD4FF487712F486F
:1006E00003F0E8FD89E740F20F112C4803F0E2FD2A
:1006F0008EE74FF48871294803F0DCFD8BE740F268
:100700001111264803F0D6FD88E74FF4897123487C
:1007100003F0D0FDB4E740F21311204803F0CAFD06
:10072000B3E74FF48A711D4803F0C4FDB1E740F20E
:1007300015111A4803F0BEFDAEE74FF48B71174850
:1007400003F0B8FDABE740F21711144803F0B2FD17
:10075000A8E740F21B11114803F0ACFDB1E7636458
:1007600084F83C30204603F0D5FDADE7236C23F43C
:10077000885323F0020343F0020323642046FFF76B
:1007800077FE00206064236C23F0030343F0010331
:1007900023649EE70120704700200140D45A0008DE
:1007A0000100000F70B582B004460D4616460023C6
:1007B00001938369012B25D8E36A43B1B3F1805FCC
:1007C00005D0B3F1005F02D0B3F1405F20D194F8BF
:1007D0003C30012B00F08B80012384F83C302368EF
:1007E0009A6812F0010F1FD19A6842F001029A60D4
:1007F000434B1B68434AA2FB03239B0C03EB4303BD
:1008000001930EE040F2FA313F4803F053FDD3E785
:1008100040F2FB313C4803F04DFDD8E7019B013B22
:100820000193019B002BF9D12268936813F0010F0B
:100830005FD0236C23F4E06323F0010343F480735F
:100840002364536813F4806F05D0236C23F4405362
:1008500043F480532364236C13F4805F34D0636CBF
:1008600023F006036364002384F83C30A36B274A1B
:10087000DA63A36B264A1A64A36B264ADA642368F8
:100880006FF022021A602268536843F0806353605D
:100890002268936843F480739360216833462A4644
:1008A0004C31A06B00F0AAFC1B4B5B6813F01F0FD0
:1008B0000DD123689A6812F0405F1DD19A6842F00A
:1008C00080429A60002015E000236364CBE7236830
:1008D000124A934201D000200CE09A6812F0405F67
:1008E0000CD19A6842F080429A60002002E0022017
:1008F00000E0002002B070BD0020FBE70020F9E717
:100900000C00002083DE1B43D45A00082109000894
:1009100085090008250B0008002301400020014044
:1009200008B5836B1A6C12F0500F03D09B6BDB6C15
:10093000984708BD1A6C42F400721A641A689168EC
:1009400011F0405F19D19969B9B9D16A11F4700FEA
:1009500003D0916811F4806F0FD1516821F020010C
:1009600051601A6C22F480721A641A6C12F4805F5F
:1009700003D11A6C42F001021A64184603F034FBEA
:10098000D7E7704708B5806BFFF7FBFF08BD7047DE
:100990007047000038B504468369012B00F295804A
:1009A000E369013B0F2B00F296806369022B00F292
:1009B000988022681168536803F0200311F0020F39
:1009C0002DD063B3236C13F0100F03D1236C43F4C9
:1009D00000732364936813F0405F19D1A369BBB916
:1009E000D36A13F4700F03D0936813F4806F0FD1A0
:1009F000536823F020035360236C23F48073236433
:100A0000236C13F4805F03D1236C43F00103236450
:100A1000204603F0E9FA23686FF012021A60236897
:100A200019685A6802F0800211F0040F36D0002ACB
:100A300034D0226C12F0100F03D1226C42F4005219
:100A400022649A6812F4401F21D19A6B12F4401F5D
:100A500003D09A6812F4806F19D15A6812F4806F2B
:100A600015D19A6812F0405F11D1A2697AB95A681B
:100A700022F080025A60236C23F480532364236C99
:100A800013F4807F03D1236C43F0010323642046D9
:100A900000F03AF923686FF00C021A6022681168BE
:100AA000536803F0400311F0010F04D01BB1136829
:100AB00013F0010F1BD122681168536803F08063A3
:100AC00011F0200F00D0F3B938BD40F2693114485D
:100AD00003F0F0FB64E740F26A31114803F0EAFBEF
:100AE00063E740F26B310E4803F0E4FB61E7236CEF
:100AF00043F4803323642046FFF749FF23686FF0F7
:100B000001021A60D7E7636C43F0020363646FF07D
:100B1000200515602046FFF73BFF23681D60D3E7E3
:100B2000D45A000808B5806B40230364436C43F03B
:100B300004034364FFF72CFF08BD000030B583B009
:100B400005460C46002301930B68122B4ED86368B0
:100B5000013B0F2B50D8A368072B53D895F83C3096
:100B6000012B00F0C780012385F83C302368092B56
:100B70004ED92868C2689BB203EB43031E3B072192
:100B800001FA03F322EA0303C3602868C268A1687C
:100B9000238803EB43031E3B01FA03F31343C360B3
:100BA0006368062B4AD82868426B03EB8303053B36
:100BB0001F2101FA03F322EA030343632868426B0F
:100BC000636803EB8303053B218801FA03F31343B6
:100BD00043632A68484B9A4260D02A68464B9A423F
:100BE00065D0002085F83C0003B030BD40F20451D0
:100BF000424803F05FFBAAE740F205513F4803F08B
:100C000059FBA8E740F206513C4803F053FBA5E727
:100C1000286802699BB203EB4303072101FA03F33F
:100C200022EA0303036128680269A168238803EBB1
:100C3000430301FA03F313430361B1E70C2B16D806
:100C40002868026B03EB8303233B1F2101FA03F3A4
:100C500022EA030303632868026B636803EB8303E0
:100C6000233B218801FA03F313430363B1E72868A8
:100C7000C26A03EB8303413B1F2101FA03F322EA1B
:100C80000303C3622868C26A636803EB8303413BC2
:100C9000218801FA03F31343C3629AE72368122BF6
:100CA0009BD1174A536843F48003536095E7236848
:100CB000103B012B95D8124A536843F4000353604C
:100CC0002368102B8DD10F4B1B6802F1467202F581
:100CD0002E3202F28332A2FB03239B0C03EB83032D
:100CE0005A00019202E0019B013B0193019B002B02
:100CF000F9D176E7022077E700200140D45A0008B6
:100D0000002301400C0000207047000010B504468D
:100D1000C31E042B0FD80A4AD36823F4E0631B04D4
:100D20001B0C240204F4E064234343F0BF6343F448
:100D30000033D36010BDA421024803F0BBFAEAE7F8
:100D400000ED00E0045B000870B505460C46164651
:100D50000F2A25D80F2C28D81B4BDB68C3F302239E
:100D6000C3F10702042A28BF0422191D062921D92C
:100D7000033B4FF0FF3101FA02F224EA02049C40E7
:100D800001FA03F326EA03063443002D14DB2401A1
:100D9000E4B205F1604505F5614585F8004370BD95
:100DA000BC210A4803F086FAD4E7BD21074803F0C6
:100DB00081FAD1E70023DCE705F00F052401E4B256
:100DC000034B5C55EBE700BF00ED00E0045B00085F
:100DD00014ED00E010B5041E08DB04F01F026409E6
:100DE00001239340044A42F8243010BDD021034827
:100DF00003F060FAF1E700BF00E100E0045B0008E7
:100E00000138B0F1807F0AD2064B5860064AF021C3
:100E100082F823100020986007221A607047012092
:100E2000704700BF10E000E000ED00E010B50446A0
:100E3000042800D038B9042C0BD0094A136823F0D9
:100E40000403136010BD40F2B311064803F032FAF8
:100E5000F1E7034A136843F004031360F2E700BFAD
:100E600010E000E0045B000830B405682C6824F44E
:100E700080242C60046863608368402B05D003687D
:100E800099600368DA6030BC704703689A60036851
:100E9000D960F8E70268D3B2103B0B49A1FB0313FA
:100EA0001B090A49C95CC165032B06D822F47F726D
:100EB00022F003028265806D704722F47F7222F077
:100EC000030204328265F6E7ABAAAAAA685B0008AF
:100ED000836A8269C2B9012B0AD01BB1022B0DD0E3
:100EE00000207047C36A13F0807F32D10020704722
:100EF000C36AB3F1C07F2ED000207047C36A13F0DD
:100F0000807F2AD100207047B2F5005F05D0022B08
:100F10002BD9032B15D000207047032B03D8DFE813
:100F200003F01E041E0A00207047C36A13F0807F7E
:100F300017D100207047C36AB3F1C07F13D00020DF
:100F40007047C36A13F0807F01D0012070470020F2
:100F50007047012070470120704701207047012031
:100F60007047012070470120704701207047000042
:100F700070B50446FFF776FA002C00F0368105467E
:100F800023689B4A934231D0183293422ED01832B4
:100F900093422BD01832934228D01832934225D056
:100FA0001832934222D0183293421FD01832934203
:100FB0001CD002F55672934218D01832934215D0C5
:100FC0001832934212D0183293420FD01832934203
:100FD0000CD01832934209D01832934206D01832FE
:100FE000934203D0C921834803F064F96368A3B135
:100FF000B3F1007F11D0B3F1806F0ED0B3F1C06FA9
:101000000BD0B3F1006F08D0B3F1206F05D0B3F16E
:10101000406F02D0B3F1606F6DD1A3681BB1402B5C
:1010200001D0802B6CD1E368B3F5007F01D0002B99
:101030006BD12369B3F5806F01D0002B6AD163694E
:101040002BB1B3F5006F02D0B3F5805F67D1A36910
:101050002BB1B3F5005F02D0B3F5804F64D1E369E3
:1010600023B1B3F5807F01D0202B62D1236A43B135
:10107000B3F5803F05D0B3F5003F02D0B3F5403F54
:101080005CD1636A0BB1042B5DD1636AC3B1A36AFF
:10109000032B5DD8E36A43B1B3F5000F05D0B3F17C
:1010A000807F02D0B3F1C07F57D1236B43B1B3F53A
:1010B000001F05D0B3F5800F02D0B3F5C00F51D19A
:1010C000002384F83430022384F835302268136812
:1010D00023F00103136023681A6812F0010F46D051
:1010E000FFF7C0F9401B0528F5D9202363650320CD
:1010F00084F8350070BDCA213E4803F0DBF88CE768
:10110000CB213C4803F0D6F88DE7CC21394803F0D9
:10111000D1F88EE7CD21374803F0CCF88FE7CE2108
:10112000344803F0C7F892E7CF21324803F0C2F801
:1011300095E7D0212F4803F0BDF897E7D1212D483E
:1011400003F0B8F89DE7D2212A4803F0B3F89CE7F2
:10115000D721284803F0AEF89CE7D821254803F0B2
:10116000A9F8A2E7D921234803F0A4F8A8E71A6850
:10117000214810406168A2680A43E1680A43216976
:101180000A4361690A43A1690A43E1690A43216A82
:101190000A430243616A04291CD01A6026687569F3
:1011A00025F00705636A1D43042B05D1A36A1D437F
:1011B0002046FFF78DFE90B975612046FFF76AFE65
:1011C000E26D3F239340836000206065012384F833
:1011D00035308FE7E16A206B01430A43DDE74023A6
:1011E0006365012084F8350084E7012082E700BFB1
:1011F00010600240385B00083F8010F02DE9F0419C
:1012000004460F4690461D46866D5A1E4FF6FE73E5
:101210009A4211D894F83430012B3AD0012384F843
:10122000343094F83530DBB2012B0BD0002384F836
:1012300034300220BDE8F08140F2CD11164803F0B1
:1012400039F8E7E7022384F83530002363652B463D
:10125000424639462046FFF707FEE26D3F239340A2
:10126000B3602268136843F0160313602268536961
:1012700043F080035361236C23B12268136843F069
:10128000080313602268136843F001031360002011
:10129000D0E70220CEE700BF385B0008F0B583B08E
:1012A000044600230193724B1D68724BA3FB053566
:1012B000AD0A876D3E68C26D08239340334210D05B
:1012C00003681A6812F0040F0BD01A6822F00402A7
:1012D0001A60C26D08239340BB60436D43F0010365
:1012E0004365E26D644B9340334209D022685269F2
:1012F00012F0800F04D0BB60636D43F0020363659E
:10130000E26D5E4B9340334209D02268126812F0BE
:10131000020F04D0BB60636D43F004036365E26DAC
:1013200010239340334224D02268126812F0080F31
:101330001FD0BB6023681A6812F4802F0DD01B6881
:1013400013F4002F04D1236C9BB12046984710E082
:10135000A36C73B1204698470BE01A6812F4807FA3
:1013600003D11A6822F008021A60236C0BB12046E0
:101370009847E26D20239340334255D0226812688B
:1013800012F0100F50D0BB6094F83530DBB2052B53
:101390000ED023681A6812F4802F33D01B6813F420
:1013A000002F2AD1636C002B3ED0204698473BE0AB
:1013B0002268136823F0160313602268536923F030
:1013C00080035361236CA3B12268136823F00803E0
:1013D0001360E26D3F239340BB60002384F83430F8
:1013E000012384F83530236D002B3FD020469847E9
:1013F0003CE0A36C002BE7D1EBE7E36BA3B1204605
:10140000984711E01A6812F4807F09D11A6822F017
:1014100010021A60002384F83430012384F8353038
:10142000E36B0BB120469847636DFBB1636D13F01E
:10143000010F17D0052384F835302268136823F094
:1014400001031360019B01330193AB4204D823686D
:101450001B6813F0010FF5D1002384F83430012309
:1014600084F83530E36C0BB12046984703B0F0BDEB
:101470000C000020B5814E1B01008000040080009C
:101480002DE9F04782B080460E46A24B984217D015
:1014900003F58063984213D003F5806398420FD020
:1014A00003F5806398420BD003F58063984207D020
:1014B00003F54063984203D0C521974802F0FAFE35
:1014C000338833B37368012B1ED9112B1CD0022B28
:1014D0001AD0122B18D0914A934215D002F58012DF
:1014E000934211D002F5801293420DD0A2F5F8126A
:1014F000934209D002F58012934205D002F5801282
:10150000934201D0032B09D1B368022B0BD80024DE
:101510004AE0C621804802F0CDFED3E7C7217E48CD
:1015200002F0C8FEF0E7C8217B4802F0C3FEEEE7F8
:10153000EC21794802F0BEFE90E0042300E0002395
:101540008B4003430232764941F82230754B1A68CA
:10155000FB4303EA0201706810F4803F01D047EAC0
:101560000201704A1160526803EA0201706810F4C7
:10157000003F01D047EA02016A4A5160926803EADB
:101580000201706810F4801F01D047EA0201654A29
:101590009160D2681340716811F4001F01D047EACE
:1015A0000203604AD36001340F2C00F2B0800125A1
:1015B000A54037682F40BD42F5D17368022B01D09A
:1015C000122B2BD13369CBB1092B17D0012B15D09E
:1015D000022B13D0042B11D0052B0FD0062B0DD0CE
:1015E000072B0BD0082B09D00A2B07D00C2B05D0CA
:1015F0000F2B03D0D921484802F05CFEE2080832E4
:1016000058F8220004F0070399000F238B4020EACA
:10161000030033698B40034348F82230D8F8002098
:101620004FEA440A4FF0030909FA0AF96FEA090977
:1016300009EA0202736803F0030303FA0AF313438F
:10164000C8F8003073685A1E012A03D9112B01D043
:10165000122B18D1F368032B3FF66AAFD8F8082095
:1016600009EA0202F36803FA0AF31343C8F80830E0
:10167000D8F8042022EA05027368C3F30015A540D8
:101680001543C8F80450D8F80C3009EA0309B368C8
:1016900003FA0AF343EA0903C8F80C30736813F03D
:1016A000805F80D0002301931F4B5A6C42F480422C
:1016B0005A645B6C03F480430193019BA208911C64
:1016C000174B53F8210004F0030399000F238B40BC
:1016D00020EA03000F4B98453FF431AF03F58063D8
:1016E00098450ED003F5806398450CD003F58063D0
:1016F00098450AD003F5806398453FF41EAF052353
:101700001EE701231CE702231AE7032318E702B0B0
:10171000BDE8F08700000240705B00080000111077
:1017200000380140003C01400038024030B583B031
:10173000044603680F2B29D8236813F0010F3DD00E
:101740006368012B01D9052B25D1A34B9B6803F0BE
:101750000C03042B29D0A04B9B6803F00C03082B2F
:101760001ED022799D4B1A706368002B50D0FEF773
:1017700079FE0546984B1B6813F4003F1ED1FEF717
:1017800071FE401B6428F5D90320E3E1F52194485C
:1017900002F090FDD0E7FA21914802F08BFDD4E7EA
:1017A0008D4B5B6813F4800FDBD08B4B1B6813F4FD
:1017B000003F03D06368002B00F0C981236813F059
:1017C000020F5DD0E368012B31D823691F2B34D879
:1017D000814B9B6813F00C0F3AD07F4B9B6803F052
:1017E0000C03082B2FD0E368002B74D07D4B012213
:1017F0001A60FEF737FE0546774B1B6813F0020FA1
:101800005AD1FEF72FFE401B0228F5D90320A1E193
:10181000FEF728FE0546704B1B6813F4003FCDD041
:10182000FEF720FE401B6428F5D9032092E14FF417
:1018300096716B4802F03EFDC7E740F22D116848F3
:1018400002F038FDC4E7644B5B6813F4800FCAD123
:10185000614B1B6813F0020F04D0E368012B01D029
:10186000012077E15C48036823F0F8032169F8223E
:1018700092FAA2F2B2FA82F201FA02F21343036080
:10188000236813F0080F50D06369012B35D86369C2
:10189000002B38D0544B01221A60FEF7E3FD0546B9
:1018A0004D4B5B6F13F0020F3FD1FEF7DBFD401B8A
:1018B0000228F5D903204DE14748036823F0F803D7
:1018C0002169F82292FAA2F2B2FA82F201FA02F245
:1018D00013430360D4E7434B00221A60FEF7C2FDB6
:1018E00005463D4B1B6813F0020FC9D0FEF7BAFD49
:1018F000401B0228F5D903202CE140F26D11384835
:1019000002F0D8FCC3E7384B00221A60FEF7AAFDAC
:101910000546314B5B6F13F0020F06D0FEF7A2FDB8
:10192000401B0228F5D9032014E1236813F0040FAB
:1019300060D0A368012B01D9052B1FD1002301938F
:10194000254B1A6C42F080521A641B6C03F08053D2
:101950000193019B254A136843F480731360FEF7DB
:1019600081FD0546214B1B6813F4807F0CD1FEF7E7
:1019700079FD401B0228F5D90320EBE040F29711D6
:10198000174802F097FCD9E7227A194B1A70A3681E
:1019900083B1FEF767FD05460F4B1B6F13F0020F77
:1019A00028D1FEF75FFD401B41F288339842F3D9FE
:1019B0000320CFE0FEF756FD0546074B1B6F13F0E3
:1019C000020F17D0FEF74EFD401B41F288339842BC
:1019D000F3D90320BEE000BF0038024002380240C5
:1019E000B05B000800004742800E47420070004094
:1019F00070380240A369022B39D8A369002B00F08C
:101A0000A880564A926802F00C02082A00F0A480CE
:101A1000022B40F08880E36913B1B3F5800F2CD11D
:101A2000236A3F2B2FD8636A323BB3F5BF7F30D890
:101A3000A36A022B05D0042B03D0062B01D0082B60
:101A40002DD1E36A043B0B2B2FD8454B00221A60A3
:101A5000FEF708FD0546414B1B6813F0007F2AD0B6
:101A6000FEF700FD401B0228F5D9032072E04FF479
:101A7000E6713C4802F01EFCBFE740F2D511394840
:101A800002F018FCCCE74FF4EB71364802F012FC80
:101A9000C9E740F2D711334802F00CFCC8E74FF415
:101AA000EC71304802F006FCCBE740F2D9112D482A
:101AB00002F000FCC9E7E369226A1343616A47F652
:101AC000C07292FAA2F2B2FA82F201FA02F213435F
:101AD000A26A5208013A4FF4403191FAA1F1B1FAE9
:101AE00081F18A401343E16A4FF0706292FAA2F2E8
:101AF000B2FA82F201FA02F21343184A5360184B09
:101B000001221A60FEF7AEFC0446144B1B6813F06A
:101B1000007F06D1FEF7A6FC001B0228F5D90320A2
:101B200018E0002016E00E4B00221A60FEF79AFC27
:101B300004460A4B1B6813F0007F06D0FEF792FCA8
:101B4000001B0228F5D9032004E0002002E0012058
:101B500000E0002003B030BD0120FBE70038024068
:101B600060004742B05B0008214B9B6803F00C0308
:101B7000042B3AD0082B01D01E4870471C4B5868E4
:101B800000F03F005B6813F4800F1ED01A4AB2FBCE
:101B9000F0F2174B586847F6C073184093FAA3F356
:101BA000B3FA83F3D84000FB02F0114B5B6803F4F7
:101BB00040334FF4403292FAA2F2B2FA82F2D340AA
:101BC00001335B00B0FBF3F070470A4AB2FBF0F25E
:101BD000074B586847F6C073184093FAA3F3B3FA5B
:101BE00083F3D84000FB02F0DFE70348704700BFF3
:101BF000003802400024F40000BD010570B5044621
:101C00000D460368013B0E2B11D8072D15D88C4BC0
:101C10001B6803F00F03AB4215D2EBB2884A137076
:101C2000136803F00F03AB420DD0012070BD40F2EA
:101C30003721844802F03EFBE7E74FF40E718148FC
:101C400002F038FBE3E7236813F0020F18D0A36813
:101C50007BB1802B0DD0902B0BD0A02B09D0B02BBB
:101C600007D0C02B05D0D02B03D0E02B01D0F02B18
:101C700037D1754A936823F0F003A1680B43936052
:101C8000236813F0010F73D06368032B2FD86368A8
:101C9000012B32D09A1E012A36D96B4A126812F0F3
:101CA000020F00F0CA8068498A6822F003021343D9
:101CB0008B60FEF7D7FB06466368012B2BD0022B07
:101CC00038D0032B45D0604B9B6813F00C0F4FD0DE
:101CD000FEF7C8FB801B41F288339842F3D90320FA
:101CE000A4E740F24F21574802F0E4FAC1E740F27E
:101CF0005621544802F0DEFAC9E7534A126812F43A
:101D0000003FD0D1012091E74F4A126812F0007FC6
:101D1000C9D101208AE74C4B9B6803F00C03042BCC
:101D200026D0FEF79FFB801B41F288339842F2D900
:101D300003207BE7444B9B6803F00C03082B17D070
:101D4000FEF790FB801B41F288339842F2D90320C2
:101D50006CE73D4B9B6803F00C030C2B08D0FEF79F
:101D600081FB801B41F288339842F2D903205DE762
:101D7000334B1B6803F00F03AB4209D9EAB2304B77
:101D80001A701B6803F00F03AB4201D001204DE72E
:101D9000236813F0040F14D0E3685BB1B3F5805FE0
:101DA00008D0B3F5A05F05D0B3F5C05F02D0B3F59E
:101DB000E05F36D1244A936823F4E053E1680B4393
:101DC0009360236813F0080F15D023695BB1B3F556
:101DD000805F08D0B3F5A05F05D0B3F5C05F02D037
:101DE000B3F5E05F23D1184A936823F46043216977
:101DF00043EAC1039360FFF7B7FE134B9B6803F000
:101E0000F003F02292FAA2F2B2FA82F2D3400F4A21
:101E1000D35CD8400E4B1860002002F0EBFA002093
:101E200004E74FF42D71074802F044FAC2E740F28C
:101E3000BB21044802F03EFAD5E70120F6E600BFD8
:101E4000003C0240B05B000800380240A05B000884
:101E50000C000020014B1868704700BF0C000020E8
:101E600008B5FFF7F7FF074B9B6803F460434FF497
:101E7000604292FAA2F2B2FA82F2D340024AD35CF2
:101E8000D84008BD00380240A05B00080F23036063
:101E90000B4B9A6802F0030242609A6802F0F0026B
:101EA00082609A6802F4E052C2609B68DB0803F427
:101EB000E0530361034B1B6803F00F030B60704793
:101EC00000380240003C024010B4036A046A24F067
:101ED00001040462846924F0F00444EA021223F04D
:101EE0000A030B43826103625DF8044B704710B430
:101EF000036A23F0100303628469036A24F47044C4
:101F000044EA023223F0A00343EA01138261036230
:101F10005DF8044B7047836823F0700341F00701BC
:101F200019438160704710B4846824F47F4442EA06
:101F300003230B43234383605DF8044B7047000089
:101F400010B504460368174A93421FD0B3F1804F7F
:101F50001CD0A2F57C42934218D002F580629342D5
:101F600014D002F58062934210D002F59A32934267
:101F70000CD002F58062934208D002F58062934251
:101F800004D04FF4B271084802F094F92268D36883
:101F900043F00103D3602268136843F00103136028
:101FA000002010BD00000140E05B000838B590F84B
:101FB0003830012B00F070820D460446012380F872
:101FC0003830022380F839300B68B3F5805F11D0C8
:101FD000B3F5005F0ED06BB1102B0BD0202B09D0C6
:101FE000302B07D0402B05D0502B03D0602B01D0D5
:101FF000702B4AD12268936823F47F4323F0770340
:1020000093602B68402B00F0BF8144D9702B00F007
:10201000058100F28F80502B00F06481602B40F02E
:10202000F6802368AD4A934217D0B3F1804F14D0A5
:10203000A2F57C42934210D002F5806293420CD00C
:1020400002F58062934208D002F59A32934204D09E
:1020500040F6BA71A24802F02DF96B68B3F5004F53
:1020600005D023B1022B02D00A2B40F08181EB680E
:102070000F2B00F28381EA6869682068FFF737FF59
:1020800060212068FFF747FFC1E040F66D7194487A
:1020900002F010F9AEE7102B00F0BC8126D9202BFE
:1020A00000F0D981302B40F0B28023688B4A9342F4
:1020B00017D0B3F1804F14D0A2F57C42934210D0D8
:1020C00002F5806293420CD002F58062934208D000
:1020D00002F59A32934204D040F6E871804802F04B
:1020E000E9F830212068FFF716FF90E0002B40F060
:1020F0008E802368794A934217D0B3F1804F14D071
:10210000A2F57C42934210D002F5806293420CD03B
:1021100002F58062934208D002F59A32934204D0CD
:1021200040F6D6716E4802F0C5F800212068FFF72E
:10213000F2FE6CE0B3F5805F40D0B3F5005F66D18E
:102140002368664A934213D0B3F1804F10D0A2F5B2
:102150007C4293420CD002F58062934208D002F593
:102160008062934204D040F69A715D4802F0A2F872
:102170006B68B3F5004F05D023B1022B02D00A2BB8
:1021800040F09980AB684BB1B3F5805F06D0B3F5F2
:10219000005F03D0B3F5405F40F09380EB680F2BF6
:1021A00000F29580EB686A68A9682068FFF7BBFEBB
:1021B0002268936843F48043936028E02368474A89
:1021C00093421FD0B3F1804F1CD0A2F57C429342C2
:1021D00018D002F58062934214D002F580629342D7
:1021E00010D002F59A3293420CD002F580629342ED
:1021F00008D002F58062934204D040F679713848E5
:1022000002F058F82268936823F0070393600123D3
:1022100084F83930002084F8380038BD23682F4A0C
:10222000934213D0B3F1804F10D0A2F57C42934279
:102230000CD002F58062934208D002F5806293428E
:1022400004D040F68271264802F034F86B68B3F58A
:10225000004F04D01BB1022B01D00A2B19D1AB685F
:1022600043B1B3F5805F05D0B3F5005F02D0B3F59D
:10227000405F14D1EB680F2B17D8EB686A68A96828
:102280002068FFF750FE2268936843F0770393605D
:10229000BDE740F68471124802F00CF8DFE740F623
:1022A00085710F4802F006F8E4E740F686710C48A5
:1022B00002F000F8E1E740F69C71094801F0FAFFEE
:1022C00060E740F69D71064801F0F4FF66E740F6CE
:1022D0009E71034801F0EEFF64E700BF000001407B
:1022E000E05B000823686D4A93421FD0B3F1804F32
:1022F0001CD0A2F57C42934218D002F58062934232
:1023000014D002F58062934210D002F59A329342C3
:102310000CD002F58062934208D002F580629342AD
:1023200004D040F6AC715E4801F0C4FF6B68B3F5B1
:10233000004F04D01BB1022B01D00A2B0CD1EB684B
:102340000F2B0FD8EA6869682068FFF7BDFD5021A0
:102350002068FFF7E0FD5AE740F6AF71504801F002
:10236000A9FFECE74FF47B614D4801F0A3FFE9E7DB
:1023700040F6BD714A4801F09DFF78E640F6BE7117
:10238000474801F097FF76E62368444A93421FD0FE
:10239000B3F1804F1CD0A2F57C42934218D002F5D5
:1023A0008062934214D002F58062934210D002F50D
:1023B0009A3293420CD002F58062934208D002F523
:1023C0008062934204D040F6C871354801F072FF34
:1023D0006B68B3F5004F04D01BB1022B01D00A2B60
:1023E0000CD1EB680F2B0FD8EA6869682068FFF7FB
:1023F0006BFD40212068FFF78EFD08E740F6CB71AA
:10240000274801F057FFECE740F6CC71244801F073
:1024100051FFE9E72368214A934217D0B3F1804F77
:1024200014D0A2F57C42934210D002F58062934210
:102430000CD002F58062934208D002F59A329342A2
:1024400004D040F6DC71164801F034FF10212068FA
:10245000FFF761FDDBE62368104A934217D0B3F122
:10246000804F14D0A2F57C42934210D002F58062D6
:1024700093420CD002F58062934208D002F59A3262
:10248000934204D040F6E271054801F013FF202189
:102490002068FFF740FDBAE60220BEE600000140DA
:1024A000E05B0008704770477047704710B50446FE
:1024B00003681A6912F0020F11D0DA6812F0020FE5
:1024C0000DD06FF002021A610123037603689B6945
:1024D00013F0030F70D0FFF7E6FF00232376236885
:1024E0001A6912F0040F12D0DA6812F0040F0ED03D
:1024F0006FF004021A610223237623689B6913F4A8
:10250000407F5FD02046FFF7CEFF0023237623686D
:102510001A6912F0080F12D0DA6812F0080F0ED004
:102520006FF008021A61042323762368DB6913F035
:10253000030F4ED02046FFF7B6FF00232376236813
:102540001A6912F0100F12D0DA6812F0100F0ED0C4
:102550006FF010021A61082323762368DB6913F4F5
:10256000407F3DD02046FFF79EFF0023237623685F
:102570001A6912F0010F03D0DA6812F0010F36D198
:1025800023681A6912F0800F03D0DA6812F0800F06
:1025900034D123681A6912F0400F03D0DA6812F0C0
:1025A000400F32D123681A6912F0200F03D0DA6885
:1025B00012F0200F30D110BDFFF774FF2046FFF757
:1025C00073FF8AE72046FFF76DFF2046FFF76CFF99
:1025D0009BE72046FFF766FF2046FFF765FFACE765
:1025E0002046FFF75FFF2046FFF75EFFBDE76FF075
:1025F00001021A61204601F0E5FCC1E76FF080029C
:102600001A61204600F01FF9C3E76FF040021A611B
:102610002046FFF74AFFC5E76FF020021A61204607
:1026200000F010F9C7E700000368234A90420ED07B
:10263000B0F1804F0BD0A2F57C42904207D002F55A
:102640008062904203D002F58062904203D123F071
:1026500070034A681343184A90421AD0B0F1804F71
:1026600017D0A2F57C42904213D002F580629042CE
:102670000FD002F5806290420BD002F59A32904260
:1026800007D002F58062904203D002F5806290424A
:1026900003D123F44073CA68134303608B68C36299
:1026A0000B688362044B984202D001234361704758
:1026B0000B690363F9E700BF00000140002855D013
:1026C00010B5044603682A4A93421ED0B3F1804FE6
:1026D0001BD0A2F57C42934217D002F58062934250
:1026E00013D002F5806293420FD002F59A329342E2
:1026F0000BD002F58062934207D002F580629342CC
:1027000003D0D9211B4801F0D5FDA3683BB1102BA4
:1027100005D0202B03D0402B01D0602B16D123698C
:102720002BB1B3F5807F02D0B3F5007F13D194F8BD
:102730003930ABB1022384F83930211D2068FFF70E
:1027400073FF012384F83930002010BDDA210948D5
:1027500001F0B0FDE3E7DB21064801F0ABFDE6E761
:1027600084F83830204601F027FEE3E70120704767
:1027700000000140E05B000838B504460D460368E0
:102780002E4A934213D0B3F1804F10D0A2F57C4271
:1027900093420CD002F58062934208D002F5806229
:1027A000934204D04FF4CB61254801F083FD2B68A0
:1027B0006BB1102B0BD0202B09D0302B07D0402B26
:1027C00005D0502B03D0602B01D0702B27D16B6824
:1027D000802B00D04BBB94F83830012B2BD001223A
:1027E00084F83820022384F8393021684B6823F0BC
:1027F00070034B6021684B68286803434B60216875
:102800008B6823F080038B6021688B6868680343C2
:102810008B6084F83920002084F8380038BD40F2FD
:102820005961074801F046FDD1E740F25A6104487A
:1028300001F040FDCFE70220F0E700BF00000140BB
:10284000105C000870477047FEE7000008B50346BB
:102850000C4A12685AB10B4A1068033323F0030381
:102860000344094A934206D8064A136008BD054A44
:1028700006491160EFE702F0B7FC0C2303604FF04C
:10288000FF30F3E78400002000FC0020F4BF0020AC
:1028900001230360014B0B60704700BF0400002060
:1028A0000FB400B583B004AB53F8042B019380211F
:1028B000064802F0D7FC002803DD0146034800F07B
:1028C00037F803B05DF804EB04B070478C000020CB
:1028D0002DE9F04385B004460F4643560BB10E4632
:1028E0001EE0042528462146ABBE0446384605B006
:1028F000BDE8F08314F9011B04AA1A4402F8101C65
:102900000133AB42F6D304AA1344002203F8102C7F
:102910004FF00408E94640464946ABBE8046761B68
:10292000002EE3D03546102E28BF10250023E8E7FF
:1029300008B5FFF7CDFF08BD08B500F09FF8054BBF
:10294000054A9A60D3F8882042F47002C3F88820C0
:1029500008BD00BF00ED00E00000000808B500F071
:10296000B3F808BDF8B504460D4617461E4627487D
:10297000FFF796FF21682648FFF792FF6168254818
:10298000FFF78EFFA1682448FFF78AFFE16823481C
:10299000FFF786FF21692248FFF782FF616921481E
:1029A000FFF77EFFA1692048FFF77AFFE1691F4822
:1029B000FFF776FF1E48FFF773FF29461D48FFF714
:1029C0006FFF1D4CE16A1D48FFF76AFF216B1C4831
:1029D000FFF766FFE16B1B48FFF762FF15F0800F02
:1029E0000AD115F4004F0CD11748FFF759FF06998B
:1029F0001648FFF755FFF8BD39461548FFF750FF59
:102A0000EFE731461348FFF74BFFEDE7445C000862
:102A1000545C0008645C0008745C0008845C000876
:102A2000945C0008A45C0008B45C0008C45C000866
:102A3000D45C0008E05C000800ED00E0F05C0008F9
:102A4000005D0008105D0008405D0008485D00085A
:102A5000205D0008305D000883691A888A4201D031
:102A6000002070470268033A012A03D802338361C9
:102A70000120704700207047FEE700000F49D1F8A1
:102A8000883043F47003C1F888300D4B1A6842F067
:102A900001021A60002098601A6822F0847222F401
:102AA00080321A60074A5A601A6822F480221A603B
:102AB000D8604FF000638B60704700BF00ED00E00E
:102AC0000038024010300024224B9B6803F00C03B6
:102AD000042B14D0082B16D01BB11F4B1F4A1A60B1
:102AE00002E01D4B1D4A1A601A4B9B68C3F3031387
:102AF0001B4AD15C184A1368CB4013607047164BD1
:102B0000184A1A60F0E7134B5A685B6803F03F03FA
:102B100012F4800F13D0134AB2FBF3F20D4B5B6833
:102B2000C3F3881303FB02F30A4A5268C2F301425B
:102B300001325200B3FBF2F3074A1360D4E7074AAD
:102B4000B2FBF3F2034B5B68C3F3881303FB02F39E
:102B5000EAE700BF003802400C0000200024F40027
:102B60008C5D000800BD01054B1C012B98BF704710
:102B70002DE9F003911C9B08B1F80480B1F8029094
:102B80000A8831F802CC8044814402448444D9F854
:102B90000070D8F800601568DCF80040C9F80060E3
:102BA000C8F80070CCF800501460D9F80470D8F858
:102BB00004605568DCF80440C9F80460C8F8047083
:102BC000CCF8045054600831013BD5D1BDE8F00386
:102BD00070474B1C012B98BF70472DE9F003911CE7
:102BE0009B08B1F80480B1F802900A8831F802CC51
:102BF00000EB580800EB590900EB520200EB5C0CAB
:102C0000D9F80070D8F800601568DCF80040C9F801
:102C10000060C8F80070CCF8005014600831013B27
:102C2000DFD1BDE8F00370472DE9F0412DED028BB7
:102C300007460846398800EB81087E684FEA510C48
:102C40004FEA8C03C5184344C908444602469DE038
:102C500092ED005A92ED016A92ED021A92ED037A1A
:102C600094ED000AD4ED010A94ED023AD4ED031A72
:102C700095ED002AD5ED012A95ED024AD5ED034ADE
:102C8000D3ED005AD3ED016AD3ED023AD3ED037AC6
:102C900035EE008A82ED008A36EE208A82ED018AC6
:102CA00031EE038A82ED028A37EE218A82ED038AB1
:102CB00035EE405A36EE606A31EE433A37EE617ACD
:102CC00072EE251AC5ED001A72EEA61AC5ED011AAC
:102CD00074EE231AC5ED021A74EEA71AC5ED031A95
:102CE00075EEC25A76EEE26A73EEC42A77EEE47AA3
:102CF000D6ED004A96ED014A65EE243A26EE042A06
:102D000026EE246A25EE045A73EE823AC4ED003AA8
:102D100036EE456A84ED016A25EE846A26EEA45AF1
:102D200066EE846A65EEA45A36EE456A83ED006A63
:102D300076EEA56AC3ED016AD6ED026A96ED036AE6
:102D400023EE265A67EE064A27EE267A63EE065AE7
:102D500035EE245A84ED025A37EE657A84ED037A13
:102D600062EE865A27EEA65A67EE867A22EEA67A99
:102D700075EEC56AC3ED026A77EE877AC3ED037A12
:102D800001391036103410331035103200297FF419
:102D90005FAF1FFA8CF402237A68214600F0AAFA8A
:102DA00002237A682146404600F0A4FABDEC028B6B
:102DB000BDE8F0812DE9F04F2DED068B89B0054679
:102DC00006900F46079103885B0899007A180392D2
:102DD0005418049466180596A2F1040E2046A4F136
:102DE0000408341F21446D685B08029397ED007A54
:102DF000D0ED007A37EE272A37EE677AD7ED017AE1
:102E0000D0ED016A77EEA62A77EEE67A92ED013AE6
:102E100073EE073AD6ED015A73EEE53A92ED006A89
:102E200037EEC64AD6ED006A34EE264A72EE464ABE
:102E300074EEE64A32EEC35A35EE655A37EE437AFF
:102E400035EE877A76EE277A77EEE67A36EE026A04
:102E500076EE866ABC4616EE909A4CF8089BD2ED48
:102E6000016A76EEA26A96ED016A76EE866AC7ED91
:102E7000016A134613EE909A42F8089B83ED014ACB
:102E8000034614EE909A40F8089B83ED015A3346AE
:102E900017EE109A43F8089BC6ED017A05F1080A6F
:102EA00005F110061835029FA7F1020B4FEA5B0BE4
:102EB00012E1DCED005AD0ED007A75EEA76A75EEEE
:102EC000E75ADCED010AD0ED017A30EEA75A70EE38
:102ED000E70A92ED016A36EE253A93ED011A33EED8
:102EE000413A92ED007A30EEC70AD3ED007A30EE27
:102EF000270A76EEC73A73EEE73A35EE468A38EEA1
:102F0000418A35EEC66A31EE061A77EE200A70EE77
:102F1000E70A37EE267A77EE877A674617EE909AB9
:102F200047F8089B0197D2ED017A37EE855AD3ED29
:102F3000017A35EE275A8CED015A1EED016A54EDE7
:102F4000017A76EE278A36EE676ADEED006AD4ED06
:102F5000005A76EEA51A76EEE56A98ED002AD1EDD4
:102F6000002A32EE62AA3AEE064A18ED019A76EE8F
:102F7000C94A51ED019A74EEA94A38EEC95A35EEA4
:102F8000695A71EEC25A75EEE25A3AEE466A39EE65
:102F9000C99A79EE666A32EE212A72EE822A774663
:102FA00012EE909A47F8089958ED017A77EEA88AC0
:102FB00051ED017A78EEA78A4EED018A0AF10809EF
:102FC000DAED007A9AED017A23EE272A60EE072ADD
:102FD00020EE270A23EE073A72EE222A924612EEDC
:102FE00090EA4AF808EB30EE433A82ED013A64EE9B
:102FF000872A24EE273A24EE077A64EEA77A72EE47
:10300000C34AC44614EE902A4CF8082977EE277A72
:1030100048ED017A96ED007AD6ED017A103623EE6E
:10302000874A68EE274A28EE078A63EEA73A74EECD
:10303000244A024614EE90EA42F808EB78EE633A2E
:10304000C0ED013A25EEC74A65EE274A25EE077A1C
:1030500065EEA77A74EE645AA64615EE900A4EF80D
:10306000080977EEC77A44ED017AD5ED007A95ED3F
:10307000017A183521EE275A60EE875A60EEA70ACA
:1030800021EE071A75EE255A184615EE904A40F8BB
:10309000084B30EEC11A83ED011A26EE875A66EE10
:1030A000275A26EE077A66EEA77A75EE656A0C4611
:1030B00016EE903A44F8083977EE277A41ED017A16
:1030C0000BF1FF3B034610465246CA462146744662
:1030D000E046BE46DDF804C0BBF1000F7FF4E9AE68
:1030E0009CED006AD0ED007A36EE272A36EE676A4C
:1030F000DCED017A90ED017A77EE872A77EEC77AD8
:1031000092ED013A33EE065AD3ED013A35EE635AA9
:1031100092ED004A77EEC46AD3ED004A76EEA46AD7
:1031200072EE445A75EEE45A32EEC37A37EE637AA1
:1031300036EE436A33EE866A74EE277A77EEE47AE7
:1031400034EE024A74EE844ACCED004AD2ED014AD4
:1031500074EEA24A93ED014A74EE844ACCED014A22
:10316000DAED003A9AED014A65EE234A26EE843AFA
:1031700066EEA36A25EE045A74EE834AC2ED004A55
:1031800076EEC56AC2ED016AD6ED004A96ED015AA7
:1031900065EEA46A27EE054A27EE247A65EE855A85
:1031A00076EE846AC0ED006A37EE657A80ED017ACA
:1031B000D5ED005AD5ED016A26EE257A27EEA65AFE
:1031C00067EEA57A26EE266A37EE057A83ED007A59
:1031D00077EEC67AC3ED017ABDF808400423069D58
:1031E0006A682146079800F085F804236A6821463A
:1031F000039800F07FF804236A682146049800F0E1
:1032000079F804236A682146059800F073F809B03C
:10321000BDEC068BBDE8F08F2DE9F84307460C4660
:103220009046994605882E46012A0BD0B5F5807F39
:103230003AD024D8202D37D013D9402D2DD0802D31
:1032400011D014E00A1D002308E0D2ED007AF1EE5F
:10325000677A17EE901A42F8081B0133B342F4D391
:10326000E4E7102D03D121463846FFF7DDFCB9F124
:10327000000F1ED1B8F1010F21D0BDE8F883B5F5DC
:10328000806FF0D006D9B5F5006F0DD0B5F5805F31
:1032900003D0ECE7B5F5007FE9D101237A68294630
:1032A000204600F027F8E2E721463846FFF782FD86
:1032B000DDE7BA68B9892046FFF756FCDAE707EE82
:1032C000905AF8EE677AF7EE006A86EEA77A002346
:1032D0000DE0D4ED007A67EE877AC4ED007AD4ED84
:1032E000017A67EEC77AC4ED017A08340133B3423C
:1032F000EFD3C2E72DE9F04F2DED108B8DB00B927F
:103300000A93079106918046069B4FEAD30900274E
:10331000BC460CEB090109EB010409EB040309EBC2
:10332000030509EB050209EB020009EB00064FEA71
:10333000CC0708EB070B9BED007AED0008EB050AC4
:10334000DAED007A37EE275A37EE676AC900009146
:1033500041440191D1ED002AD20008EB020ECDF8D4
:1033600008E09EED007A72EE877A72EEC72AE400DA
:1033700008EB040EDEED005AC00008EB00010391DB
:10338000D1ED006A35EEA67A35EEE63ADB0008EBC1
:1033900003010491D1ED004AF60008EB0601059106
:1033A000D1ED005A74EEA56A74EEE54A35EE470A8F
:1033B00035EE077A77EEE60A77EEA67A77EE276A99
:1033C000CBED006A77EE677ACAED007A043747449E
:1033D00097ED004A04354544D5ED007A74EE271A7E
:1033E00034EE674A00990431414491ED005A0432A9
:1033F0004244D2ED007A35EE272A35EE675A04347E
:103400004444D4ED006A04304044D0ED007A36EEF6
:10341000A77A76EEE76A04334344D3ED005A0436C4
:103420004644D6ED007A75EEA73A75EEE75A31EECE
:10343000C71A31EE877A72EE631A72EE237A77EE4C
:10344000273AC7ED003A77EE677AC5ED007A70EE5D
:10345000217ACEED007A70EE611A039DC5ED001A57
:1034600071EE607AC4ED007A30EE811A80ED001AB8
:1034700032EEE47ADFEDF27A27EE277A72EEA43AA2
:1034800063EEA73A75EE654A64EEA74A75EE255AD3
:1034900065EEA77A36EE472A36EE077A73EE632A90
:1034A00073EE235A34EE645A34EE246A76EEE74A19
:1034B00076EEA77A77EE276A0198C0ED006A77EE7C
:1034C000677A059CC4ED007A72EE247A0298C0ED0A
:1034D000007A72EE644A0498C0ED004A76EE657A8E
:1034E000C1ED007A35EE866A86ED006A75EE627A85
:1034F000C2ED007A32EE855A83ED005A069B9C4459
:10350000079B63453FF605AFB9F1070F40F2B6815F
:103510000123099300230893CC46089B0A9A13447D
:103520001D4603EB4304181919185A18134408953B
:10353000EE000B9FBD19D5ED00BA089D4FEA051EA0
:103540003D46774497ED00BAE4002F462744D7ED77
:1035500000AAC0002F46074497ED00AAC9002F46D5
:103560000F44D7ED009AD2002F46174497ED009AEA
:10357000DB002F461F44D7ED008A04362F462E4429
:1035800096ED008A0EF104053D4495ED000A0434E1
:103590003C44D4ED000A0430384490ED001A043164
:1035A0003944D1ED001A04323A4492ED002A043332
:1035B0003B44D3ED002ADDF82490CE460EEB0C01FF
:1035C0000CEB01040CEB04030CEB03050CEB050204
:1035D0000CEB02000CEB00064FEACE0708EB070BE2
:1035E000DBED004AED0008EB050ADAED007A34EE77
:1035F000A73A74EEE74AC900009141440191D1ED28
:10360000006AD20008EB0209CDF80890D9ED007AE3
:1036100036EEA77A36EEE7DAE40008EB0409D9EDD6
:10362000006AC00008EB00010391D1ED007A76EE4C
:10363000A75A36EEE75ADB0008EB03010491D1EDFF
:10364000006AF60008EB06010591D1ED007A36EE2E
:10365000A76A76EEE76A33EE65FA33EE253A77EE3F
:1036600046EA37EE067A73EE077ACBED007A73EE10
:1036700047DA0437474497ED007A04354544D5EDE1
:10368000007A37EE27CA77EE675A00990431414431
:10369000D1ED003A04324244D2ED007A73EEA7CA6B
:1036A00073EEE73A0434444494ED006A0430404435
:1036B00090ED007A76EE077A36EE476A043343449B
:1036C00093ED004A0436464496ED007A34EE073A0C
:1036D00034EE474A3CEE67EA3CEE27CA7CEEC37AFA
:1036E0003CEE833A7FEE27CA7FEE677A3CEE037AA0
:1036F00087ED007A3CEE437A3EEE6ECA3EEE8EEAED
:103700002AEE2DFA61EE07EA2AEE077A21EE2D3A2B
:103710007FEE2EDACAED00DA37EE437A85ED007AD5
:103720002BEE2C3A20EE0C7A2BEE0CCA60EE2CCA53
:1037300033EE077A89ED007A3CEE6CCA84ED00CA5C
:1037400029EE273A22EE0E7A29EE0EEA62EE277A69
:1037500033EE077A039C84ED007A3EEE67EA80ED53
:1037600000EA3DEE66CA9FED363A2CEE03CA7DEEC6
:10377000266A66EE836A33EEC47A27EE037A33EE66
:10378000844A24EE033A74EECC7A74EE8C4A75EED9
:10379000663A75EE266A35EEC7CA35EE877A36EE9A
:1037A000435A36EE036A74EE865A34EEC66A37EE32
:1037B000854A77EEC54A37EE665A76EE877A7CEE12
:1037C000636A33EE8C7A2BEEA53A68EE053A2BEE5F
:1037D000855A68EE255A73EE233A0198C0ED003AF7
:1037E00075EE655AC1ED005A28EE865A62EEA75A68
:1037F00068EEA77A22EE866A75EE255A0598C0ED26
:10380000005A77EEC67AC6ED007A69EE845A61EE08
:10381000A67A29EEA66A61EE846A75EEA77A029905
:10382000C1ED007A76EE666AC2ED006A2AEEA46AFD
:1038300060EE876A2AEE877A60EEA47A02E000BF23
:10384000F304353F76EE266A0499C1ED006A77EEFF
:10385000677AC3ED007A069B9E44079B73453FF64B
:10386000ADAE099B013309939C453FF656AE0A9BCA
:10387000DB009BB20A93CDF818C045E50DB0BDEC56
:10388000108BBDE8F08F00BF70B445690088013827
:10389000D1ED007A91ED017A083577EEA77A37EE0F
:1038A000077A77EE876AB6EE006A66EE866A144695
:1038B00016EE903A44F8083B77EEC77A67EE867AC0
:1038C000C2ED017A01EBC006083196ED015A33468C
:1038D000083E93ED007AD1ED004AD1ED017A2B46F6
:1038E0000833D5ED006AD5ED015A37EE646A35EE3E
:1038F000274A66EE863A25EE866A66EE846A65EEAB
:10390000845A37EE247A37EE237A37EE257AF6EEAC
:10391000005A27EE257A224617EE105A42F8085B25
:1039200077EEC57A77EE867A77EEE67A67EEA57A55
:10393000C4ED017A083114461D460138C5D170BC6A
:10394000704770B4456900880138D1ED007A91ED77
:10395000016A083537EE867AF6EE006A27EE267A97
:10396000144617EE103A44F8083B77EEC67A67EE35
:10397000A67AC2ED017A01EBC006083138E096ED77
:10398000015A3346083E93ED007AD1ED005AD1ED4D
:10399000017A2A460832D5ED006A95ED016A35EEC6
:1039A000C74A75EE274A26EE843A66EE243A26EE9A
:1039B000046A66EEA46A37EE257A37EE437A37EE6C
:1039C000637AF6EE005A27EE257A234617EE105A50
:1039D00043F8085B77EEC57A77EE867A77EEE67A7B
:1039E00067EEA57AC4ED017A0831013815461C4608
:1039F0000028C4D170BC7047F8B504460D46164681
:103A0000028A520802801F464BB901233A46FFF74B
:103A100003FC324629462046FFF736FFF8BD324602
:103A2000FFF78FFF01233A4631462046FFF7F4FBAC
:103A3000F4E700004B0803800182802B42D014D9A8
:103A4000B3F5007F33D019D9B3F5806F24D0B3F527
:103A5000006F10D14FF46E6383812E4B83602E4B29
:103A600043602E4B436100207047202B3ED0402BFB
:103A700032D0102B44D04FF0FF307047B3F5807F29
:103A8000F9D14FF4DC738381254B8360254B436070
:103A9000254B4361002070474FF4E1638381234B42
:103AA0008360234B4360234B4361002070474FF4F6
:103AB000E0738381204B8360204B4360204B436144
:103AC00000207047D02383811E4B83601E4B4360D0
:103AD0001E4B436100207047382383811C4B836059
:103AE0001C4B43601C4B4361002070473023838193
:103AF0001A4B83601A4B43601A4B43610020704796
:103B000014238381184B8360184B4360184B436127
:103B100000207047746D000874B70008F44801086D
:103B2000348B000874F70008F48801089C5D0008D5
:103B3000F492000874240108048F0008740001083E
:103B400074120108AC6B0008F4B200087444010858
:103B5000849200087410010874220108A48E0008E1
:103B600074FF0008F49001084C6D0008F4B60008DA
:103B70007448010800286ADD70B4B0FA80F2113A86
:103B800092B214B212F0010256D1A04000B2451018
:103B900007EE900AF8EEE77A9FED2F7A67EE877AC4
:103BA0002E4B17EE906AA3EB660307EE903AFEEEFB
:103BB000C97A17EE903A1EB206FB06F343F3CF33F1
:103BC00005FB03F343F3CF33C3F5405303FB06F385
:103BD00043F3CF339B001EB206FB06F343F3CF3310
:103BE00003FB05F343F3CF33C3F5405303FB06F365
:103BF00043F3CF339B001BB203FB03F646F3CF36F0
:103C000006FB05F545F3CF35C5F5405505FB03F338
:103C100043F3CF339B001BB200FB03F343F3CF33DB
:103C20005B001BB262B904EBD474641043FA04F471
:103C30000C80002070BC7047631E984000B2A6E75D
:103C4000013C04EBD474641043FA04F4F0E700235D
:103C50000B804FF0FF30704700000038DF59375FAE
:103C6000F8B5154616E0044634F9043BB0F90220D5
:103C700003FB03F002FB02F2D317161843EBE077C5
:103C8000700C40EAC7308E1C00B2FFF773FF013D95
:103C900031462046002DE6D1F8BD002303E0002286
:103CA00040F823200133092BF9DD0023836270479C
:103CB000826A531C836240F822100A2B00D070479E
:103CC00000238362FBE7000010B4836A002B53D00B
:103CD000013B50F8232040F2155101FB02F1002B6B
:103CE0004CD0013B50F823202D4C04FB0211002B3B
:103CF00046D0013B50F823206FF4935404FB02118B
:103D0000002B3FD0013B50F8232040F6A46404FB75
:103D10000211CBB3013B50F8232043F6154404FBBA
:103D200002119BB3013B50F8232043F6154404FBDA
:103D300002116BB3013B50F8232040F6A46404FB4E
:103D400002113BB3013B50F823206FF4935404FB62
:103D500002110BB3013B50F82320114C04FB02125B
:103D6000E3B1013B50F8230040F2155303FB002060
:103D700000145DF8044B70470923AAE70923B1E753
:103D80000923B7E70923BEE70923C4E70923CAE7E4
:103D90000923D0E70923D6E70923DCE70923E1E774
:103DA00082F2FFFF10B40022144607E050F82230E0
:103DB0001B019BB240F822301C4401328A42F5D3E9
:103DC000B4FBF1F05DF8044B7047002393420BD233
:103DD00010B451F82340241A41F823400133934290
:103DE000F7D35DF8044B70477047F0B58DB00646C9
:103DF0000F46154601A8FFF750FF002405E056F8CE
:103E0000241001A8FFF754FF0134AC42F7D300247B
:103E10000BE001A8FFF758FF46F82400631956F895
:103E2000231001A8FFF744FF01347B1BA342F0D805
:103E30000DB0F0BDF8B505460F464E1E76080024BD
:103E400019E02004B0FBF6F0A0F5803001F0C8F9CD
:103E5000C0F5803005EB840355F8242000FB02F206
:103E600007EE902AF8EEE77A9FED057A67EE877AFB
:103E7000C3ED007A0134BC42E3D32846F8BD00BF4D
:103E80000000803730B587B005460C464FF400611E
:103E90006846FFF7CFFD10B1002007B030BD00230A
:103EA000224629466846FFF7A7FD4FF400622946DF
:103EB0002046FFF7D5FEEFE730B58BB00024009425
:103EC0002B4B1A6B42F004021A631A6B02F00402C5
:103ED0000092009A01941A6B42F080021A631A6BE6
:103EE00002F080020192019A02941A6B42F00102E0
:103EF0001A631A6B02F001020292029A03941A6B7F
:103F000042F002021A631A6B02F002020392039A51
:103F100004941A6B42F008021A631B6B03F0080347
:103F20000493049B4FF6FF730593032506950794AE
:103F300005A91048FDF7A4FA49F6FE730593069506
:103F4000079405A90C48FDF79BFA4FF2FF73059300
:103F50000695079405A90948FDF792FA04230593ED
:103F60000695079405A90648FDF78AFA0BB030BDFF
:103F700000380240000802400000024000040240F5
:103F8000000C024000B583B000220192094B196B6E
:103F900041F4800119631B6B03F480030193019BBF
:103FA00005213820FCF7D0FE3820FCF713FF03B0C2
:103FB0005DF804FB0038024008B540F6B83000F068
:103FC00040FDFAE708B50268034B9A4200D008BDED
:103FD000FCF740FAFBE700BF00000140014B1870FE
:103FE000704700BF1000002008B50F4B1B6841F25E
:103FF000120293420CD801330B4A13600A4B1A6821
:1040000040F60A039A4207D0074B1B6843B108BD2C
:10401000054B00221A60F1E70020FFF7DFFFF3E70E
:104020000120FFF7DBFFF2E70C010020014B1878BD
:10403000704700BF1000002008B51748FDF780FF4B
:10404000FFF7F4FF0228FBD040F60A0505FB00F05D
:10405000124B03EB8000124C20600220FFF7BEFFE2
:1040600029462068FFF79EFE0E4B18602A462168FD
:10407000FFF7ABFE0A2229462068FFF7B6FE4FF491
:1040800000612068FFF7D6FE074B18604FF400620E
:104090000649FFF7F7FED3E7787F0020243F002092
:1040A000703E002010010020743E0020B47F0020EC
:1040B000FEE7000000B585B01648174B03604FF4CB
:1040C0008033436000238360036183610362C362C2
:1040D000124A8262C3600123C36103634361FCF738
:1040E00073FA68B900230093012301930723029315
:1040F00069460848FCF722FD38B905B05DF804FBB5
:104100004FF483710648FFF7D3FF4FF488710448DA
:10411000FFF7CEFF783E0020002001400100000F95
:104120001C92010800B587B018484FF08043036027
:1041300000234360836042F21072C2600361FEF7A5
:10414000BDFA98B906A94FF4805341F8103D0F48C5
:10415000FDF72CFF78B900230093019369460B48C3
:10416000FEF70AFB60B907B05DF804FB40F22311CB
:104170000748FFF79DFF40F229110548FFF798FF18
:104180004FF498710248FFF793FF00BF787F00203B
:104190001C92010800B595B000220192294B196CC0
:1041A00041F0805119641B6C03F080530193019B13
:1041B000029225490B6823F4404343F400430B600B
:1041C0000B6803F440430293029B022308930121EE
:1041D0000B9110210C910E930F92082210925422F1
:1041E000119212930423139308A8FDF79FFA08BBBA
:1041F0000F23039302210491002305934FF480526F
:104200000692079303A8FDF7F9FCB8B9FDF722FE63
:104210000E4BA3FB00308009FCF7F2FD0420FCF7F5
:1042200005FE00220F214FF0FF30FCF78DFD15B089
:104230005DF804FBD3210648FFF73AFFE12104486B
:10424000FFF736FF0038024000700040D34D621087
:104250001C92010800B58BB0FCF7E2F8FFF79AFF5B
:10426000FFF72AFEFFF78EFEFFF724FFFFF75AFF46
:104270000D4C05AD26460FCE0FC533682B600021CF
:1042800005A800F0C4FB094B18606D4614340FCC30
:104290000FC523682B600021684600F0B8FB044B73
:1042A000186000F0AFFBFEE7F4910108C03E00206B
:1042B000747F0020704708B50320FCF727FD00221B
:1042C00011466FF00B00FCF73FFD002211466FF026
:1042D0000A00FCF739FD002211466FF00900FCF7D7
:1042E00033FD002211466FF00400FCF72DFD002283
:1042F00011466FF00300FCF727FD00220F216FF03D
:104300000100FCF721FD00220F214FF0FF30FCF7E8
:104310001BFD08BD0268234B9A4200D0704730B5A0
:1043200087B004460025009503F58C335A6C42F49F
:1043300080725A645B6C03F480730093009B0123CA
:10434000019303230293039501A91748FDF798F8F9
:104350001648174B036045608560C5604FF4806365
:1043600003614FF4006343614FF400538361C561FF
:104370004FF4003303624562FCF7FAFD60B90B4B62
:10438000A3639C63002205211220FCF7DDFC1220B0
:10439000FCF720FD07B030BD7C210648FFF788FE02
:1043A000EDE700BF0020014000000240C43E0020B5
:1043B00010640240449201080368B3F1804F00D0BA
:1043C000704700B583B00022019203F50E33196CDB
:1043D00041F0010119641B6C03F001030193019B7F
:1043E00005211C20FCF7B0FC1C20FCF7F3FC03B0FB
:1043F0005DF804FB10B588B0002201461920FCF7D7
:10440000A3FC1920FCF7E6FC00240194134B5A6C22
:1044100042F001025A645B6C03F001030193019BBB
:1044200002A903A8FDF732FDFDF71AFD0C4BA3FB13
:1044300000239B0C013B0B480B4A026040F2E73221
:10444000C260436004618460FEF738F910B1012056
:1044500008B010BD0348FDF773FDF9E700380240CE
:1044600083DE1B43B4BF0020000001407047FEE71D
:10447000FEE7FEE7FEE7704708B500F0EBFA08BD7F
:1044800008B50248FCF786FA08BD00BF783E002058
:1044900008B50248FEF70AF808BD00BFB4BF002007
:1044A00008B50648FEF702F8054B19680122054BCE
:1044B00003EB81010448FCF775F908BD787F002003
:1044C0000C010020243F0020783E002008B502485F
:1044D000FCF7E4FE08BD00BFC43E0020124A12F003
:1044E000070F1ED0D11D21F00701C1F570531344F1
:1044F0000A460E480260002141601344083B23F045
:1045000007030B48036059601960991A51601360E2
:10451000084B1960084B1960084B4FF000421A60B5
:1045200070474FF47053E4E718010020243D002049
:1045300014010020203D00201C3D0020183D0020DB
:1045400010B4134B1A6882421BD359685C1884421A
:1045500003D1406801445960184641684418A2429A
:1045600013D10C4C2468A2420DD052681144416012
:104570001A6812680260984200D018605DF8044B17
:1045800070471346DEE70460F5E70260F3E700BF1B
:10459000243D00201401002070B5044600F04EFCBC
:1045A0003A4B1B68BBB13A4B1B681C4263D1ACB1A0
:1045B000083414F0070F11D024F00704083404F075
:1045C00007035BB14FF0500383F31188BFF36F8F84
:1045D000BFF34F8FFEE7FFF781FFE4E7002C4CD0DD
:1045E0002C4B1B68A3424AD32B4B1D6801E02B4682
:1045F00015466A68A24202D22A68002AF7D1234AE5
:104600001268AA423DD01E6808362A681A606B6894
:104610001B1B102B10D9281910F0070F08D04FF0D2
:10462000500383F31188BFF36F8FBFF34F8FFEE703
:1046300043606C60FFF784FF6A6816490B689B1A39
:104640000B60164909688B4201D214490B60104B6C
:104650001B6813436B6000232B6000F083FC16F093
:10466000070F10D04FF0500383F31188BFF36F8F03
:10467000BFF34F8FFEE70026EFE70026EDE70026A9
:10468000EBE70026E9E7304670BD00BF14010020CB
:10469000183D00201C3D0020243D0020203D00202E
:1046A00080B338B50446A0F1080550F8042C16492B
:1046B00009680A4208D14FF0500383F31188BFF311
:1046C0006F8FBFF34F8FFEE750F8080C40B14FF0EB
:1046D000500383F31188BFF36F8FBFF34F8FFEE753
:1046E00022EA010244F8042C00F0A8FB54F8041C50
:1046F000064A13680B4413602846FFF721FF00F0B9
:1047000031FC38BD704700BF183D00201C3D002023
:104710000B4B1B68B3F1FF3F08D04FF0500383F3FE
:104720001188BFF36F8FBFF34F8FFEE74FF0500339
:1047300083F31188BFF36F8FBFF34F8FFEE700BF86
:104740001400002006480068006880F3088862B6FC
:1047500061B6BFF34F8FBFF36F8F00DF00BF000064
:1047600008ED00E0DFF80C00016841F47001016021
:104770007047000088ED00E04FF0807340F8043C83
:1047800021F0010140F8081C054B40F80C3C40F8B2
:10479000202C6FF0020340F8243C4438704700BFDF
:1047A00011470008000000000000000000000000A9
:1047B000074B19680868B0E8F04F80F30988BFF329
:1047C0006F8F4FF0000080F311887047AFF30080C7
:1047D000343D00204FF0500383F31188BFF36F8FF7
:1047E000BFF34F8F0A4A136801331360012B00D0C7
:1047F0007047084B1B6813F0FF0FF9D04FF05003C0
:1048000083F31188BFF36F8FBFF34F8FFEE700BFB5
:104810001400002004ED00E0094B1B6843B94FF081
:10482000500383F31188BFF36F8FBFF34F8FFEE701
:10483000013B034A13600BB983F31188704700BF33
:104840001400002000000000000000000000000034
:10485000EFF30980BFF36F8F154B1A681EF0100F2E
:1048600008BF20ED108A20E9F04F10604DF8043D9C
:104870004FF0500080F31188BFF34F8FBFF36F8F5D
:1048800000F052FC4FF0000080F3118808BC19685A
:104890000868B0E8F04F1EF0100F08BFB0EC108AA7
:1048A00080F30988BFF36F8F704700BFAFF30080BC
:1048B000343D002008B54FF0500383F31188BFF357
:1048C0006F8FBFF34F8F00F0C1FA18B1034B4FF059
:1048D00080521A60002383F3118808BD04ED00E0C4
:1048E000064B1B68064AA2FB03239B09013B054AB2
:1048F0001360054B07221A60704700BF0C000020B0
:10490000D34D621014E000E010E000E0314B1A6873
:10491000314B9A420DD02F4B1A68304B9A4211D12D
:104920004FF0500383F31188BFF36F8FBFF34F8FA6
:10493000FEE74FF0500383F31188BFF36F8FBFF38F
:104940004F8FFEE700B583B0254B1A78D2B20192A3
:10495000FF221A701B78DBB28DF803309DF803300C
:1049600003F050031F4A13701F4B07221A609DF873
:10497000033013F0800F0AD01B4A1368013B136009
:104980009DF803305B00DBB28DF80330EFE7164A89
:1049900013681B0203F4E0631360019BDBB2104A4F
:1049A0001370124B1A6842F470021A601A6842F0CF
:1049B00070421A60FFF794FF0D4B00221A60FFF758
:1049C000D1FE0C4A136843F040431360FFF7BAFE70
:1049D000FFF79EFE00ED00E071C20F4170C20F4173
:1049E00000E400E02C3D0020303D002020ED00E000
:1049F0001400002034EF00E0842801D00330704719
:104A00000020704708B500F0DBF9002008BDF0B5C4
:104A100085B00F46446805680669B0F90800FFF7DD
:104A2000EBFF03AB019300903B46B2B22946204610
:104A300000F094F9012802D1039805B0F0BD0020E0
:104A4000FBE708B5034600B90123184600F004FB54
:104A5000002008BD08B500F0B3FB012801D0FFF726
:104A600029FF08BD00F1080343604FF0FF32826068
:104A7000C360036100230360704700230361704734
:104A800043684B609A688A609A68516099600861CF
:104A9000036801330360704730B40D68B5F1FF3F20
:104AA00002D000F1080202E0026904E01A465368ED
:104AB0001C68AC42FAD953684B6099608A605160B7
:104AC000086103680133036030BC704703694268C2
:104AD000816891608268416851605A68824205D05D
:104AE00000220261186801381860704782685A60B5
:104AF000F6E70000084B1B681B683BB1064B1B68C0
:104B0000DB68DB685A68054B1A607047034B4FF04F
:104B1000FF321A60704700BF383D0020103E002071
:104B200010B50446006BFFF7BBFD2046FFF7B8FD4C
:104B300010BD2DE9F04780469946089D099F0A9CC3
:104B4000266B02F18042013A06EB820626F0070648
:104B500000230F2B07D8C856E21882F83400CA5633
:104B60000AB10133F5E7002384F84330062D00D95C
:104B70000625E56265644FF0000AC4F848A0201DD0
:104B8000FFF77BFF04F11800FFF777FF2461C5F101
:104B90000705A5616462C4F84CA084F850A04A4699
:104BA00041463046FFF7E8FD206007B13C60BDE8B4
:104BB000F087000038B5002407E004EB840293007E
:104BC0000E481844FFF74EFF0134062CF5D90C4D62
:104BD0002846FFF747FF0B4C2046FFF743FF0A48E4
:104BE000FFF740FF0948FFF73DFF0948FFF73AFF8D
:104BF000084B1D60084B1C6038BD00BF403D0020C5
:104C0000E43D0020F83D0020183E0020443E0020F6
:104C1000303E0020383D00203C3D002010B50446C9
:104C2000FFF7D8FD204A1368013313601F4B1B6840
:104C30005BB11F4B1B686BB91C4B1B68DA6AE36ADC
:104C40009A4207D8194B1C6004E0184B1C6013688B
:104C5000012B26D0174A136801331360E36A01223F
:104C60009A401549086802430A6003EB83039A00DF
:104C7000211D12481044FFF703FFFFF7CDFD0C4B39
:104C80001B686BB1094B1B68DA6AE36A9A4207D268
:104C90000B4B4FF080521A60BFF34F8FBFF36F8FF3
:104CA00010BDFFF787FFD5E7CC3D0020343D002045
:104CB0002C3E0020DC3D0020E03D0020403D002057
:104CC00004ED00E070B504460E461D4B1D681D4BFB
:104CD00018680430FFF7FAFE50B91A4B1B68DA6AFD
:104CE000012303FA02F218490B6823EA02030B605E
:104CF000B4F1FF3F13D02C44124B1B685C60A542FB
:104D000016D8124B18680F4B19680431FFF7C4FE10
:104D10000F4B1B68A34212D90D4B1C600FE0002EF5
:104D2000E9D0084B196804310A48FFF7A9FE06E0EC
:104D3000094B1868034B19680431FFF7ADFE70BDCD
:104D4000583E0020343D0020E03D0020383D00204A
:104D5000103E0020303E00203C3D00202DE9F04375
:104D600085B007468846154699469000FFF714FC23
:104D7000F8B106465420FFF70FFC0446A8B10663BD
:104D8000D4B10023039302940D9B01930C9B0093D9
:104D90004B462A4641463846FFF7CBFE2046FFF7F2
:104DA0003DFF012005B0BDE8F0833046FFF778FCF9
:104DB000E6E74FF0FF30F5E74FF0FF30F2E7000095
:104DC00000B583B0174B019300230093802216494E
:104DD0001648FFF7C3FF012805D0B0F1FF3F17D0F9
:104DE00003B05DF804FB4FF0500383F31188BFF369
:104DF0006F8FBFF34F8F0E4B4FF0FF321A600D4B8A
:104E000001221A600C4B00221A60FFF77FFDE7E7D2
:104E10004FF0500383F31188BFF36F8FBFF34F8FB1
:104E2000FEE700BF0C3E002060920108015100081F
:104E3000103E00202C3E0020583E0020024A1368FD
:104E400001331360704700BFD83D0020F8B53A4BDE
:104E50001B68002B64D1394B1D6801351D60C5B935
:104E6000374B1B681B6843B14FF0500383F3118825
:104E7000BFF36F8FBFF34F8FFEE7314A1168314B9D
:104E8000186810601960304A136801331360FFF727
:104E900031FE2E4B1B68AB4238D900242C4B1B68CB
:104EA000DB6A03EB83039A002A4B9B58012B3CD906
:104EB00001243AE00124224B1B681B6843B3204BBA
:104EC0001B68DB68DE6873689D4226D3371D384651
:104ED000FFF7FCFDB36A1BB106F11800FFF7F6FD02
:104EE000F36A01229A401C49086802430A6003EBF6
:104EF00083039A00394617481044FFF7C1FDF26A50
:104F0000134B1B68DB6A9A42D4D2D4E70024D2E761
:104F10000E4B4FF0FF321A60C0E70C4A1360BDE73A
:104F20000E4A13680133136000240D4B1B6803B154
:104F300001242046F8BD00BFD83D0020583E002087
:104F4000383D00203C3D0020143E0020103E002053
:104F5000343D0020403D0020E03D0020D43D0020B5
:104F60005C3E002038B5334B1B6843B94FF050030B
:104F700083F31188BFF36F8FBFF34F8FFEE7FFF707
:104F800029FC2C4B1A68013A1A601B68002B4DD182
:104F9000294B1B6823B90024FFF73EFC204638BD8F
:104FA0000024264B1B681BB3244BDB68DC6804F130
:104FB0001800FFF78BFD251D2846FFF787FDE36AE4
:104FC00001229A401E49086802430A6003EB8303EA
:104FD0009A0029461B481044FFF752FDE26A1A4B1B
:104FE0001B68DB6A9A42DCD3184B01221A60D8E7AF
:104FF0000CB1FFF77FFD164B1C6854B1FFF726FF7D
:1050000010B1124B01221A60013CF7D1104B002263
:105010001A600E4B1B685BB10E4B4FF080521A604A
:10502000BFF34F8FBFF36F8F0124B5E70024B3E7C1
:105030000024B1E7D83D0020CC3D0020183E0020E0
:10504000E03D0020403D0020343D00205C3E00203B
:10505000D43D002004ED00E010B5A8B104460F4B8C
:105060001B6843B14FF0500383F31188BFF36F8F78
:10507000BFF34F8FFEE7FFF7E1FE00212046FFF769
:1050800021FEFFF76FFF38B9054B4FF080521A60D1
:10509000BFF34F8FBFF36F8F10BD00BFD83D00200F
:1050A00004ED00E0134B1B6813B310B5FFF7C6FE09
:1050B000114B1C68FFF756FF24B90E4B1B68002BE1
:1050C000F4D110BDFFF786FB0B4BDB68DC68201DBD
:1050D000FFF7FCFC094A1368013B1360054A13689B
:1050E000013B1360FFF798FB2046FFF719FDE4E74B
:1050F000704700BFD03D0020443E0020CC3D002042
:1051000008B5FFF7CFFF064B1B68012BF9D9054BFC
:105110004FF080521A60BFF34F8FBFF36F8FF0E7ED
:10512000403D002004ED00E0204B1B681BB1204BEC
:1051300001221A6070471E4B00221A601D4B1B682B
:10514000B3FA83F3DBB2C3F11F0303EB83018A00DD
:1051500019498A5842B94FF0500383F31188BFF3BD
:105160006F8FBFF34F8FFEE710B413489A00D41827
:10517000A10001444C6864684C601A4491000831F5
:10518000084484420BD003EB83039A000A4B134478
:105190005B68DA68094B1A605DF8044B7047616818
:1051A0000548142202FB03025160ECE7D83D0020C1
:1051B0005C3E0020E03D0020403D0020343D0020CA
:1051C000054B1B6833B1054B1B680BB100207047C2
:1051D00002207047012070472C3E0020D83D00205F
:1051E0000028B8BF40427047014B1868704700BFA5
:1051F0001800002010B5431E0A44914200D110BD92
:1052000011F8014B03F8014FF7E730B5141E0546BE
:105210009BB0184605DA8B232B604FF0FF301BB094
:1052200030BD4FF40273ADF80C3014BF04F1FF33FE
:105230002346029305934FF6FF7300910491ADF856
:105240000E3002461E9B6946284600F073F8431C48
:10525000BCBF8B232B60002CE1D0009B00221A7076
:10526000DDE7000007B5009313460A4601460348F0
:105270000068FFF7CAFF03B05DF804FB18000020C8
:105280002DE9F0478E689E4282460C46904699462C
:1052900037D88A8912F4906F31D0256809696F1A5E
:1052A0006569022305EB450595FBF3F509F101035B
:1052B0003B449D4238BF1D46530530D5294600F07A
:1052C0006FFB064650B90C23CAF80030A38943F09F
:1052D0004003A3814FF0FF30BDE8F0873A462169D3
:1052E000FFF788FFA38923F4906343F08003A38131
:1052F000266165613E44ED1B2660A5604E464E4525
:1053000000D94E4632464146206800F0E1FAA368D3
:105310009B1BA36023681E4426600020DCE72A460E
:1053200000F098FB06460028E2D12169504600F0C3
:10533000E9FAC8E72DE9F04F9DB0804603938B89C9
:105340001D060C4616460FD50B696BB9402100F0BF
:1053500027FB2060206128B90C23C8F800304FF0EB
:10536000FF30C7E0402363610023099320238DF8B9
:10537000293030238DF82A304FF0010B37463D4657
:1053800015F8013B0BB1252B3ED1B7EB060A0BD02C
:105390005346324621464046FFF772FF013000F087
:1053A000A480099B534409933B78002B00F09D8017
:1053B00000234FF0FF32CDE90523049307938DF8C6
:1053C00053301A932F46052217F8011B4F4800F05F
:1053D0002FFA049BD0B9D90644BF20228DF8532060
:1053E0001A0744BF2B228DF853202A782A2A15D079
:1053F000079A2F4600200A25394611F8013B303B19
:10540000092B4DD9B8B10FE02F46B8E73F4A801AB3
:105410000BFA00F0184304903D46D3E7039A111DA0
:1054200012680391002A01DB079204E0524243F024
:105430000203079204933B782E2B0CD17B782A2B06
:1054400033D1039B1A1D1B680392002BB8BF4FF08A
:10545000FF33023705932E4D39780322284600F09A
:10546000E7F938B14023401B03FA00F0049B0343E3
:1054700001370493397827488DF8281006227E1CBE
:1054800000F0D6F9002838D0234B13BB039B073319
:1054900023F0070308330393099B4B4409936DE7FB
:1054A00005FB023201200F46A6E7002301370593D2
:1054B00019460A25384610F8012B303A092A03D933
:1054C000002BC8D00591C6E705FB01210123074643
:1054D000F0E703AB00932246104B04A94046AFF31C
:1054E0000080B0F1FF3F8146D6D1A3895B063FF52E
:1054F00036AF09981DB0BDE8F08F03AB009322468C
:10550000064B04A9404600F081F8EAE768920108DA
:105510006E9201087292010800000000815200089A
:105520002DE9F04791461F468A680B69DDF8208017
:105530009342B8BF1346C9F8003091F8432006469D
:105540000C4612B10133C9F800302368990642BFF6
:10555000D9F800300233C9F80030256815F0060587
:1055600007D104F1190AE368D9F800209B1AAB426D
:1055700028DC94F843302268003318BF01239206D8
:105580002DD404F1430239463046C047013020D0C3
:105590002368E568D9F8002003F00603042B08BF50
:1055A000AD1AA36822690CBF25EAE5750025934270
:1055B000C4BF9B1AED184FF000091A344D451AD19B
:1055C000002008E00123524639463046C0470130EA
:1055D00003D14FF0FF30BDE8F0870135C3E7E11894
:1055E0005A1C302081F84300224494F8451082F878
:1055F00043100233C5E70123224639463046C047EF
:105600000130E6D009F10109D8E700002DE9F043A7
:1056100001F1430C0C46097E85B06E2917460646FB
:1056200098460C9A00F0B38022D8632936D00AD865
:10563000002900F0B980582900F0838004F1420568
:1056400084F8421032E0642901D06929F6D120683B
:105650001368050603F104012AD51B681160002BAD
:1056600003DA2D225B4284F843206F480A2239E096
:10567000732900F09D8008D86F2920D07029DDD1D2
:10568000236843F02003236003E0752917D07829AD
:10569000D4D1782384F84530644855E01368191D47
:1056A0001B68116004F1420584F8423001238CE04C
:1056B0001B68116010F0400F18BF1BB2CFE71368D2
:1056C0002568181D1060280601D51B6802E06806D1
:1056D000FBD51B8854486F2914BF0A2208220021D9
:1056E00084F843106568A560002DC0F2958021689C
:1056F00021F004012160002B3DD1002D40F08E806F
:105700006546082A0BD12368DB0708D52369626840
:105710009A42DEBF302305F8013C05F1FF35ACEBC2
:1057200005032361CDF800803B4603AA214630469D
:10573000FFF7F6FE01304DD14FF0FF3005B0BDE868
:10574000F083394884F84510136821681D1D1B68D3
:1057500015600A060BD5CA0744BF41F0200121603D
:105760001BB9226822F0200222601022B7E74D0602
:1057700048BF9BB2EFE76546B3FBF2F102FB113382
:10578000C35C05F8013D0B460029F5D1B9E7136864
:1057900025686169181D106028061B6801D519600D
:1057A00002E06A06FBD51980002323616546B9E74C
:1057B0001368191D11601D6862680021284600F0F9
:1057C00037F808B1401B606063682361002384F8E8
:1057D0004330A7E723692A4639463046C04701309F
:1057E000AAD023689B0713D4E068039B9842B8BFF4
:1057F0001846A3E701234A4639463046C0470130E0
:105800009AD00135E368039A9B1AAB42F2DCEBE7CE
:10581000002504F11909F5E7002BACD1037884F8D1
:10582000423004F142056CE7799201088A9201083E
:1058300001F0FF01102A2BDB10F0070F08D010F841
:10584000013B013A8B422DD010F0070F42B3F6D145
:10585000F0B441EA012141EA014122F007047FF05E
:1058600000070023F0E80256083C85EA010586EAB5
:10587000010685FA47F5A3FA87F586FA47F6A5FAF1
:1058800087F68EB9EED1F0BC01F0FF0102F00702FD
:1058900032B110F8013B013A83EA010313B1F8D1A8
:1058A0000020704701387047002D06BF3546033889
:1058B000073815F0010F07D1013015F4807F02BFC2
:1058C000013015F4C03F0130F0BC0138704700BF13
:1058D000884210B501EB020307D8421E99420AD054
:1058E00011F8014B02F8014FF8E78342F5D981180E
:1058F000D21AD34200D110BD13F8014D01F8014D69
:10590000F7E7000038B50546002945D051F8043CBA
:105910000C1F002BB8BFE41800F0D2F81F4A136820
:10592000104633B9636014602846BDE8384000F083
:10593000C8B8A3420CD921686218934204BF1A6800
:105940005B68636004BF521822600460ECE7134692
:105950005A680AB1A242FAD919685818A0420BD164
:1059600020680144581882421960DDD110685268DD
:105970005A6001441960D7E702D90C232B60D3E7A2
:10598000206821188A4204BF11685268626004BF0F
:10599000091821605C60C7E738BD00BF603E002089
:1059A00070B5CD1C25F0030508350C2D38BF0C252E
:1059B000002D064601DBA94203D90C2333600020E9
:1059C00070BD00F07DF8214A1468214691B9204C41
:1059D00023681BB9304600F063F820602946304642
:1059E00000F05EF8431C24D10C233360304600F0F5
:1059F00068F8E4E70B685B1B18D40B2B0FD90B601E
:105A0000CD50CC18304600F05CF804F10B00231D9B
:105A100020F00700C31AD3D05A42E250D0E78C429C
:105A20004B6816BF636013600C46EBE70C46496891
:105A3000CCE7C41C24F00304A04205D0211A304650
:105A400000F02EF80130CFD02560DBE7603E00206B
:105A5000643E0020F8B5074614460E4621B91146AB
:105A6000BDE8F840FFF79CBF22B9FFF74BFF254682
:105A70002846F8BD00F026F8A0420FD2214638464D
:105A8000FFF78EFF05460028F2D031462246FFF789
:105A9000B1FB31463846FFF735FFE9E73546E7E722
:105AA00038B5064C0023054608462360FCF7CEFEB9
:105AB000431C02D1236803B12B6038BD6C3E00202B
:105AC0007047704751F8043C181F002BBCBF0B589F
:105AD000C01870472E2E2F73797374656D2F7372F3
