:020000040800F2
:1000000000000120C50200087D3000087F30000894
:1000100081300008833000088530000800000000AF
:100020000000000000000000000000009133000804
:1000300087300008000000003134000889300008D3
:10004000412B0008412B0008412B0008412B0008E0
:10005000412B0008412B0008412B0008412B0008D0
:10006000412B0008412B0008412B0008412B0008C0
:10007000412B0008412B0008412B0008412B0008B0
:10008000412B0008412B0008412B00080000000014
:10009000000000000000000000000000412B0008EC
:1000A000412B000891300008412B0008412B00082B
:1000B000A1300008412B0008412B0008412B00080B
:1000C000412B0008412B0008412B0008412B000860
:1000D000412B0008412B0008412B000800000000C4
:1000E000412B0008412B0008412B000800000000B4
:1000F000000000000000000000000000412B00088C
:1001000000000000412B0008412B0008412B000893
:1001100000000000000000000000000000000000DF
:10012000B1300008412B0008412B0008412B00088A
:10013000412B00080000000000000000000000004B
:10014000000000000000000000000000412B00083B
:10015000412B0008412B0008412B0008412B0008CF
:10016000412B0008412B00080000000000000000A7
:10017000000000000000000000000000000000007F
:1001800000000000412B00080000000000000000FB
:10019000412B000800B583B002F032FC384B394ADD
:1001A0001360394A1360394900E02146384B9942BF
:1001B0000BD20A684B6801F10C0488689842F4D9A4
:1001C0001168196004330432F8E72E4B1A68314B7A
:1001D0009A4200D0FEE72C4B1A682F4B9A42F9D175
:1001E000274B2E4A13602E4A13602E4B05E0002049
:1001F000106004329342FAD80B462B4A934204D241
:10020000194651F8082B5B68F4E7244B1B6813B9B7
:10021000234B1B6803B1FEE702F004FC694601A80A
:1002200002F09AFB214C224BE41AA4100025AC42A8
:1002300014DC204C204BE41AA4100025AC4213DC43
:100240000099019802F024FE05461C4C1C4BE41A50
:10025000A410002C0EDC284602F05AFB144B53F875
:10026000253098470135E2E7134B53F8253098477E
:100270000135E3E7013C124B53F824309847E8E797
:10028000BABADECA0000002078000020F00300089F
:100290000804000878563412325476987C00002006
:1002A000883F00200804000818040008180400080B
:1002B00018040008180400081804000818040008AE
:1002C0001804000808B5FFF765FF00BEFEE71EF042
:1002D000040F0CBFEFF30880EFF309807146414A29
:1002E00010472DE9F04182B004468846124B5E6B00
:1002F0009F6B9D6A1B6B13F0020F03D00E4BDB6AE2
:10030000002B0CDB0D4802F02FFBCDF800803B46A4
:1003100032462946204602F089FB00BEFEE74BF636
:10032000AB6102F0FDFB0028ECD0034B4FF0004224
:10033000DA6202B0BDE8F08100ED00E0404900085B
:1003400000BEFEE71EF0040F0CBFEFF30880EFF3D2
:1003500009807146244A10472DE9F04182B00446D5
:100360008846084B5E6B9F6B9D6A074802F0FCFA5B
:10037000CDF800803B4632462946204602F056FB27
:1003800000BEFEE700ED00E0504900081EF0040F3B
:100390000CBFEFF30880EFF309807146134A104752
:1003A0002DE9F04182B004468846084B5E6B9F6B96
:1003B0009D6A074802F0D8FACDF800803B463246E5
:1003C0002946204602F032FB00BEFEE700ED00E0C9
:1003D0005C49000800BEFEE700BEFEE700BEFEE787
:1003E00070470000E302000859030008A103000859
:1003F000044A0008000000207C000020044A000895
:1004000000000010000000107C0000208C3F002045
:080410000000001000000010C4
:1004200008B50B4B1A6842F400721A601A6842F45D
:1004300080621A601A6842F480721A60032000F029
:1004400097FA002002F0DEFD02F045FD002008BD15
:10045000003C0240024A136801331360704700BF3A
:100460005C3E0020014B1868704700BF5C3E0020D6
:1004700010B50446514B5A6822F440325A605A680B
:1004800041680A435A600268536823F480735360DA
:1004900002685368016943EA0123536002685368A4
:1004A00023F0407353600268536881680B435360C4
:1004B0000268936823F40063936002689368C168DC
:1004C0000B439360826A3E4B9A425FD00268936806
:1004D00023F07063936002689368816A0B439360B2
:1004E0000268936823F04053936002689368C16A7E
:1004F0000B4393602268936823F0020393602268A1
:100500009368A16943EA41039360236A002B4ED0AC
:10051000636A013B072B44D82268536843F40063A5
:1005200053602268536823F460435360636A013B5D
:100530004FF4604292FAA2F2B2FA82F2934021683A
:100540004A6813434B602268D36A23F47003D36272
:100550002168CB6AE269013A43EA0253CB6222681E
:10056000936823F40073936022689368216B43EAD5
:10057000412393602268936823F480639360226828
:100580009368616943EA8123936010BD02689368B0
:1005900023F0706393600268936823F04053936084
:1005A000A8E740F20A61074802F094FCB4E7226829
:1005B000536823F400635360C5E700BF0023014084
:1005C0000100000FB4460008002800F0E38010B5D9
:1005D00004460268704B9A4204D040F20D116F48F5
:1005E00002F078FC636843B1B3F5803F05D0B3F502
:1005F000003F02D0B3F5403F6FD1A36843B1B3F1E0
:10060000807F05D0B3F1007F02D0B3F1407F6AD183
:100610002369012B6DD8A369012B70D8A36A7BB322
:10062000B3F1807F2CD0B3F1007F29D0B3F1407FAC
:1006300026D0B3F1806F23D0B3F1A06F20D0B3F1F7
:10064000C06F1DD0B3F1E06F1AD0B3F1006F17D0B7
:10065000B3F1106F14D0B3F1206F11D0B3F1306F3C
:100660000ED0B3F1406F0BD0B3F1506F08D0B3F19F
:10067000606F05D0B3F1706F02D0494A934244D104
:10068000E36813B1B3F5006F45D1E369013B0F2B6C
:1006900047D8236B012B4AD86369022B4DD8236AB4
:1006A000012B50D8A26A3E4B9A420AD0E36A43B16A
:1006B000B3F1805F05D0B3F1005F02D0B3F1405FCA
:1006C00047D1236C002B4AD0236C13F0100F4DD070
:1006D0000120002384F83C3010BD4FF487712F486F
:1006E00002F0F8FB89E740F20F112C4802F0F2FB10
:1006F0008EE74FF48871294802F0ECFB8BE740F25B
:100700001111264802F0E6FB88E74FF4897123486F
:1007100002F0E0FBB4E740F21311204802F0DAFBEC
:10072000B3E74FF48A711D4802F0D4FBB1E740F201
:1007300015111A4802F0CEFBAEE74FF48B71174843
:1007400002F0C8FBABE740F21711144802F0C2FBFD
:10075000A8E740F21B11114802F0BCFBB1E763644B
:1007600084F83C30204602F0E5FBADE7236C23F42F
:10077000885323F0020343F0020323642046FFF76B
:1007800077FE00206064236C23F0030343F0010331
:1007900023649EE70120704700200140B446000812
:1007A0000100000F30B583B005460C4600230193CD
:1007B0000B68122B4ED86368013B0F2B50D8A368EF
:1007C000072B53D895F83C30012B00F0C78001234C
:1007D00085F83C302368092B4ED92868C2689BB243
:1007E00003EB43031E3B072101FA03F322EA030351
:1007F000C3602868C268A168238803EB43031E3BDB
:1008000001FA03F31343C3606368062B4AD82868D0
:10081000426B03EB8303053B1F2101FA03F322EA3A
:10082000030343632868426B636803EB8303053B60
:10083000218801FA03F3134343632A68484B9A4221
:1008400060D02A68464B9A4265D0002085F83C006B
:1008500003B030BD40F20451424802F03BFBAAE72E
:1008600040F205513F4802F035FBA8E740F206513F
:100870003C4802F02FFBA5E7286802699BB203EB16
:100880004303072101FA03F322EA03030361286803
:100890000269A168238803EB430301FA03F31343BE
:1008A0000361B1E70C2B16D82868026B03EB8303B6
:1008B000233B1F2101FA03F322EA030303632868A1
:1008C000026B636803EB8303233B218801FA03F384
:1008D00013430363B1E72868C26A03EB8303413B18
:1008E0001F2101FA03F322EA0303C3622868C26AE4
:1008F000636803EB8303413B218801FA03F313434D
:10090000C3629AE72368122B9BD1174A536843F4BA
:100910008003536095E72368103B012B95D8124A5A
:10092000536843F4000353602368102B8DD10F4BA1
:100930001B6802F1467202F52E3202F28332A2FBEC
:1009400003239B0C03EB83035A00019202E0019BFB
:10095000013B0193019B002BF9D176E7022077E759
:1009600000200140B4460008002301400C00002094
:1009700010B50446C31E042B0FD80A4AD36823F4CB
:10098000E0631B041B0C240204F4E064234343F0E3
:10099000BF6343F40033D36010BDA421024802F0CA
:1009A00099FAEAE700ED00E0E446000870B5054674
:1009B0000C4616460F2A25D80F2C28D81B4BDB686F
:1009C000C3F30223C3F10702042A28BF0422191D1E
:1009D000062921D9033B4FF0FF3101FA02F224EA44
:1009E00002049C4001FA03F326EA03063443002D77
:1009F00014DB2401E4B205F1604505F5614585F895
:100A0000004370BDBC210A4802F064FAD4E7BD215E
:100A1000074802F05FFAD1E70023DCE705F00F0595
:100A20002401E4B2034B5C55EBE700BF00ED00E0AE
:100A3000E446000814ED00E010B5041E08DB04F0E5
:100A40001F02640901239340044A42F8243010BD78
:100A5000D021034802F03EFAF1E700BF00E100E0D8
:100A6000E44600080138B0F1807F0AD2064B586096
:100A7000064AF02182F823100020986007221A60AD
:100A800070470120704700BF10E000E000ED00E07B
:100A900010B50446042800D038B9042C0BD0094AFC
:100AA000136823F00403136010BD40F2B31106482D
:100AB00002F010FAF1E7034A136843F004031360ED
:100AC000F2E700BF10E000E0E44600080268D3B29D
:100AD000103B0B49A1FB03131B090A49C95CC16503
:100AE000032B06D822F47F7222F003028265806D08
:100AF000704722F47F7222F0030204328265F6E727
:100B0000ABAAAAAA48470008836A8269C2B9012B26
:100B10000AD01BB1022B0DD000207047C36A13F01E
:100B2000807F32D100207047C36AB3F1C07F2ED0DE
:100B300000207047C36A13F0807F2AD100207047DD
:100B4000B2F5005F05D0022B2BD9032B15D0002066
:100B50007047032B03D8DFE803F01E041E0A0020B1
:100B60007047C36A13F0807F17D100207047C36AB3
:100B7000B3F1C07F13D000207047C36A13F0807FA9
:100B800001D00120704700207047012070470120EC
:100B900070470120704701207047012070470120F5
:100BA000704701207047000070B50446FFF75AFCFB
:100BB000002C00F03681054623689B4A934231D0D1
:100BC000183293422ED0183293422BD018329342CF
:100BD00028D01832934225D01832934222D01832AE
:100BE00093421FD0183293421CD002F556729342A2
:100BF00018D01832934215D01832934212D01832BE
:100C000093420FD0183293420CD01832934209D03D
:100C10001832934206D01832934203D0C921834838
:100C200002F058F96368A3B1B3F1007F11D0B3F1BA
:100C3000806F0ED0B3F1C06F0BD0B3F1006F08D04E
:100C4000B3F1206F05D0B3F1406F02D0B3F1606F04
:100C50006DD1A3681BB1402B01D0802B6CD1E36810
:100C6000B3F5007F01D0002B6BD12369B3F5806F02
:100C700001D0002B6AD163692BB1B3F5006F02D0AC
:100C8000B3F5805F67D1A3692BB1B3F5005F02D0E4
:100C9000B3F5804F64D1E36923B1B3F5807F01D010
:100CA000202B62D1236A43B1B3F5803F05D0B3F561
:100CB000003F02D0B3F5403F5CD1636A0BB1042B17
:100CC0005DD1636AC3B1A36A032B5DD8E36A43B104
:100CD000B3F5000F05D0B3F1807F02D0B3F1C07F30
:100CE00057D1236B43B1B3F5001F05D0B3F5800F87
:100CF00002D0B3F5C00F51D1002384F83430022361
:100D000084F835302268136823F0010313602368E8
:100D10001A6812F0010F46D0FFF7A4FB401B05280C
:100D2000F5D920236365032084F8350070BDCA21FE
:100D30003E4802F0CFF88CE7CB213C4802F0CAF8DD
:100D40008DE7CC21394802F0C5F88EE7CD21374830
:100D500002F0C0F88FE7CE21344802F0BBF892E7EA
:100D6000CF21324802F0B6F895E7D0212F4802F0A3
:100D7000B1F897E7D1212D4802F0ACF89DE7D221D8
:100D80002A4802F0A7F89CE7D721284802F0A2F8E9
:100D90009CE7D821254802F09DF8A2E7D9212348F5
:100DA00002F098F8A8E71A68214810406168A26824
:100DB0000A43E1680A4321690A4361690A43A16958
:100DC0000A43E1690A43216A0A430243616A04292A
:100DD0001CD01A602668756925F00705636A1D43F3
:100DE000042B05D1A36A1D432046FFF78DFE90B961
:100DF00075612046FFF76AFEE26D3F2393408360F2
:100E000000206065012384F835308FE7E16A206BAC
:100E100001430A43DDE740236365012084F8350080
:100E200084E7012082E700BF1060024018470008F5
:100E30003F8010F0F0B583B0044600230193724B5D
:100E40001D68724BA3FB0535AD0A876D3E68C26D08
:100E500008239340334210D003681A6812F0040F3D
:100E60000BD01A6822F004021A60C26D0823934066
:100E7000BB60436D43F001034365E26D644B9340F7
:100E8000334209D02268526912F0800F04D0BB604F
:100E9000636D43F002036365E26D5E4B9340334242
:100EA00009D02268126812F0020F04D0BB60636D93
:100EB00043F004036365E26D10239340334224D072
:100EC0002268126812F0080F1FD0BB6023681A68EE
:100ED00012F4802F0DD01B6813F4002F04D1236C63
:100EE0009BB12046984710E0A36C73B12046984709
:100EF0000BE01A6812F4807F03D11A6822F008020E
:100F00001A60236C0BB120469847E26D2023934072
:100F1000334255D02268126812F0100F50D0BB60D7
:100F200094F83530DBB2052B0ED023681A6812F422
:100F3000802F33D01B6813F4002F2AD1636C002B51
:100F40003ED0204698473BE02268136823F0160302
:100F500013602268536923F080035361236CA3B1AB
:100F60002268136823F008031360E26D3F23934067
:100F7000BB60002384F83430012384F83530236DBE
:100F8000002B3FD0204698473CE0A36C002BE7D1D4
:100F9000EBE7E36BA3B12046984711E01A6812F41F
:100FA000807F09D11A6822F010021A60002384F8A9
:100FB0003430012384F83530E36B0BB12046984779
:100FC000636DFBB1636D13F0010F17D0052384F837
:100FD00035302268136823F001031360019B01334D
:100FE0000193AB4204D823681B6813F0010FF5D1BD
:100FF000002384F83430012384F83530E36C0BB1DE
:101000002046984703B0F0BD0C000020B5814E1B70
:1010100001008000040080002DE9F04782B0804686
:101020000E46A24B984217D003F58063984213D026
:1010300003F5806398420FD003F5806398420BD08C
:1010400003F58063984207D003F54063984203D0CC
:10105000C521974801F03EFF338833B37368012BF5
:101060001ED9112B1CD0022B1AD0122B18D0914A4A
:10107000934215D002F58012934211D002F58012EE
:1010800093420DD0A2F5F812934209D002F58012D6
:10109000934205D002F58012934201D0032B09D16F
:1010A000B368022B0BD800244AE0C621804801F027
:1010B00011FFD3E7C7217E4801F00CFFF0E7C821FC
:1010C0007B4801F007FFEEE7EC21794801F002FFD1
:1010D00090E0042300E000238B4003430232764972
:1010E00041F82230754B1A68FB4303EA020170682D
:1010F00010F4803F01D047EA0201704A1160526843
:1011000003EA0201706810F4003F01D047EA0201CF
:101110006A4A5160926803EA0201706810F4801F05
:1011200001D047EA0201654A9160D26813407168B4
:1011300011F4001F01D047EA0203604AD360013472
:101140000F2C00F2B0800125A54037682F40BD422A
:10115000F5D17368022B01D0122B2BD13369CBB19F
:10116000092B17D0012B15D0022B13D0042B11D033
:10117000052B0FD0062B0DD0072B0BD0082B09D039
:101180000A2B07D00C2B05D00F2B03D0D9214848B0
:1011900001F0A0FEE208083258F8220004F007032C
:1011A00099000F238B4020EA030033698B400343EF
:1011B00048F82230D8F800204FEA440A4FF00309DB
:1011C00009FA0AF96FEA090909EA0202736803F0E9
:1011D000030303FA0AF31343C8F8003073685A1E76
:1011E000012A03D9112B01D0122B18D1F368032B3C
:1011F0003FF66AAFD8F8082009EA0202F36803FA5A
:101200000AF31343C8F80830D8F8042022EA05028C
:101210007368C3F30015A5401543C8F80450D8F807
:101220000C3009EA0309B36803FA0AF343EA090335
:10123000C8F80C30736813F0805F80D000230193EE
:101240001F4B5A6C42F480425A645B6C03F4804337
:101250000193019BA208911C174B53F8210004F045
:10126000030399000F238B4020EA03000F4B98459E
:101270003FF431AF03F5806398450ED003F58063EA
:1012800098450CD003F5806398450AD003F5806338
:1012900098453FF41EAF05231EE701231CE70223F8
:1012A0001AE7032318E702B0BDE8F0870000024008
:1012B000504700080000111000380140003C014078
:1012C0000038024030B583B0044603680F2B29D89C
:1012D000236813F0010F3DD06368012B01D9052B62
:1012E00025D1A34B9B6803F00C03042B29D0A04B02
:1012F0009B6803F00C03082B1ED022799D4B1A70BB
:101300006368002B50D0FFF7ADF80546984B1B687B
:1013100013F4003F1ED1FFF7A5F8401B6428F5D950
:101320000320E3E1F521944801F0D4FDD0E7FA2150
:10133000914801F0CFFDD4E78D4B5B6813F4800F2B
:10134000DBD08B4B1B6813F4003F03D06368002B8A
:1013500000F0C981236813F0020F5DD0E368012B10
:1013600031D823691F2B34D8814B9B6813F00C0FA5
:101370003AD07F4B9B6803F00C03082B2FD0E36817
:10138000002B74D07D4B01221A60FFF76BF80546E5
:10139000774B1B6813F0020F5AD1FFF763F8401B1D
:1013A0000228F5D90320A1E1FFF75CF80546704B50
:1013B0001B6813F4003FCDD0FFF754F8401B64289E
:1013C000F5D9032092E14FF496716B4801F082FD4C
:1013D000C7E740F22D11684801F07CFDC4E7644B7B
:1013E0005B6813F4800FCAD1614B1B6813F0020FC6
:1013F00004D0E368012B01D0012077E15C48036849
:1014000023F0F8032169F82292FAA2F2B2FA82F2EA
:1014100001FA02F213430360236813F0080F50D05F
:101420006369012B35D86369002B38D0544B0122F6
:101430001A60FFF717F805464D4B5B6F13F0020F6C
:101440003FD1FFF70FF8401B0228F5D903204DE1EB
:101450004748036823F0F8032169F82292FAA2F2C0
:10146000B2FA82F201FA02F213430360D4E7434B6B
:1014700000221A60FEF7F6FF05463D4B1B6813F08D
:10148000020FC9D0FEF7EEFF401B0228F5D903205A
:101490002CE140F26D11384801F01CFDC3E7384BD8
:1014A00000221A60FEF7DEFF0546314B5B6F13F03A
:1014B000020F06D0FEF7D6FF401B0228F5D9032005
:1014C00014E1236813F0040F60D0A368012B01D945
:1014D000052B1FD100230193254B1A6C42F080523B
:1014E0001A641B6C03F080530193019B254A136817
:1014F00043F480731360FEF7B5FF0546214B1B686C
:1015000013F4807F0CD1FEF7ADFF401B0228F5D904
:101510000320EBE040F29711174801F0DBFCD9E71C
:10152000227A194B1A70A36883B1FEF79BFF054618
:101530000F4B1B6F13F0020F28D1FEF793FF401BD8
:1015400041F288339842F3D90320CFE0FEF78AFFB7
:101550000546074B1B6F13F0020F17D0FEF782FFF3
:10156000401B41F288339842F3D90320BEE000BF0C
:10157000003802400238024090470008000047420D
:10158000800E47420070004070380240A369022B71
:1015900039D8A369002B00F0A880564A926802F05F
:1015A0000C02082A00F0A480022B40F08880E36936
:1015B00013B1B3F5800F2CD1236A3F2B2FD8636A68
:1015C000323BB3F5BF7F30D8A36A022B05D0042B82
:1015D00003D0062B01D0082B2DD1E36A043B0B2B43
:1015E0002FD8454B00221A60FEF73CFF0546414BC1
:1015F0001B6813F0007F2AD0FEF734FF401B02283F
:10160000F5D9032072E04FF4E6713C4801F062FC2A
:10161000BFE740F2D511394801F05CFCCCE74FF44C
:10162000EB71364801F056FCC9E740F2D711334858
:1016300001F050FCC8E74FF4EC71304801F04AFC6F
:10164000CBE740F2D9112D4801F044FCC9E7E3692A
:10165000226A1343616A47F6C07292FAA2F2B2FAA2
:1016600082F201FA02F21343A26A5208013A4FF4DD
:10167000403191FAA1F1B1FA81F18A401343E16A54
:101680004FF0706292FAA2F2B2FA82F201FA02F21A
:101690001343184A5360184B01221A60FEF7E2FE0A
:1016A0000446144B1B6813F0007F06D1FEF7DAFEE8
:1016B000001B0228F5D9032018E0002016E00E4B8D
:1016C00000221A60FEF7CEFE04460A4B1B6813F098
:1016D000007F06D0FEF7C6FE001B0228F5D90320C6
:1016E00004E0002002E0012000E0002003B030BD53
:1016F0000120FBE7003802406000474290470008A5
:10170000214B9B6803F00C03042B3AD0082B01D02B
:101710001E4870471C4B586800F03F005B6813F48C
:10172000800F1ED01A4AB2FBF0F2174B586847F6EA
:10173000C073184093FAA3F3B3FA83F3D84000FBC5
:1017400002F0114B5B6803F440334FF4403292FADD
:10175000A2F2B2FA82F2D34001335B00B0FBF3F0A5
:1017600070470A4AB2FBF0F2074B586847F6C0735D
:10177000184093FAA3F3B3FA83F3D84000FB02F0C6
:10178000DFE70348704700BF003802400024F40040
:1017900000BD010570B504460D460368013B0E2BE4
:1017A00011D8072D15D88C4B1B6803F00F03AB42E3
:1017B00015D2EBB2884A1370136803F00F03AB42E3
:1017C0000DD0012070BD40F23721844801F082FB2A
:1017D000E7E74FF40E71814801F07CFBE3E72368F3
:1017E00013F0020F18D0A3687BB1802B0DD0902B83
:1017F0000BD0A02B09D0B02B07D0C02B05D0D02BFD
:1018000003D0E02B01D0F02B37D1754A936823F039
:10181000F003A1680B439360236813F0010F73D0AA
:101820006368032B2FD86368012B32D09A1E012ADC
:1018300036D96B4A126812F0020F00F0CA8068496C
:101840008A6822F0030213438B60FEF70BFE064604
:101850006368012B2BD0022B38D0032B45D0604B73
:101860009B6813F00C0F4FD0FEF7FCFD801B41F27C
:1018700088339842F3D90320A4E740F24F21574818
:1018800001F028FBC1E740F25621544801F022FB49
:10189000C9E7534A126812F4003FD0D1012091E702
:1018A0004F4A126812F0007FC9D101208AE74C4BE1
:1018B0009B6803F00C03042B26D0FEF7D3FD801B9E
:1018C00041F288339842F2D903207BE7444B9B686E
:1018D00003F00C03082B17D0FEF7C4FD801B41F268
:1018E00088339842F2D903206CE73D4B9B6803F0A4
:1018F0000C030C2B08D0FEF7B5FD801B41F288339A
:101900009842F2D903205DE7334B1B6803F00F03C5
:10191000AB4209D9EAB2304B1A701B6803F00F03CF
:10192000AB4201D001204DE7236813F0040F14D01F
:10193000E3685BB1B3F5805F08D0B3F5A05F05D075
:10194000B3F5C05F02D0B3F5E05F36D1244A9368A7
:1019500023F4E053E1680B439360236813F0080F0E
:1019600015D023695BB1B3F5805F08D0B3F5A05FF4
:1019700005D0B3F5C05F02D0B3F5E05F23D1184ABC
:10198000936823F46043216943EAC1039360FFF73E
:10199000B7FE134B9B6803F0F003F02292FAA2F219
:1019A000B2FA82F2D3400F4AD35CD8400E4B186093
:1019B000002001F027FB002004E74FF42D710748B9
:1019C00001F088FAC2E740F2BB21044801F082FA34
:1019D000D5E70120F6E600BF003C02409047000832
:1019E00000380240804700080C000020014B1868B6
:1019F000704700BF0C00002008B5FFF7F7FF074B4A
:101A00009B6803F460434FF4604292FAA2F2B2FA88
:101A100082F2D340024AD35CD84008BD003802406D
:101A2000804700080F2303600B4B9A6802F0030203
:101A300042609A6802F0F00282609A6802F4E05212
:101A4000C2609B68DB0803F4E0530361034B1B682F
:101A500003F00F030B60704700380240003C024067
:101A600010B4036A046A24F001040462846924F057
:101A7000F00444EA021223F00A030B43826103627A
:101A80005DF8044B704710B4036A23F0100303623F
:101A90008469036A24F4704444EA023223F0A00308
:101AA00043EA0113826103625DF8044B7047836867
:101AB00023F0700341F0070119438160704710B4AF
:101AC000846824F47F4442EA03230B432343836066
:101AD0005DF8044B7047000038B505460C460168B8
:101AE0008A6822F070026368134323F007032268B8
:101AF00013438B606368302B00F07E813ED9502BFE
:101B000000F0B3805FD9602B00F0F180702B34D1EE
:101B10000368B74A934213D0B3F1804F10D0A2F5B7
:101B20007C4293420CD002F58062934208D002F5C9
:101B30008062934204D041F28A31AE4801F0CAF982
:101B4000E36843B1B3F5805F05D0B3F5005F02D021
:101B5000B3F5405F71D1A368B3F5004F04D01BB15A
:101B6000022B01D00A2B6ED123690F2B71D8236968
:101B7000A268E1682868FFF7A2FF38BD102B00F0CB
:101B8000F080202B00F01081002BF6D10368984ADA
:101B90009342F2D0B3F1804FEFD0A2F57C42934252
:101BA000EBD002F580629342E7D002F58062934267
:101BB000E3D002F59A329342DFD041F2CB318D4827
:101BC00001F088F9D9E7402BD7D10368884A9342BE
:101BD0001FD0B3F1804F1CD0A2F57C42934218D0A5
:101BE00002F58062934214D002F58062934210D0D5
:101BF00002F59A3293420CD002F58062934208D0EB
:101C000002F58062934204D041F29931794801F0A3
:101C100061F923690F2B22D82B68196A1A6A22F0FE
:101C200001021A622A68936923F0F003206943EAEB
:101C3000001393612B6819629FE741F28B316D4865
:101C400001F048F987E741F28C316A4801F042F926
:101C50008AE741F28D31674801F03CF987E741F2AC
:101C60009A31644801F036F9D6E70368604A934236
:101C70001FD0B3F1804F1CD0A2F57C42934218D004
:101C800002F58062934214D002F58062934210D034
:101C900002F59A3293420CD002F58062934208D04A
:101CA00002F58062934204D041F2AF31514801F015
:101CB00011F9A368B3F5004F04D01BB1022B01D07A
:101CC0000A2B08D123690F2B0BD82269A168286839
:101CD000FFF7C6FE51E741F2B031464801F0FAF88D
:101CE000F0E741F2B131434801F0F4F8EDE7036861
:101CF0003F4A934217D0B3F1804F14D0A2F57C42F3
:101D0000934210D002F5806293420CD002F58062BB
:101D1000934208D002F59A32934204D041F2BD3189
:101D2000344801F0D7F8A368B3F5004F04D01BB1D5
:101D3000022B01D00A2B08D123690F2B0BD8226963
:101D4000A1682868FFF79FFE17E741F2BE312948D6
:101D500001F0C0F8F0E741F2BF31264801F0BAF8CF
:101D6000EDE70368224A93423FF407AFB3F1804F97
:101D70003FF403AFA2F57C4293423FF4FEAE02F57E
:101D8000806293423FF4F9AE02F5806293423FF4E1
:101D9000F4AE02F59A3293423FF4EFAE41F2D23103
:101DA000144801F097F8E8E60368114A93423FF4BB
:101DB000E4AEB3F1804F3FF4E0AEA2F57C42934233
:101DC0003FF4DBAE02F5806293423FF4D6AE02F5FB
:101DD000806293423FF4D1AE02F59A3293423FF4CF
:101DE000CCAE41F2D931034801F074F8C5E600BF2A
:101DF00000000140C04700080368114A93423FF4C5
:101E0000BCAEB3F1804F3FF4B8AEA2F57C42934232
:101E10003FF4B3AE02F5806293423FF4AEAE02F5FA
:101E2000806293423FF4A9AE02F59A3293423FF4A6
:101E3000A4AE4FF49F51034801F04CF89DE600BF5B
:101E400000000140C047000810B504460368174A67
:101E500093421FD0B3F1804F1CD0A2F57C42934235
:101E600018D002F58062934214D002F5806293424A
:101E700010D002F59A3293420CD002F58062934260
:101E800008D002F58062934204D04FF4B271084842
:101E900001F020F82268D36843F00103D360226880
:101EA000136843F001031360002010BD00000140DF
:101EB000C04700087047000038B590F83830012B53
:101EC00000F070820D460446012380F8383002236A
:101ED00080F839300B68B3F5805F11D0B3F5005F3F
:101EE0000ED06BB1102B0BD0202B09D0302B07D08C
:101EF000402B05D0502B03D0602B01D0702B4AD142
:101F00002268936823F47F4323F0770393602B6860
:101F1000402B00F0BF8144D9702B00F0058100F206
:101F20008F80502B00F06481602B40F0F680236896
:101F3000AD4A934217D0B3F1804F14D0A2F57C4242
:101F4000934210D002F5806293420CD002F5806279
:101F5000934208D002F59A32934204D040F6BA7107
:101F6000A24800F0B7FF6B68B3F5004F05D023B16E
:101F7000022B02D00A2B40F08181EB680F2B00F27C
:101F80008381EA6869682068FFF77DFD6021206829
:101F9000FFF78DFDC1E040F66D71944800F09AFFA7
:101FA000AEE7102B00F0BC8126D9202B00F0D981A0
:101FB000302B40F0B28023688B4A934217D0B3F1A4
:101FC000804F14D0A2F57C42934210D002F580627B
:101FD00093420CD002F58062934208D002F59A3207
:101FE000934204D040F6E871804800F073FF30213E
:101FF0002068FFF75CFD90E0002B40F08E802368A6
:10200000794A934217D0B3F1804F14D0A2F57C42A5
:10201000934210D002F5806293420CD002F58062A8
:10202000934208D002F59A32934204D040F6D6711A
:102030006E4800F04FFF00212068FFF738FD6CE08C
:10204000B3F5805F40D0B3F5005F66D12368664A80
:10205000934213D0B3F1804F10D0A2F57C4293424B
:102060000CD002F58062934208D002F58062934260
:1020700004D040F69A715D4800F02CFF6B68B3F510
:10208000004F05D023B1022B02D00A2B40F09980DB
:10209000AB684BB1B3F5805F06D0B3F5005F03D0FA
:1020A000B3F5405F40F09380EB680F2B00F2958012
:1020B000EB686A68A9682068FFF701FD22689368E9
:1020C00043F48043936028E02368474A93421FD03B
:1020D000B3F1804F1CD0A2F57C42934218D002F598
:1020E0008062934214D002F58062934210D002F5D0
:1020F0009A3293420CD002F58062934208D002F5E6
:102100008062934204D040F67971384800F0E2FED4
:102110002268936823F007039360012384F8393021
:10212000002084F8380038BD23682F4A934213D02A
:10213000B3F1804F10D0A2F57C4293420CD002F54F
:102140008062934208D002F58062934204D040F648
:102150008271264800F0BEFE6B68B3F5004F04D0D4
:102160001BB1022B01D00A2B19D1AB6843B1B3F5D7
:10217000805F05D0B3F5005F02D0B3F5405F14D1A6
:10218000EB680F2B17D8EB686A68A9682068FFF71F
:1021900096FC2268936843F077039360BDE740F6AE
:1021A0008471124800F096FEDFE740F685710F4813
:1021B00000F090FEE4E740F686710C4800F08AFEDD
:1021C000E1E740F69C71094800F084FE60E740F6C4
:1021D0009D71064800F07EFE66E740F69E7103485A
:1021E00000F078FE64E700BF00000140C04700082F
:1021F00023686D4A93421FD0B3F1804F1CD0A2F5E3
:102200007C42934218D002F58062934214D002F5CA
:102210008062934210D002F59A3293420CD002F5BC
:102220008062934208D002F58062934204D040F667
:10223000AC715E4800F04EFE6B68B3F5004F04D001
:102240001BB1022B01D00A2B0CD1EB680F2B0FD83E
:10225000EA6869682068FFF703FC50212068FFF7EF
:1022600026FC5AE740F6AF71504800F033FEECE729
:102270004FF47B614D4800F02DFEE9E740F6BD715B
:102280004A4800F027FE78E640F6BE71474800F065
:1022900021FE76E62368444A93421FD0B3F1804F73
:1022A0001CD0A2F57C42934218D002F58062934282
:1022B00014D002F58062934210D002F59A32934214
:1022C0000CD002F58062934208D002F580629342FE
:1022D00004D040F6C871354800F0FCFD6B68B3F5DA
:1022E000004F04D01BB1022B01D00A2B0CD1EB689C
:1022F0000F2B0FD8EA6869682068FFF7B1FB40210F
:102300002068FFF7D4FB08E740F6CB71274800F0C0
:10231000E1FDECE740F6CC71244800F0DBFDE9E795
:102320002368214A934217D0B3F1804F14D0A2F50D
:102330007C42934210D002F5806293420CD002F5A9
:102340008062934208D002F59A32934204D040F65C
:10235000DC71164800F0BEFD10212068FFF7A7FBD6
:10236000DBE62368104A934217D0B3F1804F14D0B4
:10237000A2F57C42934210D002F5806293420CD0C9
:1023800002F58062934208D002F59A32934204D05B
:1023900040F6E271054800F09DFD20212068FFF71E
:1023A00086FBBAE60220BEE600000140C0470008F6
:1023B00070B504460D460368304A934217D0B3F116
:1023C000804F14D0A2F57C42934210D002F5806277
:1023D00093420CD002F58062934208D002F59A3203
:1023E000934204D041F22801254800F073FD2B6888
:1023F0003BB1052B05D0042B03D0062B01D0072BB6
:102400002DD16B686BB1102B0BD0202B09D0302B4A
:1024100007D0402B05D0502B03D0602B01D0702B60
:1024200023D194F83830012B25D0012684F8386068
:10243000022384F8393029462046FFF74DFB2268F5
:10244000D36823F04003D3602268D36823F4804329
:10245000D36084F83960002084F8380070BD41F200
:102460002901074800F036FDCBE741F22A01044874
:1024700000F030FDD5E70220F0E700BF000001408A
:10248000C0470008704770477047704710B5044652
:1024900003681A6912F0020F11D0DA6812F0020F05
:1024A0000DD06FF002021A610123037603689B6965
:1024B00013F0030F70D0FFF7E6FF002323762368A5
:1024C0001A6912F0040F12D0DA6812F0040F0ED05D
:1024D0006FF004021A610223237623689B6913F4C8
:1024E000407F5FD02046FFF7CEFF0023237623688E
:1024F0001A6912F0080F12D0DA6812F0080F0ED025
:102500006FF008021A61042323762368DB6913F055
:10251000030F4ED02046FFF7B6FF00232376236833
:102520001A6912F0100F12D0DA6812F0100F0ED0E4
:102530006FF010021A61082323762368DB6913F415
:10254000407F3DD02046FFF79EFF0023237623687F
:102550001A6912F0010F03D0DA6812F0010F36D1B8
:1025600023681A6912F0800F03D0DA6812F0800F26
:1025700034D123681A6912F0400F03D0DA6812F0E0
:10258000400F32D123681A6912F0200F03D0DA68A5
:1025900012F0200F30D110BDFFF774FF2046FFF777
:1025A00073FF8AE72046FFF76DFF2046FFF76CFFB9
:1025B0009BE72046FFF766FF2046FFF765FFACE785
:1025C0002046FFF75FFF2046FFF75EFFBDE76FF095
:1025D00001021A61204600F067FBC1E76FF080023C
:1025E0001A61204600F093F9C3E76FF040021A61C8
:1025F0002046FFF74AFFC5E76FF020021A61204628
:1026000000F084F9C7E700000368234A90420ED027
:10261000B0F1804F0BD0A2F57C42904207D002F57A
:102620008062904203D002F58062904203D123F091
:1026300070034A681343184A90421AD0B0F1804F91
:1026400017D0A2F57C42904213D002F580629042EE
:102650000FD002F5806290420BD002F59A32904280
:1026600007D002F58062904203D002F5806290426A
:1026700003D123F44073CA68134303608B68C362B9
:102680000B688362044B984202D001234361704778
:102690000B690363F9E700BF00000140002855D033
:1026A00010B5044603682A4A93421ED0B3F1804F06
:1026B0001BD0A2F57C42934217D002F58062934270
:1026C00013D002F5806293420FD002F59A32934202
:1026D0000BD002F58062934207D002F580629342EC
:1026E00003D0D9211B4800F0F5FBA3683BB1102BA8
:1026F00005D0202B03D0402B01D0602B16D12369AD
:102700002BB1B3F5807F02D0B3F5007F13D194F8DD
:102710003930ABB1022384F83930211D2068FFF72E
:1027200073FF012384F83930002010BDDA210948F5
:1027300000F0D0FBE3E7DB21064800F0CBFBE6E747
:1027400084F83830204600F03FFCE3E70120704772
:1027500000000140C047000800286BD038B504468F
:102760000D460368344A93421FD0B3F1804F1CD00A
:10277000A2F57C42934218D002F58062934214D0B5
:1027800002F58062934210D002F59A3293420CD047
:1027900002F58062934208D002F58062934204D031
:1027A0004FF4FB61254800F095FBA3683BB1102B6B
:1027B00005D0202B03D0402B01D0602B22D12369E0
:1027C0002BB1B3F5807F02D0B3F5007F20D1082D67
:1027D00000D01DBB94F8393033B3022384F839306C
:1027E000211D2068FFF710FF2268136823F00803FB
:1027F0001360236819680D431D60012384F8393084
:10280000002038BD40F2D9710C4800F063FBD6E7D8
:1028100040F2DA71094800F05DFBD8E740F2DB7165
:10282000064800F057FBD5E784F838302046FFF71C
:1028300041FBD2E70120704700000140C04700087B
:1028400038B504460D4603682E4A934213D0B3F1BF
:10285000804F10D0A2F57C4293420CD002F58062EA
:10286000934208D002F58062934204D04FF4CB61CA
:10287000254800F02FFB2B686BB1102B0BD0202BC1
:1028800009D0302B07D0402B05D0502B03D0602B24
:1028900001D0702B27D16B68802B00D04BBB94F8F4
:1028A0003830012B2BD0012284F83820022384F801
:1028B000393021684B6823F070034B6021684B6806
:1028C000286803434B6021688B6823F080038B608A
:1028D00021688B68686803438B6084F83920002086
:1028E00084F8380038BD40F25961074800F0F2FA28
:1028F000D1E740F25A61044800F0ECFACFE7022039
:10290000F0E700BF00000140F04700087047704743
:10291000FEE7000008B503460C4A12685AB10B4A9C
:102920001068033323F003030344094A934206D893
:10293000064A136008BD054A06491160EFE701F039
:102940003FFA0C2303604FF0FF30F3E780000020D4
:1029500000FC00208C3F002001230360014B0B6032
:10296000704700BF040000200FB400B583B004AB73
:1029700053F8042B01938021064801F05FFA0028E8
:1029800003DD0146034800F037F803B05DF804EBBF
:1029900004B07047880000202DE9F04385B004465C
:1029A0000F4643560BB10E461EE00425284621462D
:1029B000ABBE0446384605B0BDE8F08314F9011BF0
:1029C00004AA1A4402F8101C0133AB42F6D304AA3D
:1029D0001344002203F8102C4FF00408E946404647
:1029E0004946ABBE8046761B002EE3D03546102EFE
:1029F00028BF10250023E8E708B5FFF7CDFF08BD85
:102A000008B500F09FF8054B054A9A60D3F8882076
:102A100042F47002C3F8882008BD00BF00ED00E05A
:102A20000000000808B500F0B3F808BDF8B504468A
:102A30000D4617461E462748FFF796FF2168264891
:102A4000FFF792FF61682548FFF78EFFA1682448D1
:102A5000FFF78AFFE1682348FFF786FF21692248D4
:102A6000FFF782FF61692148FFF77EFFA1692048D7
:102A7000FFF77AFFE1691F48FFF776FF1E48FFF76F
:102A800073FF29461D48FFF76FFF1D4CE16A1D4883
:102A9000FFF76AFF216B1C48FFF766FFE16B1B48DD
:102AA000FFF762FF15F0800F0AD115F4004F0CD12B
:102AB0001748FFF759FF06991648FFF755FFF8BD6D
:102AC00039461548FFF750FFEFE731461348FFF747
:102AD0004BFFEDE72448000834480008444800084C
:102AE00054480008644800087448000884480008F6
:102AF00094480008A4480008B4480008C0480008EA
:102B000000ED00E0D0480008E0480008F048000868
:102B10002049000828490008004900081049000819
:102B200083691A888A4201D0002070470268033AFC
:102B3000012A03D8023383610120704700207047C7
:102B4000FEE700000F49D1F8883043F47003C1F864
:102B500088300D4B1A6842F001021A60002098601C
:102B60001A6822F0847222F480321A60074A5A608E
:102B70001A6822F480221A60D8604FF000638B60DC
:102B8000704700BF00ED00E0003802401030002424
:102B9000224B9B6803F00C03042B14D0082B16D097
:102BA0001BB11F4B1F4A1A6002E01D4B1D4A1A60E1
:102BB0001A4B9B68C3F303131B4AD15C184A136872
:102BC000CB4013607047164B184A1A60F0E7134B5E
:102BD0005A685B6803F03F0312F4800F13D0134A66
:102BE000B2FBF3F20D4B5B68C3F3881303FB02F3F4
:102BF0000A4A5268C2F3014201325200B3FBF2F3B7
:102C0000074A1360D4E7074AB2FBF3F2034B5B6851
:102C1000C3F3881303FB02F3EAE700BF0038024066
:102C20000C0000200024F4006C49000800BD0105E0
:102C300082B0002100910B4B1A6B42F080021A63A4
:102C40001A6B02F080020092009A01911A6B42F016
:102C500001021A631B6B03F001030193019B02B095
:102C6000704700BF0038024000B583B000220192D7
:102C7000094B196B41F4800119631B6B03F480034A
:102C80000193019B05213820FDF790FE3820FDF7C8
:102C9000D3FE03B05DF804FB0038024008B5012004
:102CA00000F0BFFCFBE7000008B50268034B9A4246
:102CB00000D008BDFDF7CEFBFBE700BF00000140E0
:102CC000FEE7000000B585B01748184B03604FF4CD
:102CD00080334360002383600361836103624FF0AC
:102CE0008052C2624FF040728262C3600123C361AE
:102CF00003634361FDF768FC60B900230093012280
:102D00000192029369460848FDF74CFD30B905B0C1
:102D10005DF804FBF8210648FFF7D2FF4FF48171FC
:102D20000348FFF7CDFF00BF683E002000200140B0
:102D30009049000800B58DB023484FF080430360F0
:102D4000002343608360C3600361FFF7A7FC08BBF7
:102D50000CA94FF4805341F8103D1B48FFF7ACF825
:102D6000E8B908211848FFF7F7FCE8B900230393F6
:102D70001023049303A91448FFF71AFBC8B90023D2
:102D80000193029301A91048FFF75AFDB0B90DB0A5
:102D90005DF804FB4FF48B710C48FFF791FF4FF483
:102DA0008E710A48FFF78CFF40F221110748FFF7A8
:102DB00087FF4FF494710548FFF782FF40F22F110F
:102DC0000248FFF77DFF00BF103F00209049000838
:102DD00000B595B000220192294B196C41F0805149
:102DE00019641B6C03F080530193019B02922549E7
:102DF0000B6823F4404343F400430B600B6803F477
:102E000040430293029B0223089301210B9110215E
:102E10000C910E930F920822109254221192129349
:102E20000423139308A8FEF74DFA08BB0F2303935E
:102E300002210491002305934FF4805206920793D8
:102E400003A8FEF7A7FCB8B9FEF7D0FD0E4BA3FB15
:102E500000308009FDF706FE0420FDF719FE002270
:102E60000F214FF0FF30FDF7A1FD15B05DF804FB19
:102E7000C5210648FFF724FFD3210448FFF720FFB0
:102E80000038024000700040D34D621090490008A5
:102E900000B587B0FDF7C4FAFFF79AFFFFF7C8FE49
:102EA000FFF7E2FEFFF70EFFFFF744FF01AC074D0F
:102EB0000FCD0FC42B682360002101A800F097FB01
:102EC000034B186000F08EFBFEE700BF7C49000852
:102ED000643E0020704708B50320FDF749FD00223D
:102EE00011466FF00B00FDF761FD002211466FF0F7
:102EF0000A00FDF75BFD002211466FF00900FDF7A7
:102F000055FD002211466FF00400FDF74FFD002231
:102F100011466FF00300FDF749FD00220F216FF00D
:102F20000100FDF743FD00220F214FF0FF30FDF7B8
:102F30003DFD08BD02681F4B9A4200D0704730B576
:102F400087B004460025009503F58C335A6C42F493
:102F500080725A645B6C03F480730093009B0123BE
:102F6000019303230293039501A91348FEF754F834
:102F70001248134B036045608560C5604FF4806361
:102F800003614FF4006343614FF4005383614FF4D6
:102F90008073C36105624562FDF706FE20B9074BE9
:102FA000A3639C6307B030BD7C210648FFF788FE11
:102FB000F5E700BF0020014000000240B03E0020C5
:102FC00010640240AC4900080368B3F1804F00D0A0
:102FD000704700B583B00022019203F50E33196CDF
:102FE00041F0010119641B6C03F001030193019B83
:102FF00005211C20FDF7DAFC1C20FDF71DFD03B0A8
:103000005DF804FB10B588B0002201461920FDF7D9
:10301000CDFC1920FDF710FD00240194134B5A6CD0
:1030200042F001025A645B6C03F001030193019BBF
:1030300002A903A8FEF7F6FCFEF7DEFC0C4BA3FB8F
:1030400000239B0C013B0B480B4A026040F2E73225
:10305000C260436004618460FFF720FB10B101206F
:1030600008B010BD0348FEF7EFFEF9E70038024054
:1030700083DE1B434C3F0020000001407047FEE709
:10308000FEE7FEE7FEE7704708B500F0D3FA08BD9B
:1030900008B50248FFF7FAF908BD00BF4C3F002011
:1030A00008B50248FFF7F2F908BD00BF103F002045
:1030B00008B50248FDF7BEFE08BD00BFB03E0020C7
:1030C000124A12F0070F1ED0D11D21F00701C1F5E1
:1030D000705313440A460E480260002141601344B5
:1030E000083B23F007030B48036059601960991AE5
:1030F00051601360084B1960084B1960084B4FF082
:1031000000421A6070474FF47053E4E70C0100204E
:10311000183D002008010020143D0020103D002033
:103120000C3D002010B4134B1A6882421BD359681F
:103130005C18844203D140680144596018464168D4
:103140004418A24213D10C4C2468A2420DD05268FC
:10315000114441601A6812680260984200D01860F9
:103160005DF8044B70471346DEE70460F5E7026044
:10317000F3E700BF183D00200801002070B50446A9
:1031800000F04CFC3A4B1B68BBB13A4B1B681C422D
:1031900063D1ACB1083414F0070F11D024F0070448
:1031A000083404F007035BB14FF0500383F3118838
:1031B000BFF36F8FBFF34F8FFEE7FFF781FFE4E7A9
:1031C000002C4CD02C4B1B68A3424AD32B4B1D68C0
:1031D00001E02B4615466A68A24202D22A68002AFC
:1031E000F7D1234A1268AA423DD01E6808362A68E1
:1031F0001A606B681B1B102B10D9281910F0070FD1
:1032000008D04FF0500383F31188BFF36F8FBFF3E3
:103210004F8FFEE743606C60FFF784FF6A681649D2
:103220000B689B1A0B60164909688B4201D214493E
:103230000B60104B1B6813436B6000232B6000F086
:1032400081FC16F0070F10D04FF0500383F3118864
:10325000BFF36F8FBFF34F8FFEE70026EFE7002627
:10326000EDE70026EBE70026E9E7304670BD00BF3A
:10327000080100200C3D0020103D0020183D0020DA
:10328000143D002080B338B50446A0F1080550F87D
:10329000042C164909680A4208D14FF0500383F301
:1032A0001188BFF36F8FBFF34F8FFEE750F8080C04
:1032B00040B14FF0500383F31188BFF36F8FBFF31A
:1032C0004F8FFEE722EA010244F8042C00F0A6FB2F
:1032D00054F8041C064A13680B4413602846FFF791
:1032E00021FF00F02FFC38BD704700BF0C3D0020CF
:1032F000103D00200B4B1B68B3F1FF3F08D04FF08F
:10330000500383F31188BFF36F8FBFF34F8FFEE736
:103310004FF0500383F31188BFF36F8FBFF34F8FCC
:10332000FEE700BF1000002006480068006880F338
:10333000088862B661B6BFF34F8FBFF36F8F00DFAF
:1033400000BF000008ED00E0DFF80C00016841F468
:10335000700101607047000088ED00E04FF080735D
:1033600040F8043C21F0010140F8081C054B40F8EE
:103370000C3C40F8202C6FF0020340F8243C443809
:10338000704700BFF5320008000000000000000098
:10339000074B19680868B0E8F04F80F30988BFF35D
:1033A0006F8F4FF0000080F311887047AFF30080FB
:1033B000283D00204FF0500383F31188BFF36F8F37
:1033C000BFF34F8F0A4A136801331360012B00D0FB
:1033D0007047084B1B6813F0FF0FF9D04FF05003F4
:1033E00083F31188BFF36F8FBFF34F8FFEE700BFEA
:1033F0001000002004ED00E0094B1B6843B94FF0BA
:10340000500383F31188BFF36F8FBFF34F8FFEE735
:10341000013B034A13600BB983F31188704700BF67
:10342000100000200000000000000000000000006C
:10343000EFF30980BFF36F8F154B1A681EF0100F62
:1034400008BF20ED108A20E9F04F10604DF8043DD0
:103450004FF0500080F31188BFF34F8FBFF36F8F91
:1034600000F052FC4FF0000080F3118808BC19688E
:103470000868B0E8F04F1EF0100F08BFB0EC108ADB
:1034800080F30988BFF36F8F704700BFAFF30080F0
:10349000283D002008B54FF0500383F31188BFF397
:1034A0006F8FBFF34F8F00F0C1FA18B1034B4FF08D
:1034B00080521A60002383F3118808BD04ED00E0F8
:1034C000064B1B68064AA2FB03239B09013B054AE6
:1034D0001360054B07221A60704700BF0C000020E4
:1034E000D34D621014E000E010E000E0314B1A68A8
:1034F000314B9A420DD02F4B1A68304B9A4211D162
:103500004FF0500383F31188BFF36F8FBFF34F8FDA
:10351000FEE74FF0500383F31188BFF36F8FBFF3C3
:103520004F8FFEE700B583B0254B1A78D2B20192D7
:10353000FF221A701B78DBB28DF803309DF8033040
:1035400003F050031F4A13701F4B07221A609DF8A7
:10355000033013F0800F0AD01B4A1368013B13603D
:103560009DF803305B00DBB28DF80330EFE7164ABD
:1035700013681B0203F4E0631360019BDBB2104A83
:103580001370124B1A6842F470021A601A6842F003
:1035900070421A60FFF794FF0D4B00221A60FFF78C
:1035A000D3FE0C4A136843F040431360FFF7BCFEA0
:1035B000FFF7A0FE00ED00E071C20F4170C20F41A5
:1035C00000E400E0203D0020243D002020ED00E04C
:1035D0001000002034EF00E0842801D00330704751
:1035E0000020704708B500F0DBF9002008BDF0B5F9
:1035F00085B00F46446805680669B0F90800FFF712
:10360000EBFF03AB019300903B46B2B22946204644
:1036100000F094F9012802D1039805B0F0BD002014
:10362000FBE708B5034600B90123184600F004FB88
:10363000002008BD08B500F0B3FB012801D0FFF75A
:1036400029FF08BD00F1080343604FF0FF3282609C
:10365000C360036100230360704700230361704768
:1036600043684B609A688A609A6851609960086103
:10367000036801330360704730B40D68B5F1FF3F54
:1036800002D000F1080202E0026904E01A46536821
:103690001C68AC42FAD953684B6099608A605160EB
:1036A000086103680133036030BC704703694268F6
:1036B000816891608268416851605A68824205D091
:1036C00000220261186801381860704782685A60E9
:1036D000F6E70000084B1B681B683BB1064B1B68F4
:1036E000DB68DB685A68054B1A607047034B4FF084
:1036F000FF321A60704700BF2C3D0020043E0020BE
:1037000010B50446006BFFF7BDFD2046FFF7BAFD7C
:1037100010BD2DE9F04780469946089D099F0A9CF7
:10372000266B02F18042013A06EB820626F007067C
:1037300000230F2B07D8C856E21882F83400CA5667
:103740000AB10133F5E7002384F84330062D00D990
:103750000625E56265644FF0000AC4F848A0201D04
:10376000FFF77BFF04F11800FFF777FF2461C5F135
:103770000705A5616462C4F84CA084F850A04A46CD
:1037800041463046FFF7EAFD206007B13C60BDE8E6
:10379000F087000038B5002407E004EB84029300B2
:1037A0000E481844FFF74EFF0134062CF5D90C4D96
:1037B0002846FFF747FF0B4C2046FFF743FF0A4818
:1037C000FFF740FF0948FFF73DFF0948FFF73AFFC1
:1037D000084B1D60084B1C6038BD00BF343D002005
:1037E000D83D0020EC3D00200C3E0020383E00205B
:1037F000243E00202C3D0020303D002010B5044622
:10380000FFF7D8FD204A1368013313601F4B1B6874
:103810005BB11F4B1B686BB91C4B1B68DA6AE36A10
:103820009A4207D8194B1C6004E0184B1C601368BF
:10383000012B26D0174A136801331360E36A012273
:103840009A401549086802430A6003EB83039A0013
:10385000211D12481044FFF703FFFFF7CDFD0C4B6D
:103860001B686BB1094B1B68DA6AE36A9A4207D29C
:103870000B4B4FF080521A60BFF34F8FBFF36F8F27
:1038800010BDFFF787FFD5E7C03D0020283D002091
:10389000203E0020D03D0020D43D0020343D0020BB
:1038A00004ED00E070B504460E461D4B1D681D4B2F
:1038B00018680430FFF7FAFE50B91A4B1B68DA6A31
:1038C000012303FA02F218490B6823EA02030B6092
:1038D000B4F1FF3F13D02C44124B1B685C60A5422F
:1038E00016D8124B18680F4B19680431FFF7C4FE45
:1038F0000F4B1B68A34212D90D4B1C600FE0002E2A
:10390000E9D0084B196804310A48FFF7A9FE06E020
:10391000094B1868034B19680431FFF7ADFE70BD01
:103920004C3E0020283D0020D43D00202C3D0020AE
:10393000043E0020243E0020303D00202DE9F043CD
:1039400085B007468846154699469000FFF716FC55
:10395000F8B106465420FFF711FC0446A8B10663EF
:10396000D4B10023039302940D9B01930C9B00930D
:103970004B462A4641463846FFF7CBFE2046FFF726
:103980003DFF012005B0BDE8F0833046FFF77AFC2B
:10399000E6E74FF0FF30F5E74FF0FF30F2E70000C9
:1039A00000B583B0174B0193002300938022164982
:1039B0001648FFF7C3FF012805D0B0F1FF3F17D02D
:1039C00003B05DF804FB4FF0500383F31188BFF39D
:1039D0006F8FBFF34F8F0E4B4FF0FF321A600D4BBE
:1039E00001221A600C4B00221A60FFF77FFDE7E707
:1039F0004FF0500383F31188BFF36F8FBFF34F8FE6
:103A0000FEE700BF003E0020C8490008E13C000876
:103A1000043E0020203E00204C3E0020024A136855
:103A200001331360704700BFCC3D0020F8B53A4B1E
:103A30001B68002B64D1394B1D6801351D60C5B969
:103A4000374B1B681B6843B14FF0500383F3118859
:103A5000BFF36F8FBFF34F8FFEE7314A1168314BD1
:103A6000186810601960304A136801331360FFF75B
:103A700031FE2E4B1B68AB4238D900242C4B1B68FF
:103A8000DB6A03EB83039A002A4B9B58012B3CD93A
:103A900001243AE00124224B1B681B6843B3204BEE
:103AA0001B68DB68DE6873689D4226D3371D384685
:103AB000FFF7FCFDB36A1BB106F11800FFF7F6FD36
:103AC000F36A01229A401C49086802430A6003EB2A
:103AD00083039A00394617481044FFF7C1FDF26A84
:103AE000134B1B68DB6A9A42D4D2D4E70024D2E796
:103AF0000E4B4FF0FF321A60C0E70C4A1360BDE76F
:103B00000E4A13680133136000240D4B1B6803B188
:103B100001242046F8BD00BFCC3D00204C3E0020D3
:103B20002C3D0020303D0020083E0020043E0020B7
:103B3000283D0020343D0020D43D0020C83D002019
:103B4000503E002038B5334B1B6843B94FF050034B
:103B500083F31188BFF36F8FBFF34F8FFEE7FFF73B
:103B600029FC2C4B1A68013A1A601B68002B4DD1B6
:103B7000294B1B6823B90024FFF73EFC204638BDC3
:103B80000024264B1B681BB3244BDB68DC6804F164
:103B90001800FFF78BFD251D2846FFF787FDE36A18
:103BA00001229A401E49086802430A6003EB83031E
:103BB0009A0029461B481044FFF752FDE26A1A4B4F
:103BC0001B68DB6A9A42DCD3184B01221A60D8E7E3
:103BD0000CB1FFF77FFD164B1C6854B1FFF726FFB1
:103BE00010B1124B01221A60013CF7D1104B002298
:103BF0001A600E4B1B685BB10E4B4FF080521A607F
:103C0000BFF34F8FBFF36F8F0124B5E70024B3E7F5
:103C10000024B1E7CC3D0020C03D00200C3E002038
:103C2000D43D0020343D0020283D0020503E00209F
:103C3000C83D002004ED00E010B5A8B104460F4BCC
:103C40001B6843B14FF0500383F31188BFF36F8FAC
:103C5000BFF34F8FFEE7FFF7E1FE00212046FFF79D
:103C600021FEFFF76FFF38B9054B4FF080521A6005
:103C7000BFF34F8FBFF36F8F10BD00BFCC3D00204F
:103C800004ED00E0134B1B6813B310B5FFF7C6FE3D
:103C9000114B1C68FFF756FF24B90E4B1B68002B15
:103CA000F4D110BDFFF786FB0B4BDB68DC68201DF1
:103CB000FFF7FCFC094A1368013B1360054A1368CF
:103CC000013B1360FFF798FB2046FFF719FDE4E77F
:103CD000704700BFC43D0020383E0020C03D00209A
:103CE00008B5FFF7CFFF064B1B68012BF9D9054B31
:103CF0004FF080521A60BFF34F8FBFF36F8FF0E722
:103D0000343D002004ED00E0204B1B681BB1204B2C
:103D100001221A6070471E4B00221A601D4B1B685F
:103D2000B3FA83F3DBB2C3F11F0303EB83018A0011
:103D300019498A5842B94FF0500383F31188BFF3F1
:103D40006F8FBFF34F8FFEE710B413489A00D4185B
:103D5000A10001444C6864684C601A449100083129
:103D6000084484420BD003EB83039A000A4B1344AC
:103D70005B68DA68094B1A605DF8044B704761684C
:103D80000548142202FB03025160ECE7CC3D002001
:103D9000503E0020D43D0020343D0020283D00202E
:103DA000054B1B6833B1054B1B680BB100207047F6
:103DB0000220704701207047203E0020CC3D0020AB
:103DC000014B1868704700BF1400002010B5431E57
:103DD0000A44914200D110BD11F8014B03F8014F84
:103DE000F7E730B5141E05469BB0184605DA8B235D
:103DF0002B604FF0FF301BB030BD4FF40273ADF8B5
:103E00000C3014BF04F1FF332346029305934FF6A1
:103E1000FF7300910491ADF80E3002461E9B694677
:103E2000284600F073F8431CBCBF8B232B60002C8A
:103E3000E1D0009B00221A70DDE7000007B5009377
:103E400013460A46014603480068FFF7CAFF03B05D
:103E50005DF804FB140000202DE9F0478E689E42B7
:103E600082460C469046994637D88A8912F4906F5C
:103E700031D0256809696F1A6569022305EB45058C
:103E800095FBF3F509F101033B449D4238BF1D4604
:103E9000530530D5294600F073FB064650B90C2374
:103EA000CAF80030A38943F04003A3814FF0FF30EC
:103EB000BDE8F0873A462169FFF788FFA38923F41C
:103EC000906343F08003A381266165613E44ED1B4E
:103ED0002660A5604E464E4500D94E4632464146C4
:103EE000206800F0E5FAA3689B1BA36023681E44CA
:103EF00026600020DCE72A4600F09CFB06460028EE
:103F0000E2D12169504600F0EDFAC8E72DE9F04F03
:103F10009DB0804603938B891D060C4616460FD52F
:103F20000B696BB9402100F02BFB2060206128B9A0
:103F30000C23C8F800304FF0FF30C7E04023636126
:103F40000023099320238DF8293030238DF82A305F
:103F50004FF0010B37463D4615F8013B0BB1252BC1
:103F60003ED1B7EB060A0BD05346324621464046B7
:103F7000FFF772FF013000F0A480099B53440993BE
:103F80003B78002B00F09D8000234FF0FF32CDE9FD
:103F90000523049307938DF853301A932F46052277
:103FA00017F8011B4F4800F033FA049BD0B9D9062B
:103FB00044BF20228DF853201A0744BF2B228DF8CE
:103FC00053202A782A2A15D0079A2F4600200A253E
:103FD000394611F8013B303B092B4DD9B8B10FE000
:103FE0002F46B8E73F4A801A0BFA00F018430490B6
:103FF0003D46D3E7039A111D12680391002A01DBA5
:10400000079204E0524243F00203079204933B7884
:104010002E2B0CD17B782A2B33D1039B1A1D1B68C6
:104020000392002BB8BF4FF0FF33023705932E4D9C
:1040300039780322284600F0EBF938B14023401BC1
:1040400003FA00F0049B03430137049339782748AF
:104050008DF8281006227E1C00F0DAF9002838D0EE
:10406000234B13BB039B073323F00703083303934E
:10407000099B4B4409936DE705FB023201200F4673
:10408000A6E700230137059319460A25384610F89C
:10409000012B303A092A03D9002BC8D00591C6E775
:1040A00005FB012101230746F0E703AB00932246FD
:1040B000104B04A94046AFF30080B0F1FF3F8146AA
:1040C000D6D1A3895B063FF536AF09981DB0BDE890
:1040D000F08F03AB00932246064B04A9404600F044
:1040E00081F8EAE7D0490008D6490008DA49000813
:1040F00000000000593E00082DE9F04791461F4698
:104100008A680B69DDF820809342B8BF1346C9F86E
:10411000003091F8432006460C4612B10133C9F82D
:1041200000302368990642BFD9F800300233C9F83D
:104130000030256815F0060507D104F1190AE36877
:10414000D9F800209B1AAB4228DC94F8433022684F
:10415000003318BF012392062DD404F143023946DF
:104160003046C047013020D02368E568D9F80020E8
:1041700003F00603042B08BFAD1AA36822690CBF25
:1041800025EAE57500259342C4BF9B1AED184FF050
:1041900000091A344D451AD1002008E00123524687
:1041A00039463046C047013003D14FF0FF30BDE8FB
:1041B000F0870135C3E7E1185A1C302081F843002D
:1041C000224494F8451082F843100233C5E70123D6
:1041D000224639463046C0470130E6D009F1010990
:1041E000D8E700002DE9F04301F1430C0C46097EAD
:1041F00085B06E291746064698460C9A00F0B380A3
:1042000022D8632936D00AD8002900F0B98058296D
:1042100000F0838004F1420584F8421032E0642902
:1042200001D06929F6D120681368050603F104015D
:104230002AD51B681160002B03DA2D225B4284F81B
:1042400043206F480A2239E0732900F09D8008D886
:104250006F2920D07029DDD1236843F0200323602B
:1042600003E0752917D07829D4D1782384F8453014
:10427000644855E01368191D1B68116004F142057C
:1042800084F8423001238CE01B68116010F0400F6D
:1042900018BF1BB2CFE713682568181D10602806E9
:1042A00001D51B6802E06806FBD51B8854486F29BE
:1042B00014BF0A220822002184F843106568A56013
:1042C000002DC0F29580216821F004012160002BAF
:1042D0003DD1002D40F08E806546082A0BD1236821
:1042E000DB0708D5236962689A42DEBF302305F8F0
:1042F000013C05F1FF35ACEB05032361CDF80080EF
:104300003B4603AA21463046FFF7F6FE01304DD169
:104310004FF0FF3005B0BDE8F083394884F8451010
:10432000136821681D1D1B6815600A060BD5CA0796
:1043300044BF41F0200121601BB9226822F0200215
:1043400022601022B7E74D0648BF9BB2EFE76546F3
:10435000B3FBF2F102FB1133C35C05F8013D0B46E0
:104360000029F5D1B9E7136825686169181D106047
:1043700028061B6801D5196002E06A06FBD5198082
:10438000002323616546B9E71368191D11601D6894
:1043900062680021284600F03BF808B1401B6060CD
:1043A00063682361002384F84330A7E723692A4622
:1043B00039463046C0470130AAD023689B0713D442
:1043C000E068039B9842B8BF1846A3E701234A461A
:1043D00039463046C04701309AD00135E368039A28
:1043E0009B1AAB42F2DCEBE7002504F11909F5E773
:1043F000002BACD1037884F8423004F142056CE71D
:10440000E1490008F2490008000000000000000037
:1044100001F0FF01102A2BDB10F0070F08D010F875
:10442000013B013A8B422DD010F0070F42B3F6D179
:10443000F0B441EA012141EA014122F007047FF092
:1044400000070023F0E80256083C85EA010586EAE9
:10445000010685FA47F5A3FA87F586FA47F6A5FA25
:1044600087F68EB9EED1F0BC01F0FF0102F0070231
:1044700032B110F8013B013A83EA010313B1F8D1DC
:104480000020704701387047002D06BF35460338BD
:10449000073815F0010F07D1013015F4807F02BFF6
:1044A000013015F4C03F0130F0BC0138704700BF47
:1044B000884210B501EB020307D8421E99420AD088
:1044C00011F8014B02F8014FF8E78342F5D9811842
:1044D000D21AD34200D110BD13F8014D01F8014D9D
:1044E000F7E7000038B50546002945D051F8043CEF
:1044F0000C1F002BB8BFE41800F0D2F81F4A136855
:10450000104633B9636014602846BDE8384000F0B7
:10451000C8B8A3420CD921686218934204BF1A6834
:104520005B68636004BF521822600460ECE71346C6
:104530005A680AB1A242FAD919685818A0420BD198
:1045400020680144581882421960DDD11068526811
:104550005A6001441960D7E702D90C232B60D3E7D6
:10456000206821188A4204BF11685268626004BF43
:10457000091821605C60C7E738BD00BF543E0020C9
:1045800070B5CD1C25F0030508350C2D38BF0C2562
:10459000002D064601DBA94203D90C23336000201D
:1045A00070BD00F07DF8214A1468214691B9204C75
:1045B00023681BB9304600F063F820602946304676
:1045C00000F05EF8431C24D10C233360304600F029
:1045D00068F8E4E70B685B1B18D40B2B0FD90B6052
:1045E000CD50CC18304600F05CF804F10B00231DD0
:1045F00020F00700C31AD3D05A42E250D0E78C42D1
:104600004B6816BF636013600C46EBE70C464968C5
:10461000CCE7C41C24F00304A04205D0211A304684
:1046200000F02EF80130CFD02560DBE7543E0020AB
:10463000583E0020F8B5074614460E4621B91146EB
:10464000BDE8F840FFF79CBF22B9FFF74BFF2546B6
:104650002846F8BD00F026F8A0420FD22146384681
:10466000FFF78EFF05460028F2D031462246FFF7BD
:10467000ADFB31463846FFF735FFE9E73546E7E75A
:1046800038B5064C0023054608462360FEF742F97C
:10469000431C02D1236803B12B6038BD603E00206B
:1046A0007047704751F8043C181F002BBCBF0B58D3
:1046B000C01870472E2E2F73797374656D2F737227
:1046C000632F73746D333266342D68616C2F73748D
:1046D0006D3332663478785F68616C5F6164632E35
:1046E000630000002E2E2F73797374656D2F737223
:1046F000632F73746D333266342D68616C2F73745D
:104700006D3332663478785F68616C5F636F7274A2
:1047100065782E63000000002E2E2F737973746568
:104720006D2F7372632F73746D333266342D68612D
:104730006C2F73746D3332663478785F68616C5FA8
:10474000646D612E6300000000061016000610164E
:104750002E2E2F73797374656D2F7372632F73749C
:104760006D333266342D68616C2F73746D3332662D
:104770003478785F68616C5F6770696F2E630000E2
:1047800000000000010203040102030406070809F7
:104790002E2E2F73797374656D2F7372632F73745C
:1047A0006D333266342D68616C2F73746D333266ED
:1047B0003478785F68616C5F7263632E6300000019
:1047C0002E2E2F73797374656D2F7372632F73742C
:1047D0006D333266342D68616C2F73746D333266BD
:1047E0003478785F68616C5F74696D2E63000000D7
:1047F0002E2E2F73797374656D2F7372632F7374FC
:104800006D333266342D68616C2F73746D3332668C
:104810003478785F68616C5F74696D5F65782E636A
:1048200000000000537461636B206672616D653A2D
:104830000A000000205230203D2020253038580A40
:1048400000000000205231203D2020253038580A39
:1048500000000000205232203D2020253038580A28
:1048600000000000205233203D2020253038580A17
:104870000000000020523132203D20253038580AF7
:1048800000000000204C52203D2020253038580ADE
:1048900000000000205043203D2020253038580AD9
:1048A0000000000020505352203D20253038580A87
:1048B000000000004653522F4641523A0A000000C1
:1048C0002043465352203D2020253038580A00000E
:1048D0002048465352203D2020253038580A0000F9
:1048E0002044465352203D2020253038580A0000ED
:1048F0002041465352203D2020253038580A0000E0
:10490000204D4D464152203D20253038580A0000A8
:104910002042464152203D2020253038580A0000D0
:104920004D6973630A000000204C522F4558435FC5
:1049300052455455524E3D20253038580A0000004B
:104940005B486172644661756C745D0A000000002A
:104950005B4275734661756C745D0A005B557361EB
:1049600067654661756C745D0A0000000000000018
:10497000000000000102030406070809A04900081E
:104980009D2C0008000000000000000080000000D6
:104990002E2E2F7372632F6D61696E2E63000000DF
:1049A00064656661756C745461736B002E2E2F7391
:1049B00072632F73746D3332663478785F68616C1C
:1049C0005F6D73702E63000049444C450000000089
:1049D000232D302B2000686C4C00656667454647E8
:1049E000003031323334353637383941424344456B
:1049F00046003031323334353637383961626364DA
:034A0000656600E8
:104A04007856341284000020000000000024F400D2
:104A1400AAAAAAAA180000200000000000000000B2
:104A24000000000000000000000000000000000082
:104A34000000000000000000000000000000000072
:104A44000000000000000000000000000000000062
:104A54000000000000000000000000000000000052
:104A64000000000000000000000000000000000042
:0C4A7400000000000000000032547698A2
:040000050800019559
:00000001FF
