:020000040800F2
:1000000000000120C5020008DD400008DF400008B4
:10001000E1400008E3400008E5400008000000005F
:100020000000000000000000000000000144000883
:10003000E740000800000000A1440008E940000873
:10004000A9270008A9270008A9270008A927000850
:10005000A9270008A9270008A9270008A927000840
:10006000A9270008A9270008A9270008A927000830
:10007000A9270008A9270008A9270008A927000820
:10008000A9270008A9270008F14000080000000087
:10009000000000000000000000000000A927000888
:1000A000A927000801410008A9270008A92700087E
:1000B00011410008A9270008A9270008A92700085E
:1000C000A9270008A9270008A9270008A9270008D0
:1000D000A9270008A9270008A92700080000000098
:1000E000A9270008A9270008A92700080000000088
:1000F000000000000000000000000000A927000828
:1001000000000000A9270008A9270008A927000867
:1001100000000000000000000000000000000000DF
:1001200021410008A9270008A9270008A9270008DD
:10013000A9270008000000000000000000000000E7
:10014000000000000000000000000000A9270008D7
:10015000A9270008A9270008A9270008A92700083F
:10016000A9270008A92700080000000000000000DF
:10017000000000000000000000000000000000007F
:1001800000000000A9270008000000000000000097
:10019000A927000800B583B002F066FA384B394A47
:1001A0001360394A1360394900E02146384B9942BF
:1001B0000BD20A684B6801F10C0488689842F4D9A4
:1001C0001168196004330432F8E72E4B1A68314B7A
:1001D0009A4200D0FEE72C4B1A682F4B9A42F9D175
:1001E000274B2E4A13602E4A13602E4B05E0002049
:1001F000106004329342FAD80B462B4A934204D241
:10020000194651F8082B5B68F4E7244B1B6813B9B7
:10021000234B1B6803B1FEE702F038FA694601A8D8
:1002200002F0CEF9214C224BE41AA4100025AC4276
:1002300014DC204C204BE41AA4100025AC4213DC43
:100240000099019803F03EFE05461C4C1C4BE41A35
:10025000A410002C0EDC284602F08EF9144B53F843
:10026000253098470135E2E7134B53F8253098477E
:100270000135E3E7013C124B53F824309847E8E797
:10028000BABADECA000000207C000020F00300089B
:100290000804000878563412325476988000002002
:1002A000F4DF0020080400081804000818040008FF
:1002B00018040008180400081804000818040008AE
:1002C0001804000808B5FFF765FF00BEFEE71EF042
:1002D000040F0CBFEFF30880EFF309807146414A29
:1002E00010472DE9F04182B004468846124B5E6B00
:1002F0009F6B9D6A1B6B13F0020F03D00E4BDB6AE2
:10030000002B0CDB0D4802F063F9CDF800803B4672
:1003100032462946204602F0BDF900BEFEE74BF604
:10032000AB6102F031FA0028ECD0034B4FF00042F1
:10033000DA6202B0BDE8F08100ED00E080770008ED
:1003400000BEFEE71EF0040F0CBFEFF30880EFF3D2
:1003500009807146244A10472DE9F04182B00446D5
:100360008846084B5E6B9F6B9D6A074802F030F928
:10037000CDF800803B4632462946204602F08AF9F5
:1003800000BEFEE700ED00E0907700081EF0040FCD
:100390000CBFEFF30880EFF309807146134A104752
:1003A0002DE9F04182B004468846084B5E6B9F6B96
:1003B0009D6A074802F00CF9CDF800803B463246B2
:1003C0002946204602F066F900BEFEE700ED00E097
:1003D0009C77000800BEFEE700BEFEE700BEFEE719
:1003E00070470000E302000859030008A103000859
:1003F000AC1801080000002080000020AC180108A3
:10040000000000100000001080000020F8DF002035
:080410000000001000000010C4
:1004200008B50B4B1A6842F400721A601A6842F45D
:1004300080621A601A6842F480721A60032000F029
:1004400063FB002003F00EFE03F06DFD002008BDED
:10045000003C0240024A136801331360704700BF3A
:100460006C3E0020014B1868704700BF6C3E0020B6
:1004700010B50446514B5A6822F440325A605A680B
:1004800041680A435A600268536823F480735360DA
:1004900002685368016943EA0123536002685368A4
:1004A00023F0407353600268536881680B435360C4
:1004B0000268936823F40063936002689368C168DC
:1004C0000B439360826A3E4B9A425FD00268936806
:1004D00023F07063936002689368816A0B439360B2
:1004E0000268936823F04053936002689368C16A7E
:1004F0000B4393602268936823F0020393602268A1
:100500009368A16943EA41039360236A002B4ED0AC
:10051000636A013B072B44D82268536843F40063A5
:1005200053602268536823F460435360636A013B5D
:100530004FF4604292FAA2F2B2FA82F2934021683A
:100540004A6813434B602268D36A23F47003D36272
:100550002168CB6AE269013A43EA0253CB6222681E
:10056000936823F40073936022689368216B43EAD5
:10057000412393602268936823F480639360226828
:100580009368616943EA8123936010BD02689368B0
:1005900023F0706393600268936823F04053936084
:1005A000A8E740F20A61074803F0BCFCB4E7226800
:1005B000536823F400635360C5E700BF0023014084
:1005C0000100000FF4740008002800F0E38010B56B
:1005D00004460268704B9A4204D040F20D116F48F5
:1005E00003F0A0FC636843B1B3F5803F05D0B3F5D9
:1005F000003F02D0B3F5403F6FD1A36843B1B3F1E0
:10060000807F05D0B3F1007F02D0B3F1407F6AD183
:100610002369012B6DD8A369012B70D8A36A7BB322
:10062000B3F1807F2CD0B3F1007F29D0B3F1407FAC
:1006300026D0B3F1806F23D0B3F1A06F20D0B3F1F7
:10064000C06F1DD0B3F1E06F1AD0B3F1006F17D0B7
:10065000B3F1106F14D0B3F1206F11D0B3F1306F3C
:100660000ED0B3F1406F0BD0B3F1506F08D0B3F19F
:10067000606F05D0B3F1706F02D0494A934244D104
:10068000E36813B1B3F5006F45D1E369013B0F2B6C
:1006900047D8236B012B4AD86369022B4DD8236AB4
:1006A000012B50D8A26A3E4B9A420AD0E36A43B16A
:1006B000B3F1805F05D0B3F1005F02D0B3F1405FCA
:1006C00047D1236C002B4AD0236C13F0100F4DD070
:1006D0000120002384F83C3010BD4FF487712F486F
:1006E00003F020FC89E740F20F112C4803F01AFCBC
:1006F0008EE74FF48871294803F014FC8BE740F231
:100700001111264803F00EFC88E74FF48971234845
:1007100003F008FCB4E740F21311204803F002FC98
:10072000B3E74FF48A711D4803F0FCFBB1E740F2D8
:1007300015111A4803F0F6FBAEE74FF48B7117481A
:1007400003F0F0FBABE740F21711144803F0EAFBAB
:10075000A8E740F21B11114803F0E4FBB1E7636422
:1007600084F83C30204603F00DFCADE7236C23F405
:10077000885323F0020343F0020323642046FFF76B
:1007800077FE00206064236C23F0030343F0010331
:1007900023649EE70120704700200140F4740008A4
:1007A0000100000F7047704738B504468369012B7C
:1007B00000F29580E369013B0F2B00F2968063699C
:1007C000022B00F2988022681168536803F020031E
:1007D00011F0020F2DD063B3236C13F0100F03D16F
:1007E000236C43F400732364936813F0405F19D1C2
:1007F000A369BBB9D36A13F4700F03D0936813F4E1
:10080000806F0FD1536823F020035360236C23F4CF
:1008100080732364236C13F4805F03D1236C43F053
:1008200001032364204603F03DF923686FF01202B0
:100830001A60236819685A6802F0800211F0040FE8
:1008400036D0002A34D0226C12F0100F03D1226C63
:1008500042F4005222649A6812F4401F21D19A6B2C
:1008600012F4401F03D09A6812F4806F19D15A68AD
:1008700012F4806F15D19A6812F0405F11D1A2690D
:100880007AB95A6822F080025A60236C23F48053AC
:100890002364236C13F4807F03D1236C43F00103A2
:1008A0002364204600F02EF923686FF00C021A60D2
:1008B00022681168536803F0400311F0010F04D05F
:1008C0001BB1136813F0010F1BD122681168536824
:1008D00003F0806311F0200F00D0F3B938BD40F26F
:1008E0006931144803F01EFB64E740F26A31114895
:1008F00003F018FB63E740F26B310E4803F012FB84
:1009000061E7236C43F4803323642046FFF74AFFFA
:1009100023686FF001021A60D7E7636C43F00203AB
:1009200063646FF0200515602046FFF73CFF2368E5
:100930001D60D3E7F474000830B583B005460C465B
:10094000002301930B68122B4ED86368013B0F2BD9
:1009500050D8A368072B53D895F83C30012B00F0F2
:10096000C780012385F83C302368092B4ED92868BD
:10097000C2689BB203EB43031E3B072101FA03F35A
:1009800022EA0303C3602868C268A168238803EBD6
:1009900043031E3B01FA03F31343C3606368062B52
:1009A0004AD82868426B03EB8303053B1F2101FAF9
:1009B00003F322EA030343632868426B636803EB93
:1009C0008303053B218801FA03F3134343632A6839
:1009D000484B9A4260D02A68464B9A4265D0002024
:1009E00085F83C0003B030BD40F20451424803F0AA
:1009F00099FAAAE740F205513F4803F093FAA8E7B5
:100A000040F206513C4803F08DFAA5E728680269D8
:100A10009BB203EB4303072101FA03F322EA03032A
:100A2000036128680269A168238803EB430301FA84
:100A300003F313430361B1E70C2B16D82868026B4C
:100A400003EB8303233B1F2101FA03F322EA030391
:100A500003632868026B636803EB8303233B2188ED
:100A600001FA03F313430363B1E72868C26A03EB97
:100A70008303413B1F2101FA03F322EA0303C3620C
:100A80002868C26A636803EB8303413B218801FA4B
:100A900003F31343C3629AE72368122B9BD1174ACF
:100AA000536843F48003536095E72368103B012BA0
:100AB00095D8124A536843F4000353602368102BFF
:100AC0008DD10F4B1B6802F1467202F52E3202F2F5
:100AD0008332A2FB03239B0C03EB83035A00019296
:100AE00002E0019B013B0193019B002BF9D176E7CA
:100AF000022077E700200140F47400080023014041
:100B00000C0000207047000010B50446C31E042BE3
:100B10000FD80A4AD36823F4E0631B041B0C240299
:100B200004F4E064234343F0BF6343F40033D36031
:100B300010BDA421024803F0F5F9EAE700ED00E05A
:100B40002475000870B505460C4616460F2A25D8B0
:100B50000F2C28D81B4BDB68C3F30223C3F1070219
:100B6000042A28BF0422191D062921D9033B4FF06E
:100B7000FF3101FA02F224EA02049C4001FA03F375
:100B800026EA03063443002D14DB2401E4B205F108
:100B9000604505F5614585F8004370BDBC210A48F4
:100BA00003F0C0F9D4E7BD21074803F0BBF9D1E752
:100BB0000023DCE705F00F052401E4B2034B5C558C
:100BC000EBE700BF00ED00E02475000814ED00E045
:100BD00010B5041E08DB04F01F02640901239340D2
:100BE000044A42F8243010BDD021034803F09AF99A
:100BF000F1E700BF00E100E0247500080138B0F122
:100C0000807F0AD2064B5860064AF02182F82310F2
:100C10000020986007221A6070470120704700BFCB
:100C200010E000E000ED00E010B50446042800D01C
:100C300038B9042C0BD0094A136823F0040313605D
:100C400010BD40F2B311064803F06CF9F1E7034A16
:100C5000136843F004031360F2E700BF10E000E004
:100C6000247500080268D3B2103B0B49A1FB0313A3
:100C70001B090A49C95CC165032B06D822F47F729F
:100C800022F003028265806D704722F47F7222F0A9
:100C9000030204328265F6E7ABAAAAAA88750008A7
:100CA000836A8269C2B9012B0AD01BB1022B0DD015
:100CB00000207047C36A13F0807F32D10020704754
:100CC000C36AB3F1C07F2ED000207047C36A13F00F
:100CD000807F2AD100207047B2F5005F05D0022B3B
:100CE0002BD9032B15D000207047032B03D8DFE846
:100CF00003F01E041E0A00207047C36A13F0807FB1
:100D000017D100207047C36AB3F1C07F13D0002011
:100D10007047C36A13F0807F01D001207047002024
:100D20007047012070470120704701207047012063
:100D30007047012070470120704701207047000074
:100D400070B50446FFF78EFB002C00F03681054697
:100D500023689B4A934231D0183293422ED01832E6
:100D600093422BD01832934228D01832934225D088
:100D70001832934222D0183293421FD01832934235
:100D80001CD002F55672934218D01832934215D0F7
:100D90001832934212D0183293420FD01832934235
:100DA0000CD01832934209D01832934206D0183230
:100DB000934203D0C921834803F0B4F86368A3B118
:100DC000B3F1007F11D0B3F1806F0ED0B3F1C06FDB
:100DD0000BD0B3F1006F08D0B3F1206F05D0B3F1A1
:100DE000406F02D0B3F1606F6DD1A3681BB1402B8F
:100DF00001D0802B6CD1E368B3F5007F01D0002BCC
:100E00006BD12369B3F5806F01D0002B6AD1636980
:100E10002BB1B3F5006F02D0B3F5805F67D1A36942
:100E20002BB1B3F5005F02D0B3F5804F64D1E36915
:100E300023B1B3F5807F01D0202B62D1236A43B167
:100E4000B3F5803F05D0B3F5003F02D0B3F5403F86
:100E50005CD1636A0BB1042B5DD1636AC3B1A36A31
:100E6000032B5DD8E36A43B1B3F5000F05D0B3F1AE
:100E7000807F02D0B3F1C07F57D1236B43B1B3F56C
:100E8000001F05D0B3F5800F02D0B3F5C00F51D1CC
:100E9000002384F83430022384F835302268136844
:100EA00023F00103136023681A6812F0010F46D083
:100EB000FFF7D8FA401B0528F5D9202363650320E6
:100EC00084F8350070BDCA213E4803F02BF88CE74A
:100ED000CB213C4803F026F88DE7CC21394803F0BC
:100EE00021F88EE7CD21374803F01CF88FE7CE219B
:100EF000344803F017F892E7CF21324803F012F894
:100F000095E7D0212F4803F00DF897E7D1212D4820
:100F100003F008F89DE7D2212A4803F003F89CE784
:100F2000D721284802F0FEFF9CE7D821254802F08F
:100F3000F9FFA2E7D921234802F0F4FFA8E71A68D5
:100F4000214810406168A2680A43E1680A432169A8
:100F50000A4361690A43A1690A43E1690A43216AB4
:100F60000A430243616A04291CD01A602668756925
:100F700025F00705636A1D43042B05D1A36A1D43B1
:100F80002046FFF78DFE90B975612046FFF76AFE97
:100F9000E26D3F239340836000206065012384F865
:100FA00035308FE7E16A206B01430A43DDE74023D8
:100FB0006365012084F8350084E7012082E700BFE3
:100FC00010600240587500083F8010F0F0B583B003
:100FD000044600230193724B1D68724BA3FB053539
:100FE000AD0A876D3E68C26D08239340334210D02E
:100FF00003681A6812F0040F0BD01A6822F004027A
:101000001A60C26D08239340BB60436D43F0010337
:101010004365E26D644B9340334209D022685269C4
:1010200012F0800F04D0BB60636D43F00203636570
:10103000E26D5E4B9340334209D02268126812F091
:10104000020F04D0BB60636D43F004036365E26D7F
:1010500010239340334224D02268126812F0080F04
:101060001FD0BB6023681A6812F4802F0DD01B6854
:1010700013F4002F04D1236C9BB12046984710E055
:10108000A36C73B1204698470BE01A6812F4807F76
:1010900003D11A6822F008021A60236C0BB12046B3
:1010A0009847E26D20239340334255D0226812685E
:1010B00012F0100F50D0BB6094F83530DBB2052B26
:1010C0000ED023681A6812F4802F33D01B6813F4F3
:1010D000002F2AD1636C002B3ED0204698473BE07E
:1010E0002268136823F0160313602268536923F003
:1010F00080035361236CA3B12268136823F00803B3
:101100001360E26D3F239340BB60002384F83430CA
:10111000012384F83530236D002B3FD020469847BB
:101120003CE0A36C002BE7D1EBE7E36BA3B12046D7
:10113000984711E01A6812F4807F09D11A6822F0EA
:1011400010021A60002384F83430012384F835300B
:10115000E36B0BB120469847636DFBB1636D13F0F1
:10116000010F17D0052384F835302268136823F067
:1011700001031360019B01330193AB4204D8236840
:101180001B6813F0010FF5D1002384F834300123DC
:1011900084F83530E36C0BB12046984703B0F0BDBE
:1011A0000C000020B5814E1B01008000040080006F
:1011B0002DE9F04782B080460E46A24B984217D0E8
:1011C00003F58063984213D003F5806398420FD0F3
:1011D00003F5806398420BD003F58063984207D0F3
:1011E00003F54063984203D0C521974802F09AFE68
:1011F000338833B37368012B1ED9112B1CD0022BFB
:101200001AD0122B18D0914A934215D002F58012B1
:10121000934211D002F5801293420DD0A2F5F8123C
:10122000934209D002F58012934205D002F5801254
:10123000934201D0032B09D1B368022B0BD80024B1
:101240004AE0C621804802F06DFED3E7C7217E4800
:1012500002F068FEF0E7C8217B4802F063FEEEE78B
:10126000EC21794802F05EFE90E0042300E00023C8
:101270008B4003430232764941F82230754B1A689D
:10128000FB4303EA0201706810F4803F01D047EA93
:101290000201704A1160526803EA0201706810F49A
:1012A000003F01D047EA02016A4A5160926803EAAE
:1012B0000201706810F4801F01D047EA0201654AFC
:1012C0009160D2681340716811F4001F01D047EAA1
:1012D0000203604AD36001340F2C00F2B080012574
:1012E000A54037682F40BD42F5D17368022B01D06D
:1012F000122B2BD13369CBB1092B17D0012B15D071
:10130000022B13D0042B11D0052B0FD0062B0DD0A0
:10131000072B0BD0082B09D00A2B07D00C2B05D09C
:101320000F2B03D0D921484802F0FCFDE208083217
:1013300058F8220004F0070399000F238B4020EA9D
:10134000030033698B40034348F82230D8F800206B
:101350004FEA440A4FF0030909FA0AF96FEA09094A
:1013600009EA0202736803F0030303FA0AF3134362
:10137000C8F8003073685A1E012A03D9112B01D016
:10138000122B18D1F368032B3FF66AAFD8F8082068
:1013900009EA0202F36803FA0AF31343C8F80830B3
:1013A000D8F8042022EA05027368C3F30015A540AB
:1013B0001543C8F80450D8F80C3009EA0309B3689B
:1013C00003FA0AF343EA0903C8F80C30736813F010
:1013D000805F80D0002301931F4B5A6C42F48042FF
:1013E0005A645B6C03F480430193019BA208911C37
:1013F000174B53F8210004F0030399000F238B408F
:1014000020EA03000F4B98453FF431AF03F58063AA
:1014100098450ED003F5806398450CD003F58063A2
:1014200098450AD003F5806398453FF41EAF052325
:101430001EE701231CE702231AE7032318E702B083
:10144000BDE8F08700000240907500080000111010
:1014500000380140003C01400038024030B583B004
:10146000044603680F2B29D8236813F0010F3DD0E1
:101470006368012B01D9052B25D1A34B9B6803F091
:101480000C03042B29D0A04B9B6803F00C03082B02
:101490001ED022799D4B1A706368002B50D0FEF746
:1014A000E1FF0546984B1B6813F4003F1ED1FEF781
:1014B000D9FF401B6428F5D90320E3E1F5219448C6
:1014C00002F030FDD0E7FA21914802F02BFDD4E77D
:1014D0008D4B5B6813F4800FDBD08B4B1B6813F4D0
:1014E000003F03D06368002B00F0C981236813F02C
:1014F000020F5DD0E368012B31D823691F2B34D84C
:10150000814B9B6813F00C0F3AD07F4B9B6803F024
:101510000C03082B2FD0E368002B74D07D4B0122E5
:101520001A60FEF79FFF0546774B1B6813F0020F0A
:101530005AD1FEF797FF401B0228F5D90320A1E1FD
:10154000FEF790FF0546704B1B6813F4003FCDD0AB
:10155000FEF788FF401B6428F5D9032092E14FF481
:1015600096716B4802F0DEFCC7E740F22D11684827
:1015700002F0D8FCC4E7644B5B6813F4800FCAD157
:10158000614B1B6813F0020F04D0E368012B01D0FC
:10159000012077E15C48036823F0F8032169F82211
:1015A00092FAA2F2B2FA82F201FA02F21343036053
:1015B000236813F0080F50D06369012B35D8636995
:1015C000002B38D0544B01221A60FEF74BFF054622
:1015D0004D4B5B6F13F0020F3FD1FEF743FF401BF3
:1015E0000228F5D903204DE14748036823F0F803AA
:1015F0002169F82292FAA2F2B2FA82F201FA02F218
:1016000013430360D4E7434B00221A60FEF72AFF1E
:1016100005463D4B1B6813F0020FC9D0FEF722FFB1
:10162000401B0228F5D903202CE140F26D11384807
:1016300002F078FCC3E7384B00221A60FEF712FF75
:101640000546314B5B6F13F0020F06D0FEF70AFF21
:10165000401B0228F5D9032014E1236813F0040F7E
:1016600060D0A368012B01D9052B1FD10023019362
:10167000254B1A6C42F080521A641B6C03F08053A5
:101680000193019B254A136843F480731360FEF7AE
:10169000E9FE0546214B1B6813F4807F0CD1FEF751
:1016A000E1FE401B0228F5D90320EBE040F2971140
:1016B000174802F037FCD9E7227A194B1A70A36851
:1016C00083B1FEF7CFFE05460F4B1B6F13F0020FE1
:1016D00028D1FEF7C7FE401B41F288339842F3D968
:1016E0000320CFE0FEF7BEFE0546074B1B6F13F04D
:1016F000020F17D0FEF7B6FE401B41F28833984226
:10170000F3D90320BEE000BF003802400238024097
:10171000D075000800004742800E4742007000402C
:1017200070380240A369022B39D8A369002B00F05E
:10173000A880564A926802F00C02082A00F0A480A1
:10174000022B40F08880E36913B1B3F5800F2CD1F0
:10175000236A3F2B2FD8636A323BB3F5BF7F30D863
:10176000A36A022B05D0042B03D0062B01D0082B33
:101770002DD1E36A043B0B2B2FD8454B00221A6076
:10178000FEF770FE0546414B1B6813F0007F2AD020
:10179000FEF768FE401B0228F5D9032072E04FF4E3
:1017A000E6713C4802F0BEFBBFE740F2D511394874
:1017B00002F0B8FBCCE74FF4EB71364802F0B2FB15
:1017C000C9E740F2D711334802F0ACFBC8E74FF449
:1017D000EC71304802F0A6FBCBE740F2D9112D485E
:1017E00002F0A0FBC9E7E369226A1343616A47F686
:1017F000C07292FAA2F2B2FA82F201FA02F2134332
:10180000A26A5208013A4FF4403191FAA1F1B1FABB
:1018100081F18A401343E16A4FF0706292FAA2F2BA
:10182000B2FA82F201FA02F21343184A5360184BDB
:1018300001221A60FEF716FE0446144B1B6813F0D3
:10184000007F06D1FEF70EFE001B0228F5D903200B
:1018500018E0002016E00E4B00221A60FEF702FE90
:1018600004460A4B1B6813F0007F06D0FEF7FAFD12
:10187000001B0228F5D9032004E0002002E001202B
:1018800000E0002003B030BD0120FBE7003802403B
:1018900060004742D0750008214B9B6803F00C03A1
:1018A000042B3AD0082B01D01E4870471C4B5868B7
:1018B00000F03F005B6813F4800F1ED01A4AB2FBA1
:1018C000F0F2174B586847F6C073184093FAA3F329
:1018D000B3FA83F3D84000FB02F0114B5B6803F4CA
:1018E00040334FF4403292FAA2F2B2FA82F2D3407D
:1018F00001335B00B0FBF3F070470A4AB2FBF0F231
:10190000074B586847F6C073184093FAA3F3B3FA2D
:1019100083F3D84000FB02F0DFE70348704700BFC5
:10192000003802400024F40000BD010570B50446F3
:101930000D460368013B0E2B11D8072D15D88C4B93
:101940001B6803F00F03AB4215D2EBB2884A137049
:10195000136803F00F03AB420DD0012070BD40F2BD
:101960003721844802F0DEFAE7E74FF40E71814830
:1019700002F0D8FAE3E7236813F0020F18D0A36847
:101980007BB1802B0DD0902B0BD0A02B09D0B02B8E
:1019900007D0C02B05D0D02B03D0E02B01D0F02BEB
:1019A00037D1754A936823F0F003A1680B43936025
:1019B000236813F0010F73D06368032B2FD863687B
:1019C000012B32D09A1E012A36D96B4A126812F0C6
:1019D000020F00F0CA8068498A6822F003021343AC
:1019E0008B60FEF73FFD06466368012B2BD0022B70
:1019F00038D0032B45D0604B9B6813F00C0F4FD0B1
:101A0000FEF730FD801B41F288339842F3D9032062
:101A1000A4E740F24F21574802F084FAC1E740F2B0
:101A20005621544802F07EFAC9E7534A126812F46C
:101A3000003FD0D1012091E74F4A126812F0007F99
:101A4000C9D101208AE74C4B9B6803F00C03042B9F
:101A500026D0FEF707FD801B41F288339842F2D969
:101A600003207BE7444B9B6803F00C03082B17D043
:101A7000FEF7F8FC801B41F288339842F2D903202C
:101A80006CE73D4B9B6803F00C030C2B08D0FEF772
:101A9000E9FC801B41F288339842F2D903205DE7CC
:101AA000334B1B6803F00F03AB4209D9EAB2304B4A
:101AB0001A701B6803F00F03AB4201D001204DE701
:101AC000236813F0040F14D0E3685BB1B3F5805FB3
:101AD00008D0B3F5A05F05D0B3F5C05F02D0B3F571
:101AE000E05F36D1244A936823F4E053E1680B4366
:101AF0009360236813F0080F15D023695BB1B3F529
:101B0000805F08D0B3F5A05F05D0B3F5C05F02D009
:101B1000B3F5E05F23D1184A936823F46043216949
:101B200043EAC1039360FFF7B7FE134B9B6803F0D2
:101B3000F003F02292FAA2F2B2FA82F2D3400F4AF4
:101B4000D35CD8400E4B1860002002F08BFA0020C6
:101B500004E74FF42D71074802F0E4F9C2E740F2C0
:101B6000BB21044802F0DEF9D5E70120F6E600BF0C
:101B7000003C0240D075000800380240C0750008E3
:101B80000C000020014B1868704700BF0C000020BB
:101B900008B5FFF7F7FF074B9B6803F460434FF46A
:101BA000604292FAA2F2B2FA82F2D340024AD35CC5
:101BB000D84008BD00380240C07500080F230360FC
:101BC0000B4B9A6802F0030242609A6802F0F0023E
:101BD00082609A6802F4E052C2609B68DB0803F4FA
:101BE000E0530361034B1B6803F00F030B60704766
:101BF00000380240003C024010B4036A046A24F03A
:101C000001040462846924F0F00444EA021223F01F
:101C10000A030B43826103625DF8044B704710B402
:101C2000036A23F0100303628469036A24F4704496
:101C300044EA023223F0A00343EA01138261036203
:101C40005DF8044B7047836823F0700341F007018F
:101C500019438160704710B4846824F47F4442EAD9
:101C600003230B43234383605DF8044B704700005C
:101C700010B504460368174A93421FD0B3F1804F52
:101C80001CD0A2F57C42934218D002F580629342A8
:101C900014D002F58062934210D002F59A3293423A
:101CA0000CD002F58062934208D002F58062934224
:101CB00004D04FF4B271084802F034F92268D368B6
:101CC00043F00103D3602268136843F001031360FB
:101CD000002010BD000001400076000838B590F8E3
:101CE0003830012B00F070820D460446012380F845
:101CF0003830022380F839300B68B3F5805F11D09B
:101D0000B3F5005F0ED06BB1102B0BD0202B09D098
:101D1000302B07D0402B05D0502B03D0602B01D0A7
:101D2000702B4AD12268936823F47F4323F0770312
:101D300093602B68402B00F0BF8144D9702B00F0DA
:101D4000058100F28F80502B00F06481602B40F001
:101D5000F6802368AD4A934217D0B3F1804F14D078
:101D6000A2F57C42934210D002F5806293420CD0DF
:101D700002F58062934208D002F59A32934204D071
:101D800040F6BA71A24802F0CDF86B68B3F5004F87
:101D900005D023B1022B02D00A2B40F08181EB68E1
:101DA0000F2B00F28381EA6869682068FFF737FF2C
:101DB00060212068FFF747FFC1E040F66D7194484D
:101DC00002F0B0F8AEE7102B00F0BC8126D9202B32
:101DD00000F0D981302B40F0B28023688B4A9342C7
:101DE00017D0B3F1804F14D0A2F57C42934210D0AB
:101DF00002F5806293420CD002F58062934208D0D3
:101E000002F59A32934204D040F6E871804802F01D
:101E100089F830212068FFF716FF90E0002B40F092
:101E20008E802368794A934217D0B3F1804F14D043
:101E3000A2F57C42934210D002F5806293420CD00E
:101E400002F58062934208D002F59A32934204D0A0
:101E500040F6D6716E4802F065F800212068FFF761
:101E6000F2FE6CE0B3F5805F40D0B3F5005F66D161
:101E70002368664A934213D0B3F1804F10D0A2F585
:101E80007C4293420CD002F58062934208D002F566
:101E90008062934204D040F69A715D4802F042F8A5
:101EA0006B68B3F5004F05D023B1022B02D00A2B8B
:101EB00040F09980AB684BB1B3F5805F06D0B3F5C5
:101EC000005F03D0B3F5405F40F09380EB680F2BC9
:101ED00000F29580EB686A68A9682068FFF7BBFE8E
:101EE0002268936843F48043936028E02368474A5C
:101EF00093421FD0B3F1804F1CD0A2F57C42934295
:101F000018D002F58062934214D002F580629342A9
:101F100010D002F59A3293420CD002F580629342BF
:101F200008D002F58062934204D040F679713848B7
:101F300001F0F8FF2268936823F007039360012300
:101F400084F83930002084F8380038BD23682F4ADF
:101F5000934213D0B3F1804F10D0A2F57C4293424C
:101F60000CD002F58062934208D002F58062934261
:101F700004D040F68271264801F0D4FF6B68B3F5B7
:101F8000004F04D01BB1022B01D00A2B19D1AB6832
:101F900043B1B3F5805F05D0B3F5005F02D0B3F570
:101FA000405F14D1EB680F2B17D8EB686A68A968FB
:101FB0002068FFF750FE2268936843F07703936030
:101FC000BDE740F68471124801F0ACFFDFE740F650
:101FD00085710F4801F0A6FFE4E740F686710C48D2
:101FE00001F0A0FFE1E740F69C71094801F09AFF7B
:101FF00060E740F69D71064801F094FF66E740F601
:102000009E71034801F08EFF64E700BF00000140AD
:102010000076000823686D4A93421FD0B3F1804FC9
:102020001CD0A2F57C42934218D002F58062934204
:1020300014D002F58062934210D002F59A32934296
:102040000CD002F58062934208D002F58062934280
:1020500004D040F6AC715E4801F064FF6B68B3F5E4
:10206000004F04D01BB1022B01D00A2B0CD1EB681E
:102070000F2B0FD8EA6869682068FFF7BDFD502173
:102080002068FFF7E0FD5AE740F6AF71504801F0D5
:1020900049FFECE74FF47B614D4801F043FFE9E76E
:1020A00040F6BD714A4801F03DFF78E640F6BE714A
:1020B000474801F037FF76E62368444A93421FD031
:1020C000B3F1804F1CD0A2F57C42934218D002F5A8
:1020D0008062934214D002F58062934210D002F5E0
:1020E0009A3293420CD002F58062934208D002F5F6
:1020F0008062934204D040F6C871354801F012FF67
:102100006B68B3F5004F04D01BB1022B01D00A2B32
:102110000CD1EB680F2B0FD8EA6869682068FFF7CD
:102120006BFD40212068FFF78EFD08E740F6CB717C
:10213000274801F0F7FEECE740F6CC71244801F0A7
:10214000F1FEE9E72368214A934217D0B3F1804FAB
:1021500014D0A2F57C42934210D002F580629342E3
:102160000CD002F58062934208D002F59A32934275
:1021700004D040F6DC71164801F0D4FE102120682E
:10218000FFF761FDDBE62368104A934217D0B3F1F5
:10219000804F14D0A2F57C42934210D002F58062A9
:1021A00093420CD002F58062934208D002F59A3235
:1021B000934204D040F6E271054801F0B3FE2021BD
:1021C0002068FFF740FDBAE60220BEE600000140AD
:1021D00000760008704770477047704710B5044696
:1021E00003681A6912F0020F11D0DA6812F0020FB8
:1021F0000DD06FF002021A610123037603689B6918
:1022000013F0030F70D0FFF7E6FF00232376236857
:102210001A6912F0040F12D0DA6812F0040F0ED00F
:102220006FF004021A610223237623689B6913F47A
:10223000407F5FD02046FFF7CEFF00232376236840
:102240001A6912F0080F12D0DA6812F0080F0ED0D7
:102250006FF008021A61042323762368DB6913F008
:10226000030F4ED02046FFF7B6FF002323762368E6
:102270001A6912F0100F12D0DA6812F0100F0ED097
:102280006FF010021A61082323762368DB6913F4C8
:10229000407F3DD02046FFF79EFF00232376236832
:1022A0001A6912F0010F03D0DA6812F0010F36D16B
:1022B00023681A6912F0800F03D0DA6812F0800FD9
:1022C00034D123681A6912F0400F03D0DA6812F093
:1022D000400F32D123681A6912F0200F03D0DA6858
:1022E00012F0200F30D110BDFFF774FF2046FFF72A
:1022F00073FF8AE72046FFF76DFF2046FFF76CFF6C
:102300009BE72046FFF766FF2046FFF765FFACE737
:102310002046FFF75FFF2046FFF75EFFBDE76FF047
:1023200001021A61204601F0ABFBC1E76FF08002A9
:102330001A61204600F01FF9C3E76FF040021A61EE
:102340002046FFF74AFFC5E76FF020021A612046DA
:1023500000F010F9C7E700000368234A90420ED04E
:10236000B0F1804F0BD0A2F57C42904207D002F52D
:102370008062904203D002F58062904203D123F044
:1023800070034A681343184A90421AD0B0F1804F44
:1023900017D0A2F57C42904213D002F580629042A1
:1023A0000FD002F5806290420BD002F59A32904233
:1023B00007D002F58062904203D002F5806290421D
:1023C00003D123F44073CA68134303608B68C3626C
:1023D0000B688362044B984202D00123436170472B
:1023E0000B690363F9E700BF00000140002855D0E6
:1023F00010B5044603682A4A93421ED0B3F1804FB9
:102400001BD0A2F57C42934217D002F58062934222
:1024100013D002F5806293420FD002F59A329342B4
:102420000BD002F58062934207D002F5806293429E
:1024300003D0D9211B4801F075FDA3683BB1102BD7
:1024400005D0202B03D0402B01D0602B16D123695F
:102450002BB1B3F5807F02D0B3F5007F13D194F890
:102460003930ABB1022384F83930211D2068FFF7E1
:1024700073FF012384F83930002010BDDA210948A8
:1024800001F050FDE3E7DB21064801F04BFDE6E7F4
:1024900084F83830204601F0C7FDE3E7012070479B
:1024A000000001400076000838B504460D46036878
:1024B0002E4A934213D0B3F1804F10D0A2F57C4244
:1024C00093420CD002F58062934208D002F58062FC
:1024D000934204D04FF4CB61254801F023FD2B68D3
:1024E0006BB1102B0BD0202B09D0302B07D0402BF9
:1024F00005D0502B03D0602B01D0702B27D16B68F7
:10250000802B00D04BBB94F83830012B2BD001220C
:1025100084F83820022384F8393021684B6823F08E
:1025200070034B6021684B68286803434B60216847
:102530008B6823F080038B6021688B686868034395
:102540008B6084F83920002084F8380038BD40F2D0
:102550005961074801F0E6FCD1E740F25A610448AE
:1025600001F0E0FCCFE70220F0E700BF00000140EF
:102570003076000870477047FEE7000008B5034654
:102580000C4A12685AB10B4A1068033323F0030354
:102590000344094A934206D8064A136008BD054A17
:1025A00006491160EFE704F095FA0C2303604FF041
:1025B000FF30F3E78400002000FC0020F8DF00205B
:1025C00001230360014B0B60704700BF0400002033
:1025D0000FB400B583B004AB53F8042B01938021F2
:1025E000064804F027FB002803DD0146034800F0FD
:1025F00037F803B05DF804EB04B070478C0000209E
:102600002DE9F04385B004460F4643560BB10E4604
:102610001EE0042528462146ABBE0446384605B0D8
:10262000BDE8F08314F9011B04AA1A4402F8101C37
:102630000133AB42F6D304AA1344002203F8102C52
:102640004FF00408E94640464946ABBE8046761B3B
:10265000002EE3D03546102E28BF10250023E8E7D2
:1026600008B5FFF7CDFF08BD08B500F09FF8054B92
:10267000054A9A60D3F8882042F47002C3F8882093
:1026800008BD00BF00ED00E00000000808B500F044
:10269000B3F808BDF8B504460D4617461E46274850
:1026A000FFF796FF21682648FFF792FF61682548EB
:1026B000FFF78EFFA1682448FFF78AFFE1682348EF
:1026C000FFF786FF21692248FFF782FF61692148F1
:1026D000FFF77EFFA1692048FFF77AFFE1691F48F5
:1026E000FFF776FF1E48FFF773FF29461D48FFF7E7
:1026F0006FFF1D4CE16A1D48FFF76AFF216B1C4804
:10270000FFF766FFE16B1B48FFF762FF15F0800FD4
:102710000AD115F4004F0CD11748FFF759FF06995D
:102720001648FFF755FFF8BD39461548FFF750FF2B
:10273000EFE731461348FFF74BFFEDE764760008FB
:10274000747600088476000894760008A476000861
:10275000B4760008C4760008D4760008E476000851
:10276000F47600080077000800ED00E0107700081C
:102770002077000830770008607700086877000845
:10278000407700085077000883691A888A4201D090
:10279000002070470268033A012A03D8023383619C
:1027A0000120704700207047FEE700000F49D1F874
:1027B000883043F47003C1F888300D4B1A6842F03A
:1027C00001021A60002098601A6822F0847222F4D4
:1027D00080321A60074A5A601A6822F480221A600E
:1027E000D8604FF000638B60704700BF00ED00E0E1
:1027F0000038024010300024224B9B6803F00C0389
:10280000042B14D0082B16D01BB11F4B1F4A1A6083
:1028100002E01D4B1D4A1A601A4B9B68C3F3031359
:102820001B4AD15C184A1368CB4013607047164BA3
:10283000184A1A60F0E7134B5A685B6803F03F03CD
:1028400012F4800F13D0134AB2FBF3F20D4B5B6806
:10285000C3F3881303FB02F30A4A5268C2F301422E
:1028600001325200B3FBF2F3074A1360D4E7074A80
:10287000B2FBF3F2034B5B68C3F3881303FB02F371
:10288000EAE700BF003802400C0000200024F400FA
:10289000AC77000800BD01054B1C012B98BF7047A9
:1028A0002DE9F003911C9B08B1F80480B1F8029067
:1028B0000A8831F802CC8044814402448444D9F827
:1028C0000070D8F800601568DCF80040C9F80060B6
:1028D000C8F80070CCF800501460D9F80470D8F82B
:1028E00004605568DCF80440C9F80460C8F8047056
:1028F000CCF8045054600831013BD5D1BDE8F00359
:1029000070474B1C012B98BF70472DE9F003911CB9
:102910009B08B1F80480B1F802900A8831F802CC23
:1029200000EB580800EB590900EB520200EB5C0C7D
:10293000D9F80070D8F800601568DCF80040C9F8D4
:102940000060C8F80070CCF8005014600831013BFA
:10295000DFD1BDE8F00370472DE9F84F04460F467C
:1029600016464D08002135E0880036F921A00230D6
:10297000335E01EB050834F9212052104FEA880C30
:1029800034F928E04FEA6E0EA2EB0E0972445210A1
:1029900024F82120225E4FEA620B0CF1020C34F97C
:1029A0000C205210ABEB020E5A44521022520AFB7A
:1029B00009F003FB0EF2120C02EB104224F828205F
:1029C0000EFB0AFE03FB09F31B0CC3EB1E4324F8AA
:1029D0000C300131A942C7D3022332462946204692
:1029E00000F0EEF802233246294604EB470000F0DF
:1029F000E7F8002218E0D30034F9327003F1020E38
:102A000034F90E6003F1040C34F90C000633E15E76
:102A10007F0076004000490024F8327024F80E60F0
:102A200024F80C00E1520132AA42E4D3BDE8F88F49
:102A30002DE9F84F04460F4616464D08002135E0B3
:102A4000880036F921A00230335E01EB050834F925
:102A5000212052104FEA880C34F928E04FEA6E0E1C
:102A6000A2EB0E097244521024F82120225E4FEA94
:102A7000620B0CF1020C34F90C205210ABEB020E7D
:102A80005A44521022520AFB09F003FB0EF2120CB8
:102A9000C2EB104224F828200EFB0AFE03FB09F3C8
:102AA0001B0C03EB1E4324F80C300131A942C7D3A1
:102AB000022332462946204600F0E3FA022332463A
:102AC000294604EB470000F0DCFA002218E0D300AE
:102AD00034F9327003F1020E34F90E6003F1040C84
:102AE00034F90C000633E15E7F00760040004900B7
:102AF00024F8327024F80E6024F80C00E152013200
:102B0000AA42E4D3BDE8F88F70B504460D461E46D0
:102B10000188012A0FD0B1F5807F35D03BD820291C
:102B200004D02FD940292FD0802932D1626828467D
:102B3000FFF712FF2DE0B1F5807F0ED013D82029CA
:102B400004D008D9402908D0802922D162682846BB
:102B5000FFF76EFF1DE010291BD101236268284694
:102B600000F08FFA15E0B1F5806FF6D006D9B1F517
:102B7000006FEBD0B1F5805F0BD1EEE7B1F5007FD0
:102B8000E4D006E0102904D101236268284600F051
:102B900017F87EB970BDB1F5806FF5D006D9B1F5E3
:102BA000006FC3D0B1F5805FF3D1EDE7B1F5007FE1
:102BB000BCD0EEE7A268A1892846FFF7A2FEE9E7AC
:102BC0002DE9F04F95B083460691119207938B083B
:102BD0000D9312934FF00009CE4601920D9B09EB25
:102BE00003069F1903EB070A4FEA890C3BF92900FA
:102BF00080100CF1020C3BF90C108910BB003BF962
:102C000027804FEAA808023305933BF90350AD1023
:102C100000EB080303F30F031BB24A1902F30F0280
:102C200012B2A0EB080000F30F0000B20390491BA2
:102C300001F30F0109B20491B5003BF926100C46CF
:102C400002353BF905804FEA8A013BF92A008010E2
:102C5000023102913BF90110891000EBA40000F34E
:102C60000F0000B201EBA80101F30F0109B24FEA16
:102C7000600808EB63082BF829804FEA610808EB2D
:102C800062082BF80C801B1A03F30F031BB2521AB5
:102C900002F30F0212B24FEACE010198044630F956
:102CA0003EC00231405E02FB00F103FB0C1109142F
:102CB00002FB0CF200FB13231B143BF926003BF92B
:102CC00005202BF826102BF805303BF92A10891027
:102CD000029B3BF903309B10C1EBA00101F30F01F4
:102CE00009B2C3EBA20303F30F031BB2039EF21A54
:102CF00002F30F0212B2049D2846084400F30F00AD
:102D000000B2334403F30F031BB2691A01F30F013E
:102D100009B24FEA8E0534F92E60023534F905C048
:102D200003FB06F501FB0C552D1406FB01F10CFB12
:102D300013131B142BF82750059D2BF805300EEBB1
:102D40004E018B00E15E0233E55E02FB01F300FB06
:102D500005331B1401FB00F005FB120212142BF8C3
:102D60002A30029B2BF80320079B9E4409F101099E
:102D7000129B013B12937FF431AF079B9B00109392
:102D8000069B9B081393E2E0059B09EB030603EB0C
:102D9000060C03EB0C074FEA89083EF9290008F1FD
:102DA00002083EF908104FEA8C033EF92C5002331A
:102DB00002933EF90340431903F30F030A1902F388
:102DC0000F02401B00F30F000390091B01F30F01DA
:102DD0000491B5003EF9261002353EF90500BC000D
:102DE0003EF927B0023401943EF904A0594401F39E
:102DF0000F01504400F30F0043F34E031BB241F3A5
:102E00004E0109B203EB010A4FEA6A0A42F34E028D
:102E100012B240F34E0000B202EB000B4FEA6B0B14
:102E20002EF829A02EF808B05B1A1BB2121A12B2A3
:102E30000A9C02FB04F8099803FB00884FEA284823
:102E400002FB00F204FB13231B143EF926203EF97B
:102E500005102EF826802EF805303EF92700019C3B
:102E60003EF90430121A02F30F02C91A01F30F01DE
:102E7000039840F34E039BB241F34E0189B25D1AB1
:102E80002DB2049840F34E0080B242F34E0292B24B
:102E9000861836B20B441BB2821A12B2089902FB92
:102EA00001F8079803FB00884FEA284802FB00F26C
:102EB00001FB132212142EF82C80029B2EF8032003
:102EC0000B9A134605FB03F30C9906FB01331B1405
:102ED00002FB06F601FB156636142EF82730019B1F
:102EE0002EF803600D9B9944069B9945FFF44CAF67
:102EF0000E9B01330E93059B013B0E9A93421DD30B
:102F00000F998B00119830F9212007920233C35E8C
:102F10000893CB0030F9312009920233C35E0A9343
:102F200001EB41029300C25E0B920233C35E0C932D
:102F3000109BCB180F93DDF83890D5E7F346109B24
:102F40009B001093139B9B081393059B0D93139B5E
:102F5000042B07D90D9B9B080593129B0E930F938F
:102F6000DE46C8E70D9B9E081298049680E0049BFD
:102F7000C71803EB070E03EB0E0C4FEA80083BF972
:102F8000202008F102083BF908304FEA8E013BF996
:102F90002E50023101913BF90140511901F30F010B
:102FA000029103EB040909F30F0A521B02F30F020B
:102FB00016461B1B03F30F030393BD003BF9273099
:102FC00002353BF905204FEA8C043BF92C10023402
:102FD0003BF904900B4403F30F034A4402F30F023E
:102FE000029941F34E0189B243F34E039BB201EBC8
:102FF00003092BF820904AF34E0A1FFA8AFA42F38B
:103000004E0292B20AEB02092BF80890C91AAAEBF9
:1030100002023BF927803BF905302BF827102BF8EB
:1030200005203BF92C103BF90420A8EB010101F32A
:103030000F019B1A03F30F0346F34E05ADB243F3A2
:103040004E039BB2EA182BF82E20039A42F34E024D
:1030500092B241F34E0189B2571A019E2BF80670C5
:10306000EB1A2BF82C300A442BF804200D9B184443
:10307000069B0D9A9B1A8342BFF479AF15B0BDE849
:10308000F08F2DE9F04F93B0834604910F92069391
:103090008B080B9310934FF00009CE4600920B9BC8
:1030A00009EB03069F1903EB070A4FEA890C3BF96A
:1030B000290080100CF1020C3BF90C108910BB00A8
:1030C0003BF927804FEAA808023303933BF90350EA
:1030D000AD1000EB080303F30F031BB24A1902F310
:1030E0000F0212B2A0EB080000F30F0000B2019033
:1030F000491B01F30F0109B20291B5003BF92610FB
:103100000C4602353BF905804FEA8A013BF92A005B
:103110008010023105913BF90110891000EBA400E9
:1031200000F30F0000B201EBA80101F30F0109B297
:103130004FEA600808EB63082BF829804FEA610822
:1031400008EB62082BF80C801B1A03F30F031BB269
:10315000521A02F30F0212B24FEACE01009830F970
:103160003EC00231405E03FB0CF102FB101109145A
:1031700002FB0CF200FB03231B143BF926003BF976
:1031800005202BF826102BF805303BF92A10891062
:10319000059C3BF904309B10C1EBA00000F30F002D
:1031A00000B2C3EBA20303F30F031BB2019EF1189D
:1031B00001F30F010FFA81F8029A151A05F30F05B2
:1031C0002DB2F31A03F30F031BB2024402F30F02F2
:1031D00012B24FEA8E00009E314636F92EC0023000
:1031E000365E03FB0CF002FB1600001402FB0CF22F
:1031F00006FB03231B142BF82700039A2BF802303D
:103200000EEB4E029300CA5E0233C85E08FB02F367
:1032100005FB10331B1405FB02F500FB08510914D4
:103220002BF82A302BF80410069B9E4409F1010963
:10323000109B013B10937FF432AF069B9B000E93D3
:10324000049B9B081193E1E0039B0AEB030603EB4D
:10325000060C03EB0C074FEA8A0E38F92A000EF130
:10326000020E38F90E104FEA8C0338F92C5003F196
:10327000020B38F90B40431903F30F030A1902F349
:103280000F02401B00F30F000090091B01F30F0118
:103290000191B50038F92600A91C029138F90110F6
:1032A000BC0038F92750023438F90490284400F360
:1032B0000F00494401F30F0143F34E031BB240F3E7
:1032C0004E0000B203EB00094FEA690928F82A9082
:1032D00042F34E0212B241F34E0109B202EB010970
:1032E0004FEA690928F80E901B1A1BB2521A12B243
:1032F000079903FB01FE089802FB10EE4FEA2E4EE1
:1033000002FB01F200FB03231B1438F9262002986C
:1033100038F9001028F826E028F8003038F927009E
:1033200038F90430121A02F30F02C91A01F30F011F
:10333000009840F34E039BB241F34E0189B25D18F1
:103340002DB2019840F34E0080B242F34E0292B289
:10335000861A36B25B1A0FFA83F9024412B2059943
:1033600009FB01FE069802FB10EE4FEA2E4E02FB0F
:1033700001F200FB0922121428F82CE028F80B2097
:10338000099A134605FB03F30A9906FB11331B1434
:1033900006FB02F601FB0566361428F8273028F8EC
:1033A00004600B9B9A44049B9A45FFF44DAF0C9B21
:1033B00001330C93039B013B0C9A93421DD30D994F
:1033C0008B000F9830F9212005920233C35E0693DB
:1033D000CB0030F9312007920233C35E089301EB32
:1033E00041029300C25E09920233C35E0A930E9BB0
:1033F000CB180D93DDF830A0D5E7C3460E9B9B009C
:103400000E93119B9B081193039B0B93119B042B11
:1034100007D90B9B9B080393109B0C930D93D846E5
:10342000C8E70B9B9E081098039680E0039BC71883
:1034300003EB070E03EB0E0C4FEA80083BF920204C
:1034400008F102083BF908304FEA8E013BF92E5093
:10345000023100913BF90140511901F30F01019133
:1034600003EB040909F30F0A521B02F30F0216467D
:103470001B1B03F30F030293BD003BF927300235FA
:103480003BF905204FEA8C043BF92C1002343BF940
:1034900004900B4403F30F034A4402F30F02019913
:1034A00041F34E0189B243F34E039BB201EB030992
:1034B0002BF820904AF34E0A1FFA8AFA42F34E0282
:1034C00092B20AEB02092BF80890C91AAAEB020281
:1034D0003BF927803BF905302BF827102BF8052006
:1034E0003BF92C103BF90420A8EB010101F30F017B
:1034F0009B1A03F30F0346F34E05ADB243F34E039D
:103500009BB2EA1A2BF82E20029A42F34E0292B294
:1035100041F34E0189B25718009E2BF806702B44D8
:103520002BF82C30521A2BF804200B9B1844049BC8
:103530000B9A9B1A8342BFF479AF13B0BDE8F08FAA
:10354000F0B4841CB0F90060481E002701E0013887
:103550002C4638B1A51CB4F90040A642F7DA0F1A80
:103560002646F4E716801F60F0BC704700286ADD2D
:1035700070B4B0FA80F2113A92B214B212F00102B1
:1035800056D1A04000B2451007EE900AF8EEE77A57
:103590009FED2F7A67EE877A2E4B17EE906AA3EB9A
:1035A000660307EE903AFEEEC97A17EE903A1EB225
:1035B00006FB06F343F3CF3305FB03F343F3CF33AB
:1035C000C3F5405303FB06F343F3CF339B001EB216
:1035D00006FB06F343F3CF3303FB05F343F3CF338B
:1035E000C3F5405303FB06F343F3CF339B001BB2F9
:1035F00003FB03F646F3CF3606FB05F545F3CF355F
:10360000C5F5405505FB03F343F3CF339B001BB2D5
:1036100000FB03F343F3CF335B001BB262B904EB4F
:10362000D474641043FA04F40C80002070BC70471A
:10363000631E984000B2A6E7013C04EBD47464100A
:1036400043FA04F4F0E700230B804FF0FF3070479B
:1036500000000038DF59375FF8B5154616E004461C
:1036600034F9043BB0F9022003FB03F002FB02F241
:10367000D317161843EBE077700C40EAC7308E1C66
:1036800000B2FFF773FF013D31462046002DE6D121
:10369000F8BD002303E0002240F823200133092B6A
:1036A000F9DD002383627047826A531C836240F80D
:1036B00022100A2B00D0704700238362FBE7000032
:1036C00010B4836A002B53D0013B50F8232040F202
:1036D000155101FB02F1002B4CD0013B50F8232087
:1036E0002D4C04FB0211002B46D0013B50F8232047
:1036F0006FF4935404FB0211002B3FD0013B50F8B0
:10370000232040F6A46404FB0211CBB3013B50F824
:10371000232043F6154404FB02119BB3013B50F8F0
:10372000232043F6154404FB02116BB3013B50F810
:10373000232040F6A46404FB02113BB3013B50F884
:1037400023206FF4935404FB02110BB3013B50F898
:103750002320114C04FB0212E3B1013B50F823007B
:1037600040F2155303FB002000145DF8044B704732
:103770000923AAE70923B1E70923B7E70923BEE72D
:103780000923C4E70923CAE70923D0E70923D6E7B9
:103790000923DCE70923E1E782F2FFFF10B40022EE
:1037A000144607E050F822301B019BB240F822304B
:1037B0001C4401328A42F5D3B4FBF1F05DF8044BAE
:1037C0007047002393420BD210B451F82340241ABF
:1037D00041F8234001339342F7D35DF8044B70471F
:1037E00070472DE9F0418CB006468846154601A881
:1037F000FFF74FFF002405E056F8241001A8FFF75B
:1038000053FF0134AC42F7D300273C4606E063196E
:1038100056F8231001A8FFF747FF0134A8EB050372
:10382000A3420ED901A8FFF74BFF46F8240003F08E
:103830004DF9B842EBD956F8240003F047F9074692
:10384000E5E738460CB0BDE8F08100002DE9F04115
:10385000054688464F1E7F0847F6FF76B6FBF2F610
:1038600000241FE0C4EBC430B0FBF7F0A0F5FF402C
:103870007F3803F02BF9C0F5FF407F30A20055F8E8
:10388000243000FB03F000FB06F0094B83FB001320
:103890000344C017C0EBA33025F82400931C00227A
:1038A000EA5201344445DDD32846BDE8F08100BF2B
:1038B0000300018070B582B006460D461446002311
:1038C0000193B2F5807F33D01FD8202A3CD005D990
:1038D000402A2BD0802A31D11C4802E0102A2DD159
:1038E0001B48012300223146FFF70EF922462946E4
:1038F0003046FFF7B1FE01AB0DF10202214628462A
:10390000FFF71EFE019802B070BDB2F5806F11D0B6
:1039100007D9B2F5006F0FD0B2F5805F0ED10D4818
:10392000DFE7B2F5007F09D10B48DAE70B48D8E7AB
:103930000B48D6E70B48D4E70B48D2E776210B4873
:1039400000F0EEF90020CCE70948CAE79415010819
:10395000A4150108E4150108F4150108041601086E
:10396000C415010884150108B415010814160108CE
:10397000D415010830B58BB0002400942B4B1A6B82
:1039800042F004021A631A6B02F004020092009AD9
:1039900001941A6B42F080021A631A6B02F08002E3
:1039A0000192019A02941A6B42F001021A631A6B97
:1039B00002F001020292029A03941A6B42F0020290
:1039C0001A631A6B02F002020392039A04941A6BB0
:1039D00042F008021A631B6B03F008030493049B74
:1039E0004FF6FF73059303250695079405A9104824
:1039F000FDF7DEFB49F6FE7305930695079405A9CE
:103A00000C48FDF7D5FB4FF2FF730593069507941D
:103A100005A90948FDF7CCFB0423059306950794F7
:103A200005A90648FDF7C4FB0BB030BD00380240C5
:103A3000000802400000024000040240000C024066
:103A400000B583B000220192094B196B41F480014B
:103A500019631B6B03F480030193019B052138203C
:103A6000FDF770F83820FDF7B3F803B05DF804FBFC
:103A70000038024008B540F6B83000F00AFEFAE718
:103A800008B50268034B9A4200D008BDFCF7E2FC7F
:103A9000FBE700BF00000140014B1870704700BFFA
:103AA0001000002008B50F4B1B6842F2120293422F
:103AB0000CD801330B4A13600A4B1A6841F20A030F
:103AC0009A4207D0074B1B6843B108BD054B002243
:103AD0001A60F1E70020FFF7DFFFF3E70120FFF7AF
:103AE000DBFFF2E70C010020014B1878704700BFA4
:103AF00010000020F8B52DED048B0020FFF7CCFF5F
:103B0000002003F051F802F0F7FF9FED739ADCE01C
:103B100007EE904AB8EEE78ADFED707A28EE278A42
:103B2000DFED6F7A68EE277ADFED6E8AC7EEA87A4E
:103B300017EE900A02F0B0FC41EC100B01F078F99E
:103B40000022694B51EC100B02F0FEFC0022674B87
:103B500002F044FB02F092FF0546DFED657A68EE65
:103B6000277AC7EEA87A17EE900A02F095FC41EC8E
:103B7000100B01F05DF900225B4B51EC100B02F0D1
:103B8000E3FC06460F46284602F074FC32463B46EC
:103B900002F024FB02F072FF0546C8EE287A17EE09
:103BA000900A02F079FC41EC100B01F041F900227F
:103BB000504B51EC100B02F0C7FC06460F4628464E
:103BC00002F058FC32463B4602F008FB02F056FF7A
:103BD0000546DFED497A39EE279A28EE098AC8EEC4
:103BE000287A17EE900A02F057FC41EC100B01F016
:103BF0001FF90022414B51EC100B02F0A5FC0646C8
:103C00000F46284602F036FC32463B4602F0E6FA02
:103C100002F034FF054602F093FF394A82FB00327E
:103C2000C317C3EBE20303EB83039A00831A1B035E
:103C3000344A82FB03121A44DB17C3EBE2230C3B2A
:103C40001D44FFF751FF41F20A0303FB00402E4BD6
:103C500043F82050013441F209039C427FF758AFEA
:103C6000FFF742FF0228FBD041F20A0303FB00F0FA
:103C7000254B03EB8003254A1360FFF735FF30BB6C
:103C80000120FFF709FF214C41F20A012068FFF7EC
:103C900085FD1F4B186041F20A022168FFF791FD74
:103CA0000A2241F20A012068FFF79BFD0246194BE8
:103CB00018604FF480512068FFF7C8FD164B18605C
:103CC0004FF480521549FFF7F5FD0024C3E70020AB
:103CD000FFF7E2FED7E700BF00408344DB0FC94097
:103CE00000007A4400400346000038400000A04035
:103CF0000080094500004F40310CC33B00005F408D
:103D000067666666EF09E09E243F0020743E00204F
:103D10001001002014010020B4BF0020B8BF002013
:103D2000FEE7000000B585B01648174B03604FF45E
:103D30008033436000238360036183610362C36255
:103D4000124A8262C3600123C36103634361FCF7CB
:103D50003BFC68B9002300930123019307230293DE
:103D600069460848FCF7E8FD38B905B05DF804FB82
:103D700040F207110648FFF7D3FF40F21111044843
:103D8000FFF7CEFF783E0020002001400100000F29
:103D90005016010800B587B018484FF08043036003
:103DA00000234360836042F21072C2600361FEF739
:103DB0001DFB98B906A94FF4805341F8103D0F48F8
:103DC000FDF78CFF78B900230093019369460B48F7
:103DD000FEF76AFB60B907B05DF804FB4FF492711F
:103DE0000748FFF79DFF4FF495710548FFF798FFCF
:103DF00040F231110248FFF793FF00BF78BF002067
:103E00005016010800B595B000220192294B196C9B
:103E100041F0805119641B6C03F080530193019BA6
:103E2000029225490B6823F4404343F400430B609E
:103E30000B6803F440430293029B02230893012181
:103E40000B9110210C910E930F9208221092542284
:103E5000119212930423139308A8FDF7FFFA08BBED
:103E60000F23039302210491002305934FF4805202
:103E70000692079303A8FDF759FDB8B9FDF782FE36
:103E80000E4BA3FB00308009FCF7B8FE0420FCF7C2
:103E9000CBFE00220F214FF0FF30FCF753FE15B090
:103EA0005DF804FBD4210648FFF73AFFE2210448FD
:103EB000FFF736FF0038024000700040D34D62101B
:103EC0005016010800B58BB0FCF7AAFAFFF79AFF6D
:103ED000FFF750FDFFF7B4FDFFF724FFFFF75AFF90
:103EE0000D4C05AD26460FCE0FC533682B60002163
:103EF00005A800F0B4FB094B18606D4614340FCCD4
:103F00000FC523682B600021684600F0A8FB044B16
:103F1000186000F09FFBFEE728160108C03E002055
:103F200074BF0020704708B50320FCF7EDFD0022A8
:103F300011466FF00B00FCF705FE002211466FF0F2
:103F40000A00FCF7FFFD002211466FF00900FCF7A4
:103F5000F9FD002211466FF00400FCF7F3FD00228A
:103F600011466FF00300FCF7EDFD00220F216FF00A
:103F70000100FCF7E7FD00220F214FF0FF30FCF7B6
:103F8000E1FD08BD0268234B9A4200D0704730B56E
:103F900087B004460025009503F58C335A6C42F433
:103FA00080725A645B6C03F480730093009B01235E
:103FB000019303230293039501A91748FDF7F8F82D
:103FC0001648174B036045608560C5604FF48063F9
:103FD00003614FF4006343614FF400538361C56193
:103FE0004FF4003303624562FCF7AAFE60B90B4B45
:103FF000A3639C63002205211220FCF7A3FD12207D
:10400000FCF7E6FD07B030BD7C210648FFF788FECF
:10401000EDE700BF0020014000000240C43E002048
:1040200010640240781601080368B3F1804F00D095
:10403000704700B583B00022019203F50E33196C6E
:1040400041F0010119641B6C03F001030193019B12
:1040500005211C20FCF776FD1C20FCF7B9FD03B000
:104060005DF804FB10B588B0002201461920FCF76A
:1040700069FD1920FCF7ACFD00240194134B5A6C28
:1040800042F001025A645B6C03F001030193019B4F
:1040900002A903A8FDF792FDFDF77AFD0C4BA3FBE7
:1040A00000239B0C013B0B480B4A026040F2E732B5
:1040B000C260436004618460FEF798F910B101208A
:1040C00008B010BD0348FDF7D3FDF9E70038024002
:1040D00083DE1B43B8DF0020000001407047FEE78D
:1040E000FEE7FEE7FEE7704708B500F0DBFA08BD23
:1040F00008B50248FCF758FB08BD00BF783E002019
:1041000008B50248FEF76AF808BD00BFB8DF002016
:1041100008B50248FEF762F808BD00BF78BF00206E
:1041200008B50248FCF752FF08BD00BFC43E00209E
:10413000124A12F0070F1ED0D11D21F00701C1F560
:10414000705313440A460E48026000214160134434
:10415000083B23F007030B48036059601960991A64
:1041600051601360084B1960084B1960084B4FF001
:1041700000421A6070474FF47053E4E71C010020BE
:10418000283D002018010020243D0020203D002073
:104190001C3D002010B4134B1A6882421BD359688F
:1041A0005C18844203D14068014459601846416854
:1041B0004418A24213D10C4C2468A2420DD052687C
:1041C000114441601A6812680260984200D0186079
:1041D0005DF8044B70471346DEE70460F5E70260C4
:1041E000F3E700BF283D00201801002070B5044609
:1041F00000F04CFC3A4B1B68BBB13A4B1B681C42AD
:1042000063D1ACB1083414F0070F11D024F00704C7
:10421000083404F007035BB14FF0500383F31188B7
:10422000BFF36F8FBFF34F8FFEE7FFF781FFE4E728
:10423000002C4CD02C4B1B68A3424AD32B4B1D683F
:1042400001E02B4615466A68A24202D22A68002A7B
:10425000F7D1234A1268AA423DD01E6808362A6860
:104260001A606B681B1B102B10D9281910F0070F50
:1042700008D04FF0500383F31188BFF36F8FBFF363
:104280004F8FFEE743606C60FFF784FF6A68164952
:104290000B689B1A0B60164909688B4201D21449BE
:1042A0000B60104B1B6813436B6000232B6000F006
:1042B00081FC16F0070F10D04FF0500383F31188E4
:1042C000BFF36F8FBFF34F8FFEE70026EFE70026A7
:1042D000EDE70026EBE70026E9E7304670BD00BFBA
:1042E000180100201C3D0020203D0020283D00201A
:1042F000243D002080B338B50446A0F1080550F8ED
:10430000042C164909680A4208D14FF0500383F380
:104310001188BFF36F8FBFF34F8FFEE750F8080C83
:1043200040B14FF0500383F31188BFF36F8FBFF399
:104330004F8FFEE722EA010244F8042C00F0A6FBAE
:1043400054F8041C064A13680B4413602846FFF710
:1043500021FF00F02FFC38BD704700BF1C3D00203E
:10436000203D00200B4B1B68B3F1FF3F08D04FF0FE
:10437000500383F31188BFF36F8FBFF34F8FFEE7B6
:104380004FF0500383F31188BFF36F8FBFF34F8F4C
:10439000FEE700BF1400002006480068006880F3B4
:1043A000088862B661B6BFF34F8FBFF36F8F00DF2F
:1043B00000BF000008ED00E0DFF80C00016841F4E8
:1043C000700101607047000088ED00E04FF08073DD
:1043D00040F8043C21F0010140F8081C054B40F86E
:1043E0000C3C40F8202C6FF0020340F8243C443889
:1043F000704700BF65430008000000000000000097
:10440000074B19680868B0E8F04F80F30988BFF3DC
:104410006F8F4FF0000080F311887047AFF300807A
:10442000383D00204FF0500383F31188BFF36F8FA6
:10443000BFF34F8F0A4A136801331360012B00D07A
:104440007047084B1B6813F0FF0FF9D04FF0500373
:1044500083F31188BFF36F8FBFF34F8FFEE700BF69
:104460001400002004ED00E0094B1B6843B94FF035
:10447000500383F31188BFF36F8FBFF34F8FFEE7B5
:10448000013B034A13600BB983F31188704700BFE7
:1044900014000020000000000000000000000000E8
:1044A000EFF30980BFF36F8F154B1A681EF0100FE2
:1044B00008BF20ED108A20E9F04F10604DF8043D50
:1044C0004FF0500080F31188BFF34F8FBFF36F8F11
:1044D00000F052FC4FF0000080F3118808BC19680E
:1044E0000868B0E8F04F1EF0100F08BFB0EC108A5B
:1044F00080F30988BFF36F8F704700BFAFF3008070
:10450000383D002008B54FF0500383F31188BFF306
:104510006F8FBFF34F8F00F0C1FA18B1034B4FF00C
:1045200080521A60002383F3118808BD04ED00E077
:10453000064B1B68064AA2FB03239B09013B054A65
:104540001360054B07221A60704700BF0C00002063
:10455000D34D621014E000E010E000E0314B1A6827
:10456000314B9A420DD02F4B1A68304B9A4211D1E1
:104570004FF0500383F31188BFF36F8FBFF34F8F5A
:10458000FEE74FF0500383F31188BFF36F8FBFF343
:104590004F8FFEE700B583B0254B1A78D2B2019257
:1045A000FF221A701B78DBB28DF803309DF80330C0
:1045B00003F050031F4A13701F4B07221A609DF827
:1045C000033013F0800F0AD01B4A1368013B1360BD
:1045D0009DF803305B00DBB28DF80330EFE7164A3D
:1045E00013681B0203F4E0631360019BDBB2104A03
:1045F0001370124B1A6842F470021A601A6842F083
:1046000070421A60FFF794FF0D4B00221A60FFF70B
:10461000D3FE0C4A136843F040431360FFF7BCFE1F
:10462000FFF7A0FE00ED00E071C20F4170C20F4124
:1046300000E400E0303D0020343D002020ED00E0AB
:104640001400002034EF00E0842801D003307047CC
:104650000020704708B500F0DBF9002008BDF0B578
:1046600085B00F46446805680669B0F90800FFF791
:10467000EBFF03AB019300903B46B2B229462046C4
:1046800000F094F9012802D1039805B0F0BD002094
:10469000FBE708B5034600B90123184600F004FB08
:1046A000002008BD08B500F0B3FB012801D0FFF7DA
:1046B00029FF08BD00F1080343604FF0FF3282601C
:1046C000C3600361002303607047002303617047E8
:1046D00043684B609A688A609A6851609960086183
:1046E000036801330360704730B40D68B5F1FF3FD4
:1046F00002D000F1080202E0026904E01A465368A1
:104700001C68AC42FAD953684B6099608A6051606A
:10471000086103680133036030BC70470369426875
:10472000816891608268416851605A68824205D010
:1047300000220261186801381860704782685A6068
:10474000F6E70000084B1B681B683BB1064B1B6873
:10475000DB68DB685A68054B1A607047034B4FF003
:10476000FF321A60704700BF3C3D0020143E00201D
:1047700010B50446006BFFF7BDFD2046FFF7BAFDFC
:1047800010BD2DE9F04780469946089D099F0A9C77
:10479000266B02F18042013A06EB820626F00706FC
:1047A00000230F2B07D8C856E21882F83400CA56E7
:1047B0000AB10133F5E7002384F84330062D00D910
:1047C0000625E56265644FF0000AC4F848A0201D84
:1047D000FFF77BFF04F11800FFF777FF2461C5F1B5
:1047E0000705A5616462C4F84CA084F850A04A464D
:1047F00041463046FFF7EAFD206007B13C60BDE866
:10480000F087000038B5002407E004EB8402930031
:104810000E481844FFF74EFF0134062CF5D90C4D15
:104820002846FFF747FF0B4C2046FFF743FF0A4897
:10483000FFF740FF0948FFF73DFF0948FFF73AFF40
:10484000084B1D60084B1C6038BD00BF443D002074
:10485000E83D0020FC3D00201C3E0020483E00209A
:10486000343E00203C3D0020403D002010B5044671
:10487000FFF7D8FD204A1368013313601F4B1B68F4
:104880005BB11F4B1B686BB91C4B1B68DA6AE36A90
:104890009A4207D8194B1C6004E0184B1C6013683F
:1048A000012B26D0174A136801331360E36A0122F3
:1048B0009A401549086802430A6003EB83039A0093
:1048C000211D12481044FFF703FFFFF7CDFD0C4BED
:1048D0001B686BB1094B1B68DA6AE36A9A4207D21C
:1048E0000B4B4FF080521A60BFF34F8FBFF36F8FA7
:1048F00010BDFFF787FFD5E7D03D0020383D0020F1
:10490000303E0020E03D0020E43D0020443D0020FA
:1049100004ED00E070B504460E461D4B1D681D4BAE
:1049200018680430FFF7FAFE50B91A4B1B68DA6AB0
:10493000012303FA02F218490B6823EA02030B6011
:10494000B4F1FF3F13D02C44124B1B685C60A542AE
:1049500016D8124B18680F4B19680431FFF7C4FEC4
:104960000F4B1B68A34212D90D4B1C600FE0002EA9
:10497000E9D0084B196804310A48FFF7A9FE06E0A0
:10498000094B1868034B19680431FFF7ADFE70BD81
:104990005C3E0020383D0020E43D00203C3D0020EE
:1049A000143E0020343E0020403D00202DE9F0431D
:1049B00085B007468846154699469000FFF716FCD5
:1049C000F8B106465420FFF711FC0446A8B106636F
:1049D000D4B10023039302940D9B01930C9B00938D
:1049E0004B462A4641463846FFF7CBFE2046FFF7A6
:1049F0003DFF012005B0BDE8F0833046FFF77AFCAB
:104A0000E6E74FF0FF30F5E74FF0FF30F2E7000048
:104A100000B583B0174B0193002300938022164901
:104A20001648FFF7C3FF012805D0B0F1FF3F17D0AC
:104A300003B05DF804FB4FF0500383F31188BFF31C
:104A40006F8FBFF34F8F0E4B4FF0FF321A600D4B3D
:104A500001221A600C4B00221A60FFF77FFDE7E786
:104A60004FF0500383F31188BFF36F8FBFF34F8F65
:104A7000FEE700BF103E002094160108514D0008CB
:104A8000143E0020303E00205C3E0020024A1368A5
:104A900001331360704700BFDC3D0020F8B53A4B8E
:104AA0001B68002B64D1394B1D6801351D60C5B9E9
:104AB000374B1B681B6843B14FF0500383F31188D9
:104AC000BFF36F8FBFF34F8FFEE7314A1168314B51
:104AD000186810601960304A136801331360FFF7DB
:104AE00031FE2E4B1B68AB4238D900242C4B1B687F
:104AF000DB6A03EB83039A002A4B9B58012B3CD9BA
:104B000001243AE00124224B1B681B6843B3204B6D
:104B10001B68DB68DE6873689D4226D3371D384604
:104B2000FFF7FCFDB36A1BB106F11800FFF7F6FDB5
:104B3000F36A01229A401C49086802430A6003EBA9
:104B400083039A00394617481044FFF7C1FDF26A03
:104B5000134B1B68DB6A9A42D4D2D4E70024D2E715
:104B60000E4B4FF0FF321A60C0E70C4A1360BDE7EE
:104B70000E4A13680133136000240D4B1B6803B108
:104B800001242046F8BD00BFDC3D00205C3E002033
:104B90003C3D0020403D0020183E0020143E0020F7
:104BA000383D0020443D0020E43D0020D83D002059
:104BB000603E002038B5334B1B6843B94FF05003BB
:104BC00083F31188BFF36F8FBFF34F8FFEE7FFF7BB
:104BD00029FC2C4B1A68013A1A601B68002B4DD136
:104BE000294B1B6823B90024FFF73EFC204638BD43
:104BF0000024264B1B681BB3244BDB68DC6804F1E4
:104C00001800FFF78BFD251D2846FFF787FDE36A97
:104C100001229A401E49086802430A6003EB83039D
:104C20009A0029461B481044FFF752FDE26A1A4BCE
:104C30001B68DB6A9A42DCD3184B01221A60D8E762
:104C40000CB1FFF77FFD164B1C6854B1FFF726FF30
:104C500010B1124B01221A60013CF7D1104B002217
:104C60001A600E4B1B685BB10E4B4FF080521A60FE
:104C7000BFF34F8FBFF36F8F0124B5E70024B3E775
:104C80000024B1E7DC3D0020D03D00201C3E002088
:104C9000E43D0020443D0020383D0020603E0020DF
:104CA000D83D002004ED00E010B5A8B104460F4B3C
:104CB0001B6843B14FF0500383F31188BFF36F8F2C
:104CC000BFF34F8FFEE7FFF7E1FE00212046FFF71D
:104CD00021FEFFF76FFF38B9054B4FF080521A6085
:104CE000BFF34F8FBFF36F8F10BD00BFDC3D0020BF
:104CF00004ED00E0134B1B6813B310B5FFF7C6FEBD
:104D0000114B1C68FFF756FF24B90E4B1B68002B94
:104D1000F4D110BDFFF786FB0B4BDB68DC68201D70
:104D2000FFF7FCFC094A1368013B1360054A13684E
:104D3000013B1360FFF798FB2046FFF719FDE4E7FE
:104D4000704700BFD43D0020483E0020D03D0020E9
:104D500008B5FFF7CFFF064B1B68012BF9D9054BB0
:104D60004FF080521A60BFF34F8FBFF36F8FF0E7A1
:104D7000443D002004ED00E0204B1B681BB1204B9C
:104D800001221A6070471E4B00221A601D4B1B68DF
:104D9000B3FA83F3DBB2C3F11F0303EB83018A0091
:104DA00019498A5842B94FF0500383F31188BFF371
:104DB0006F8FBFF34F8FFEE710B413489A00D418DB
:104DC000A10001444C6864684C601A4491000831A9
:104DD000084484420BD003EB83039A000A4B13442C
:104DE0005B68DA68094B1A605DF8044B70476168CC
:104DF0000548142202FB03025160ECE7DC3D002071
:104E0000603E0020E43D0020443D0020383D00206D
:104E1000054B1B6833B1054B1B680BB10020704775
:104E20000220704701207047303E0020DC3D00200A
:104E300000B551EC100B2C4A21F00043934285B091
:104E400027DD2A4A934209DD10EE102A0B4601F0B5
:104E5000C3F941EC100B05B05DF804FB684600F0A7
:104E600047F800F0030001281FD0022830D028B3F3
:104E70009DED021B9DED000B00F066FA53EC102B2C
:104E800010EE100A03F1004141EC100B05B05DF883
:104E900004FB00209FED121B00F0A6FF51EC100B4D
:104EA00041EC100B05B05DF804FB9DED021B9DED80
:104EB000000B00F049FA51EC100BCAE701209DED00
:104EC000021B9DED000B00F08FFF51EC100BC0E7B3
:104ED00001209DED021B9DED000B00F085FFCDE74D
:104EE0000000000000000000FB21E93FFFFFEF7F12
:104EF0002DE9F04753EC102BBF4923F000478F42B8
:104F000090B040F39380BD498F421C46824629DC15
:104F1000002C194610EE100AADA3D3E9002340F38C
:104F2000908001F059F9B64B9F4204460D4600F0BF
:104F30007381A9A3D3E9002301F04EF902460B4681
:104F4000CAE900232046294601F046F9A2A3D3E985
:104F5000002301F041F90125CAE90201284610B0F9
:104F6000BDE8F087A7498F4240F38A80A6498F4267
:104F700000F320813D15A5F2164510EE100AA7EBAF
:104F8000055116460F4601F079FD01F073FA80468F
:104F9000894642464B4630463946CDE90A8901F0FA
:104FA0001BF90022994B01F0CFFA8946804601F0A7
:104FB00065FD01F05FFA06460F4632463B46404625
:104FC0004946CDE90C6701F007F900228F4B01F04B
:104FD000BBFA00220023CDE90E0101F01DFD0028DF
:104FE00000F06581002330463946002201F014FDAF
:104FF000002814BF01230223854A019202212A4678
:1050000000910AA8514600F0E3FA002C054614DA94
:10501000DAF80420DAF80C3002F1004203F1004320
:105020004542CAF80420CAF80C3006E080ED000BB7
:1050300000250024C0E902450025284610B0BDE83F
:10504000F08701F0CBF86E4B9F4204460D4600F00E
:10505000108161A3D3E9002301F0C0F802460B469A
:10506000CAE900232946204601F0B6F85AA3D3E93D
:10507000002301F0B3F84FF0FF35CAE90201DCE785
:1050800000F07CFF59EC108B10EE100A54A3D3E90A
:105090000023494601F058FA00225E4B01F09EF8C9
:1050A00001F0ECFC054601F0E5F949A3D3E9002342
:1050B000CDE9060101F048FA02460B464046494652
:1050C00001F08AF844A3D3E9002380468946DDE94C
:1050D0000601CDE9028901F037FA1F2D02460B4681
:1050E000CDE9042340F3B580DDE90423DDE90201C5
:1050F00001F072F8804689463F15C9F30A53FB1A3E
:10510000102B40F3B38038A3D3E90023DDE9060177
:1051100001F01AFA8046894602460B46DDE9020193
:1051200001F05AF802460B46DDE90201CDE90823F9
:1051300001F052F842464B4601F04EF82CA3D3E959
:10514000002380468946DDE9060101F0FDF942466B
:105150004B4601F041F80B46CDE904010246DDE97A
:10516000080101F039F8C1F30A53FF1A312F8046C4
:10517000894600F39E809DED087BCAE900898DED8C
:10518000027B42464B46DDE9020101F025F8DDE9EC
:10519000042301F021F8002CCAE90201BFF64DAF4B
:1051A00009F1004401F100436D42CAE90084CAE9F3
:1051B000020342E710EE100A194601F00DF800252F
:1051C000CAE90201CAE9000137E700BFAFF3008076
:1051D00000004054FB21F93F3163621A61B4D03DB5
:1051E00083C8C96D305FE43F0000601A61B4D03DF0
:1051F0007370032E8A19A33BFB21E93F7BD9024040
:10520000FB21F93FFB213941FFFFEF7F0000704197
:105210001C1701080000E03F41A3D3E9002300F080
:10522000DBFF41A3D3E900230D46044600F0D4FF81
:1052300002460B46CAE900232946204600F0CCFF6F
:1052400039A3D3E9002300F0C7FF0125CAE9020111
:10525000F3E64046494600F0BFFF394B6A1E8046E0
:1052600053F82230BB4289463FF446AFCAE9008971
:1052700087E72BA3D3E9002300F0B0FF2AA3D3E9EB
:1052800000230D46044600F0A9FF02460B46CAE97A
:1052900000232946204600F09FFF23A3D3E90023E3
:1052A00000F09CFF4FF0FF35CAE90201C5E6032379
:1052B000A2E61FA3D3E90023DDE9060101F044F9CA
:1052C00006460F4602460B46DDE9080100F084FF62
:1052D0008046894602460B46DDE90801CDE9028990
:1052E00000F07AFF32463B4600F076FF12A3D3E986
:1052F000002306460F46DDE9060101F025F9324696
:105300003B4600F069FF02460B4640464946CDE960
:10531000042300F061FF80468946A7E7AFF30080D1
:105320000000601A61B4D03D7370032E8A19A33B4C
:105330000000002E8A19A33BC14920259A837B399E
:105340009C160108000000002DE9F04F57EC106B8F
:105350002DED028BB0EE418AF0EE618A27F0004914
:10536000B9F1795F83B072DA10EE100A394601F0B4
:1053700085FB002800F0ED8032463B46304639463A
:1053800001F0E2F87CA3D3E9002304460D4601F0C6
:10539000DBF87BA3D3E9002300F020FF22462B4655
:1053A00001F0D2F878A3D3E9002300F015FF2246DC
:1053B0002B4601F0C9F876A3D3E9002300F00EFFD5
:1053C00022462B4601F0C0F873A3D3E9002300F076
:1053D00003FF22462B4601F0B7F871A3D3E900235F
:1053E00000F0FCFE22462B4601F0AEF882468B46CA
:1053F0000022714B2046294601F0A6F8524680460D
:1054000089465B462046294601F09EF853EC182B4E
:1054100004460D463046394601F096F802460B46E2
:105420002046294600F0D8FE02460B464046494633
:1054300000F0D2FE02460B460020604900F0CCFE90
:1054400041EC100B03B0BDEC028BBDE8F08F10EE09
:10545000102A10EE100A3B46394601F075F846A3B3
:10546000D3E9002304460D4601F06EF844A3D3E9C6
:10547000002300F0B3FE22462B4601F065F842A35C
:10548000D3E9002300F0A8FE22462B4601F05CF889
:105490003FA3D3E9002300F0A1FE22462B4601F0F2
:1054A00053F83DA3D3E9002300F096FE22462B4695
:1054B00001F04AF83AA3D3E9002300F08FFE2B460F
:1054C000224601F041F83E4B994582468B468FDDDE
:1054D0003C4B994544DC0022A9F5001300203749D4
:1054E0009046994600F078FECDE900010022324B4B
:1054F0002046294601F028F842464B4600F06CFE53
:105500005246804689465B462046294601F01CF8F3
:1055100053EC182B04460D463046394601F014F87A
:1055200002460B462046294600F056FE02460B4630
:105530004046494600F050FE02460B46DDE90001B8
:1055400000F04AFE41EC100B03B0BDEC028BBDE84D
:10555000F08F9FED150B03B0BDEC028BBDE8F08F13
:105560009FED137B4FF000088DED007BDFF8589026
:10557000BCE700BFAFF30080D43888BEE9FAA8BD0D
:10558000C4B1B4BD9EEE213EAD529C804F7E923E92
:105590009015CB19A001FA3E7751C1166CC1563F48
:1055A0004C5555555555A53F000000000000F03FF3
:1055B000000000000000E73F0000E03F0000F03F77
:1055C0003233D33F0000E93F0000D23F000000002B
:1055D0002DE9F04FADF5197DC14CA29EC14D54F897
:1055E00026600793D41E85FB0475E417C4EBA5045D
:1055F00024EAE4741D46631CA3EB8303013D02EB24
:10560000C3030593731904960994019503900B91B4
:10561000A4EB05071AD43B44002400255E1C0DF1C1
:105620008008DDF88C9208E059F8270000F022FF8E
:105630000137B742E8E8020108D0002FF4DA013759
:1056400020462946B742E8E80201F6D1049B002B28
:10565000079B4FEAC30302932ADB039A20A902EBBC
:10566000030801EB0309049B72AA02EBC30B0DF5BF
:10567000E07A019B002B4FF000064FF0000711DB92
:10568000039C4D4675E90223F4E8020100F05CFF3B
:1056900002460B463046394600F0A0FD444506461A
:1056A0000F46EFD1EAE80267DA4509F10809E0D1CF
:1056B000DDE90204049920448B0082460BA8A3F183
:1056C0000802C31808930CAB13440A938B4698AB9B
:1056D00003EBCB03BBF1000F53E9284529DD70AB89
:1056E00003EBCB080DF1300900227F4B2046294601
:1056F00000F02AFF01F0C2F900F0BCFE00227B4B53
:1057000006460F4600F020FF02460B46204629467B
:1057100000F062FD01F0B2F978E9022349F8040BC8
:105720003946304600F05AFD70AB984504460D46A8
:10573000DAD1DDF8149045EC104B484600F0B0FC8F
:1057400055EC104B00224FF07F5310EE100A294603
:1057500000F0FAFE41EC100B00F01AFC002251ECB4
:10576000100B634B00F0F0FE02460B462046294624
:1057700000F032FD0D46044601F080F9804600F04D
:1057800079FE0B4602462946204600F025FD4B4691
:10579000002B06460F4640F3E0800BF1FF320CA9C8
:1057A000C9F1180351F8225045FA03F101FA03F345
:1057B0000CA8EB1A40F82230C9F11705884443FAC7
:1057C00005F5002D2CDDBBF1000F08F1010840F3B9
:1057D00086820C9C002C40F0A680BBF1010F0AD001
:1057E0000CA9012251F8044F531C002C40F09D805D
:1057F0009B451A46F6D1059B002B0EDD012B00F0D0
:10580000D880022B09D10BF1FF320CAB0CA953F855
:105810002230C3F3150341F82230022D00F0AE8090
:10582000002200233046394601F0F6F8002800F047
:105830005882049B0BF1FF394B4510DC0BF1804380
:105840000CAA013B089802EB8303002253F80419C9
:10585000834242EA0102F9D1002A40F0B580049B5C
:105860000CAA013B52F82330002B40F0A0800A9A8A
:10587000012352F8041901330029FAD05B440BF1DB
:105880000109994506934BDC099A079909EB02082F
:1058900001EB0B0508F1804802EB030BA39B08F119
:1058A000FF3803EB880870AB03EBC909A39B20A961
:1058B00003EB8B0301EBC505029358F8040F00F0CE
:1058C000D9FD0B4601990246002905F1080BC5E9EF
:1058D00000234FF000064FF000071BDB039C0BE09A
:1058E00068180108ABAAAA2A0000703E00007041A7
:1058F0000000204075E90223F4E8020100F024FED4
:1059000002460B463046394600F068FC54450646D0
:105910000F46EFD1029B9845E9E802675D46CCD17E
:10592000DDF818B0D3E6012300220CA9C4F180747D
:105930009B4541F822400EDD51F8232001EB8B00FE
:1059400001EB83036FF07F4100E01A688A1A43F885
:10595000042B8342F9D101244DE706D10BF1FF332B
:105960000CAA52F82350ED152BE700227E4B01F0D4
:1059700071F8002840F0A981054651E732463B46C0
:1059800000207A4900F028FC06460F46002C3FF420
:1059900047AF05989FED700B00F082FB304639460B
:1059A00053EC102B00F018FC06460F4638E7012395
:1059B00064E70BF1FF320CAB0CA953F82230C3F3B0
:1059C000160341F8223028E70CAB059A53F829302A
:1059D000183ACDE9068505926BB909F18043013B80
:1059E0000CA901EB830353F8041909F1FF39183AA4
:1059F0000029F8D0059205989FED570B00F050FB59
:105A0000B9F1000F55EC104BC0F2C9814FEAC90340
:105A100070AA02EB030808930CAB03EB8906DFF8CE
:105A200050B14FF0000A08F10807043656F8040D8B
:105A300000F020FD22462B4600F086FD5B4667E91C
:105A4000020152462046294600F07EFD0CAB9E42E4
:105A500004460D46EAD148AB03930193CDF8149068
:105A600009F10103DDF810900293C3464FF0000ADC
:105A7000B9F1000FC0F23081DFF8F8805D4638A33D
:105A8000D3E9002300260027002403E0544510DC5E
:105A9000F8E80223F5E8020100F056FD02460B4645
:105AA0003046394600F09AFB0134A14506460F46C0
:105AB000ECDA019BE3E802670193029B0AF1010A19
:105AC0009A45ABF1080BD3D1A29BDDF81490032BC0
:105AD00039D8DFE813F0DF0006000600530048ABBA
