:020000040800F2
:1000000000000120C5020008E1320008E3320008C8
:10001000E5320008E7320008E9320008000000007D
:100020000000000000000000000000002136000871
:10003000EB32000800000000C1360008ED32000875
:10004000792A0008792A0008792A0008792A000804
:10005000792A0008792A0008792A0008792A0008F4
:10006000792A0008792A0008792A0008792A0008E4
:10007000792A0008792A0008792A0008792A0008D4
:10008000792A0008792A0008F532000800000000EB
:10009000000000000000000000000000792A0008B5
:1000A000792A000805330008792A0008792A00080F
:1000B00015330008792A0008792A0008792A0008EF
:1000C000792A0008792A0008792A0008792A000884
:1000D000792A0008792A0008792A0008000000001F
:1000E000792A0008792A0008792A0008000000000F
:1000F000000000000000000000000000792A000855
:1001000000000000792A0008792A0008792A0008EE
:1001100000000000000000000000000000000000DF
:1001200041330008792A0008792A0008792A000852
:10013000792A000800000000000000000000000014
:10014000000000000000000000000000792A000804
:10015000792A0008792A0008792A0008792A0008F3
:10016000792A0008792A0008000000000000000039
:10017000000000000000000000000000000000007F
:1001800000000000792A00080000000000000000C4
:10019000792A000800B583B002F0CEFB384B394A0B
:1001A0001360394A1360394900E02146384B9942BF
:1001B0000BD20A684B6801F10C0488689842F4D9A4
:1001C0001168196004330432F8E72E4B1A68314B7A
:1001D0009A4200D0FEE72C4B1A682F4B9A42F9D175
:1001E000274B2E4A13602E4A13602E4B05E0002049
:1001F000106004329342FAD80B462B4A934204D241
:10020000194651F8082B5B68F4E7244B1B6813B9B7
:10021000234B1B6803B1FEE702F0A0FB694601A86F
:1002200002F036FB214C224BE41AA4100025AC420C
:1002300014DC204C204BE41AA4100025AC4213DC43
:100240000099019802F040FF05461C4C1C4BE41A33
:10025000A410002C0EDC284602F0F6FA144B53F8DA
:10026000253098470135E2E7134B53F8253098477E
:100270000135E3E7013C124B53F824309847E8E797
:10028000BABADECA000000207C000020F00300089B
:100290000804000878563412325476988000002002
:1002A000ECBF002008040008180400081804000827
:1002B00018040008180400081804000818040008AE
:1002C0001804000808B5FFF765FF00BEFEE71EF042
:1002D000040F0CBFEFF30880EFF309807146414A29
:1002E00010472DE9F04182B004468846124B5E6B00
:1002F0009F6B9D6A1B6B13F0020F03D00E4BDB6AE2
:10030000002B0CDB0D4802F0CBFACDF800803B4609
:1003100032462946204602F025FB00BEFEE74BF69A
:10032000AB6102F099FB0028ECD0034B4FF0004288
:10033000DA6202B0BDE8F08100ED00E0D04B0008C9
:1003400000BEFEE71EF0040F0CBFEFF30880EFF3D2
:1003500009807146244A10472DE9F04182B00446D5
:100360008846084B5E6B9F6B9D6A074802F098FABF
:10037000CDF800803B4632462946204602F0F2FA8C
:1003800000BEFEE700ED00E0E04B00081EF0040FA9
:100390000CBFEFF30880EFF309807146134A104752
:1003A0002DE9F04182B004468846084B5E6B9F6B96
:1003B0009D6A074802F074FACDF800803B46324649
:1003C0002946204602F0CEFA00BEFEE700ED00E02E
:1003D000EC4B000800BEFEE700BEFEE700BEFEE7F5
:1003E00070470000E302000859030008A103000859
:1003F000B44C00080000002080000020B44C00082D
:10040000000000100000001080000020F0BF00205D
:080410000000001000000010C4
:1004200008B50B4B1A6842F400721A601A6842F45D
:1004300080621A601A6842F480721A60032000F029
:1004400065FC002002F010FF02F06FFE002008BDE6
:10045000003C0240024A136801331360704700BF3A
:10046000683E0020014B1868704700BF683E0020BE
:1004700010B50446514B5A6822F440325A605A680B
:1004800041680A435A600268536823F480735360DA
:1004900002685368016943EA0123536002685368A4
:1004A00023F0407353600268536881680B435360C4
:1004B0000268936823F40063936002689368C168DC
:1004C0000B439360826A3E4B9A425FD00268936806
:1004D00023F07063936002689368816A0B439360B2
:1004E0000268936823F04053936002689368C16A7E
:1004F0000B4393602268936823F0020393602268A1
:100500009368A16943EA41039360236A002B4ED0AC
:10051000636A013B072B44D82268536843F40063A5
:1005200053602268536823F460435360636A013B5D
:100530004FF4604292FAA2F2B2FA82F2934021683A
:100540004A6813434B602268D36A23F47003D36272
:100550002168CB6AE269013A43EA0253CB6222681E
:10056000936823F40073936022689368216B43EAD5
:10057000412393602268936823F480639360226828
:100580009368616943EA8123936010BD02689368B0
:1005900023F0706393600268936823F04053936084
:1005A000A8E740F20A61074802F0BEFDB4E72268FE
:1005B000536823F400635360C5E700BF0023014084
:1005C0000100000F44490008002800F0E38010B546
:1005D00004460268704B9A4204D040F20D116F48F5
:1005E00002F0A2FD636843B1B3F5803F05D0B3F5D7
:1005F000003F02D0B3F5403F6FD1A36843B1B3F1E0
:10060000807F05D0B3F1007F02D0B3F1407F6AD183
:100610002369012B6DD8A369012B70D8A36A7BB322
:10062000B3F1807F2CD0B3F1007F29D0B3F1407FAC
:1006300026D0B3F1806F23D0B3F1A06F20D0B3F1F7
:10064000C06F1DD0B3F1E06F1AD0B3F1006F17D0B7
:10065000B3F1106F14D0B3F1206F11D0B3F1306F3C
:100660000ED0B3F1406F0BD0B3F1506F08D0B3F19F
:10067000606F05D0B3F1706F02D0494A934244D104
:10068000E36813B1B3F5006F45D1E369013B0F2B6C
:1006900047D8236B012B4AD86369022B4DD8236AB4
:1006A000012B50D8A26A3E4B9A420AD0E36A43B16A
:1006B000B3F1805F05D0B3F1005F02D0B3F1405FCA
:1006C00047D1236C002B4AD0236C13F0100F4DD070
:1006D0000120002384F83C3010BD4FF487712F486F
:1006E00002F022FD89E740F20F112C4802F01CFDB8
:1006F0008EE74FF48871294802F016FD8BE740F22F
:100700001111264802F010FD88E74FF48971234843
:1007100002F00AFDB4E740F21311204802F004FD94
:10072000B3E74FF48A711D4802F0FEFCB1E740F2D6
:1007300015111A4802F0F8FCAEE74FF48B71174818
:1007400002F0F2FCABE740F21711144802F0ECFCA7
:10075000A8E740F21B11114802F0E6FCB1E7636420
:1007600084F83C30204602F00FFDADE7236C23F403
:10077000885323F0020343F0020323642046FFF76B
:1007800077FE00206064236C23F0030343F0010331
:1007900023649EE70120704700200140444900087F
:1007A0000100000F70B582B004460D4616460023C6
:1007B00001938369012B25D8E36A43B1B3F1805FCC
:1007C00005D0B3F1005F02D0B3F1405F20D194F8BF
:1007D0003C30012B00F08B80012384F83C302368EF
:1007E0009A6812F0010F1FD19A6842F001029A60D4
:1007F000434B1B68434AA2FB03239B0C03EB4303BD
:1008000001930EE040F2FA313F4802F08DFCD3E74D
:1008100040F2FB313C4802F087FCD8E7019B013BEA
:100820000193019B002BF9D12268936813F0010F0B
:100830005FD0236C23F4E06323F0010343F480735F
:100840002364536813F4806F05D0236C23F4405362
:1008500043F480532364236C13F4805F34D0636CBF
:1008600023F006036364002384F83C30A36B274A1B
:10087000DA63A36B264A1A64A36B264ADA642368F8
:100880006FF022021A602268536843F0806353605D
:100890002268936843F480739360216833462A4644
:1008A0004C31A06B00F0AAFC1B4B5B6813F01F0FD0
:1008B0000DD123689A6812F0405F1DD19A6842F00A
:1008C00080429A60002015E000236364CBE7236830
:1008D000124A934201D000200CE09A6812F0405F67
:1008E0000CD19A6842F080429A60002002E0022017
:1008F00000E0002002B070BD0020FBE70020F9E717
:100900000C00002083DE1B43444900082109000835
:1009100085090008250B0008002301400020014044
:1009200008B5836B1A6C12F0500F03D09B6BDB6C15
:10093000984708BD1A6C42F400721A641A689168EC
:1009400011F0405F19D19969B9B9D16A11F4700FEA
:1009500003D0916811F4806F0FD1516821F020010C
:1009600051601A6C22F480721A641A6C12F4805F5F
:1009700003D11A6C42F001021A64184602F010FA10
:10098000D7E7704708B5806BFFF7FBFF08BD7047DE
:100990007047000038B504468369012B00F295804A
:1009A000E369013B0F2B00F296806369022B00F292
:1009B000988022681168536803F0200311F0020F39
:1009C0002DD063B3236C13F0100F03D1236C43F4C9
:1009D00000732364936813F0405F19D1A369BBB916
:1009E000D36A13F4700F03D0936813F4806F0FD1A0
:1009F000536823F020035360236C23F48073236433
:100A0000236C13F4805F03D1236C43F00103236450
:100A1000204602F0C5F923686FF012021A602368BD
:100A200019685A6802F0800211F0040F36D0002ACB
:100A300034D0226C12F0100F03D1226C42F4005219
:100A400022649A6812F4401F21D19A6B12F4401F5D
:100A500003D09A6812F4806F19D15A6812F4806F2B
:100A600015D19A6812F0405F11D1A2697AB95A681B
:100A700022F080025A60236C23F480532364236C99
:100A800013F4807F03D1236C43F0010323642046D9
:100A900000F03AF923686FF00C021A6022681168BE
:100AA000536803F0400311F0010F04D01BB1136829
:100AB00013F0010F1BD122681168536803F08063A3
:100AC00011F0200F00D0F3B938BD40F2693114485D
:100AD00002F02AFB64E740F26A31114802F024FB7D
:100AE00063E740F26B310E4802F01EFB61E7236CB6
:100AF00043F4803323642046FFF749FF23686FF0F7
:100B000001021A60D7E7636C43F0020363646FF07D
:100B1000200515602046FFF73BFF23681D60D3E7E3
:100B20004449000808B5806B40230364436C43F0DC
:100B300004034364FFF72CFF08BD000030B583B009
:100B400005460C46002301930B68122B4ED86368B0
:100B5000013B0F2B50D8A368072B53D895F83C3096
:100B6000012B00F0C780012385F83C302368092B56
:100B70004ED92868C2689BB203EB43031E3B072192
:100B800001FA03F322EA0303C3602868C268A1687C
:100B9000238803EB43031E3B01FA03F31343C360B3
:100BA0006368062B4AD82868426B03EB8303053B36
:100BB0001F2101FA03F322EA030343632868426B0F
:100BC000636803EB8303053B218801FA03F31343B6
:100BD00043632A68484B9A4260D02A68464B9A423F
:100BE00065D0002085F83C0003B030BD40F20451D0
:100BF000424802F099FAAAE740F205513F4802F054
:100C000093FAA8E740F206513C4802F08DFAA5E7B6
:100C1000286802699BB203EB4303072101FA03F33F
:100C200022EA0303036128680269A168238803EBB1
:100C3000430301FA03F313430361B1E70C2B16D806
:100C40002868026B03EB8303233B1F2101FA03F3A4
:100C500022EA030303632868026B636803EB8303E0
:100C6000233B218801FA03F313430363B1E72868A8
:100C7000C26A03EB8303413B1F2101FA03F322EA1B
:100C80000303C3622868C26A636803EB8303413BC2
:100C9000218801FA03F31343C3629AE72368122BF6
:100CA0009BD1174A536843F48003536095E7236848
:100CB000103B012B95D8124A536843F4000353604C
:100CC0002368102B8DD10F4B1B6802F1467202F581
:100CD0002E3202F28332A2FB03239B0C03EB83032D
:100CE0005A00019202E0019B013B0193019B002B02
:100CF000F9D176E7022077E7002001404449000857
:100D0000002301400C0000207047000010B504468D
:100D1000C31E042B0FD80A4AD36823F4E0631B04D4
:100D20001B0C240204F4E064234343F0BF6343F448
:100D30000033D36010BDA421024802F0F5F9EAE7C0
:100D400000ED00E07449000870B505460C461646F3
:100D50000F2A25D80F2C28D81B4BDB68C3F302239E
:100D6000C3F10702042A28BF0422191D062921D92C
:100D7000033B4FF0FF3101FA02F224EA02049C40E7
:100D800001FA03F326EA03063443002D14DB2401A1
:100D9000E4B205F1604505F5614585F8004370BD95
:100DA000BC210A4802F0C0F9D4E7BD21074802F08F
:100DB000BBF9D1E70023DCE705F00F052401E4B21D
:100DC000034B5C55EBE700BF00ED00E07449000801
:100DD00014ED00E010B5041E08DB04F01F026409E6
:100DE00001239340044A42F8243010BDD021034827
:100DF00002F09AF9F1E700BF00E100E07449000851
:100E00000138B0F1807F0AD2064B5860064AF021C3
:100E100082F823100020986007221A607047012092
:100E2000704700BF10E000E000ED00E010B50446A0
:100E3000042800D038B9042C0BD0094A136823F0D9
:100E40000403136010BD40F2B311064802F06CF9C0
:100E5000F1E7034A136843F004031360F2E700BFAD
:100E600010E000E07449000830B405682C6824F4F0
:100E700080242C60046863608368402B05D003687D
:100E800099600368DA6030BC704703689A60036851
:100E9000D960F8E70268D3B2103B0B49A1FB0313FA
:100EA0001B090A49C95CC165032B06D822F47F726D
:100EB00022F003028265806D704722F47F7222F077
:100EC000030204328265F6E7ABAAAAAAD849000851
:100ED000836A8269C2B9012B0AD01BB1022B0DD0E3
:100EE00000207047C36A13F0807F32D10020704722
:100EF000C36AB3F1C07F2ED000207047C36A13F0DD
:100F0000807F2AD100207047B2F5005F05D0022B08
:100F10002BD9032B15D000207047032B03D8DFE813
:100F200003F01E041E0A00207047C36A13F0807F7E
:100F300017D100207047C36AB3F1C07F13D00020DF
:100F40007047C36A13F0807F01D0012070470020F2
:100F50007047012070470120704701207047012031
:100F60007047012070470120704701207047000042
:100F700070B50446FFF776FA002C00F0368105467E
:100F800023689B4A934231D0183293422ED01832B4
:100F900093422BD01832934228D01832934225D056
:100FA0001832934222D0183293421FD01832934203
:100FB0001CD002F55672934218D01832934215D0C5
:100FC0001832934212D0183293420FD01832934203
:100FD0000CD01832934209D01832934206D01832FE
:100FE000934203D0C921834802F09EF86368A3B1FD
:100FF000B3F1007F11D0B3F1806F0ED0B3F1C06FA9
:101000000BD0B3F1006F08D0B3F1206F05D0B3F16E
:10101000406F02D0B3F1606F6DD1A3681BB1402B5C
:1010200001D0802B6CD1E368B3F5007F01D0002B99
:101030006BD12369B3F5806F01D0002B6AD163694E
:101040002BB1B3F5006F02D0B3F5805F67D1A36910
:101050002BB1B3F5005F02D0B3F5804F64D1E369E3
:1010600023B1B3F5807F01D0202B62D1236A43B135
:10107000B3F5803F05D0B3F5003F02D0B3F5403F54
:101080005CD1636A0BB1042B5DD1636AC3B1A36AFF
:10109000032B5DD8E36A43B1B3F5000F05D0B3F17C
:1010A000807F02D0B3F1C07F57D1236B43B1B3F53A
:1010B000001F05D0B3F5800F02D0B3F5C00F51D19A
:1010C000002384F83430022384F835302268136812
:1010D00023F00103136023681A6812F0010F46D051
:1010E000FFF7C0F9401B0528F5D9202363650320CD
:1010F00084F8350070BDCA213E4802F015F88CE72F
:10110000CB213C4802F010F88DE7CC21394802F0A1
:101110000BF88EE7CD21374802F006F88FE7CE2195
:10112000344802F001F892E7CF21324801F0FCFF89
:1011300095E7D0212F4801F0F7FF97E7D1212D48FF
:1011400001F0F2FF9DE7D2212A4801F0EDFF9CE774
:10115000D721284801F0E8FF9CE7D821254801F075
:10116000E3FFA2E7D921234801F0DEFFA8E71A68D0
:10117000214810406168A2680A43E1680A43216976
:101180000A4361690A43A1690A43E1690A43216A82
:101190000A430243616A04291CD01A6026687569F3
:1011A00025F00705636A1D43042B05D1A36A1D437F
:1011B0002046FFF78DFE90B975612046FFF76AFE65
:1011C000E26D3F239340836000206065012384F833
:1011D00035308FE7E16A206B01430A43DDE74023A6
:1011E0006365012084F8350084E7012082E700BFB1
:1011F00010600240A84900083F8010F02DE9F0413E
:1012000004460F4690461D46866D5A1E4FF6FE73E5
:101210009A4211D894F83430012B3AD0012384F843
:10122000343094F83530DBB2012B0BD0002384F836
:1012300034300220BDE8F08140F2CD11164801F0B3
:1012400073FFE7E7022384F83530002363652B46FC
:10125000424639462046FFF707FEE26D3F239340A2
:10126000B3602268136843F0160313602268536961
:1012700043F080035361236C23B12268136843F069
:10128000080313602268136843F001031360002011
:10129000D0E70220CEE700BFA8490008F0B583B030
:1012A000044600230193724B1D68724BA3FB053566
:1012B000AD0A876D3E68C26D08239340334210D05B
:1012C00003681A6812F0040F0BD01A6822F00402A7
:1012D0001A60C26D08239340BB60436D43F0010365
:1012E0004365E26D644B9340334209D022685269F2
:1012F00012F0800F04D0BB60636D43F0020363659E
:10130000E26D5E4B9340334209D02268126812F0BE
:10131000020F04D0BB60636D43F004036365E26DAC
:1013200010239340334224D02268126812F0080F31
:101330001FD0BB6023681A6812F4802F0DD01B6881
:1013400013F4002F04D1236C9BB12046984710E082
:10135000A36C73B1204698470BE01A6812F4807FA3
:1013600003D11A6822F008021A60236C0BB12046E0
:101370009847E26D20239340334255D0226812688B
:1013800012F0100F50D0BB6094F83530DBB2052B53
:101390000ED023681A6812F4802F33D01B6813F420
:1013A000002F2AD1636C002B3ED0204698473BE0AB
:1013B0002268136823F0160313602268536923F030
:1013C00080035361236CA3B12268136823F00803E0
:1013D0001360E26D3F239340BB60002384F83430F8
:1013E000012384F83530236D002B3FD020469847E9
:1013F0003CE0A36C002BE7D1EBE7E36BA3B1204605
:10140000984711E01A6812F4807F09D11A6822F017
:1014100010021A60002384F83430012384F8353038
:10142000E36B0BB120469847636DFBB1636D13F01E
:10143000010F17D0052384F835302268136823F094
:1014400001031360019B01330193AB4204D823686D
:101450001B6813F0010FF5D1002384F83430012309
:1014600084F83530E36C0BB12046984703B0F0BDEB
:101470000C000020B5814E1B01008000040080009C
:101480002DE9F04782B080460E46A24B984217D015
:1014900003F58063984213D003F5806398420FD020
:1014A00003F5806398420BD003F58063984207D020
:1014B00003F54063984203D0C521974801F034FEFC
:1014C000338833B37368012B1ED9112B1CD0022B28
:1014D0001AD0122B18D0914A934215D002F58012DF
:1014E000934211D002F5801293420DD0A2F5F8126A
:1014F000934209D002F58012934205D002F5801282
:10150000934201D0032B09D1B368022B0BD80024DE
:101510004AE0C621804801F007FED3E7C7217E4894
:1015200001F002FEF0E7C8217B4801F0FDFDEEE787
:10153000EC21794801F0F8FD90E0042300E000235D
:101540008B4003430232764941F82230754B1A68CA
:10155000FB4303EA0201706810F4803F01D047EAC0
:101560000201704A1160526803EA0201706810F4C7
:10157000003F01D047EA02016A4A5160926803EADB
:101580000201706810F4801F01D047EA0201654A29
:101590009160D2681340716811F4001F01D047EACE
:1015A0000203604AD36001340F2C00F2B0800125A1
:1015B000A54037682F40BD42F5D17368022B01D09A
:1015C000122B2BD13369CBB1092B17D0012B15D09E
:1015D000022B13D0042B11D0052B0FD0062B0DD0CE
:1015E000072B0BD0082B09D00A2B07D00C2B05D0CA
:1015F0000F2B03D0D921484801F096FDE2080832AC
:1016000058F8220004F0070399000F238B4020EACA
:10161000030033698B40034348F82230D8F8002098
:101620004FEA440A4FF0030909FA0AF96FEA090977
:1016300009EA0202736803F0030303FA0AF313438F
:10164000C8F8003073685A1E012A03D9112B01D043
:10165000122B18D1F368032B3FF66AAFD8F8082095
:1016600009EA0202F36803FA0AF31343C8F80830E0
:10167000D8F8042022EA05027368C3F30015A540D8
:101680001543C8F80450D8F80C3009EA0309B368C8
:1016900003FA0AF343EA0903C8F80C30736813F03D
:1016A000805F80D0002301931F4B5A6C42F480422C
:1016B0005A645B6C03F480430193019BA208911C64
:1016C000174B53F8210004F0030399000F238B40BC
:1016D00020EA03000F4B98453FF431AF03F58063D8
:1016E00098450ED003F5806398450CD003F58063D0
:1016F00098450AD003F5806398453FF41EAF052353
:101700001EE701231CE702231AE7032318E702B0B0
:10171000BDE8F08700000240E04900080000111019
:1017200000380140003C01400038024030B583B031
:10173000044603680F2B29D8236813F0010F3DD00E
:101740006368012B01D9052B25D1A34B9B6803F0BE
:101750000C03042B29D0A04B9B6803F00C03082B2F
:101760001ED022799D4B1A706368002B50D0FEF773
:1017700079FE0546984B1B6813F4003F1ED1FEF717
:1017800071FE401B6428F5D90320E3E1F52194485C
:1017900001F0CAFCD0E7FA21914801F0C5FCD4E77A
:1017A0008D4B5B6813F4800FDBD08B4B1B6813F4FD
:1017B000003F03D06368002B00F0C981236813F059
:1017C000020F5DD0E368012B31D823691F2B34D879
:1017D000814B9B6813F00C0F3AD07F4B9B6803F052
:1017E0000C03082B2FD0E368002B74D07D4B012213
:1017F0001A60FEF737FE0546774B1B6813F0020FA1
:101800005AD1FEF72FFE401B0228F5D90320A1E193
:10181000FEF728FE0546704B1B6813F4003FCDD041
:10182000FEF720FE401B6428F5D9032092E14FF417
:1018300096716B4801F078FCC7E740F22D116848BB
:1018400001F072FCC4E7644B5B6813F4800FCAD1EB
:10185000614B1B6813F0020F04D0E368012B01D029
:10186000012077E15C48036823F0F8032169F8223E
:1018700092FAA2F2B2FA82F201FA02F21343036080
:10188000236813F0080F50D06369012B35D86369C2
:10189000002B38D0544B01221A60FEF7E3FD0546B9
:1018A0004D4B5B6F13F0020F3FD1FEF7DBFD401B8A
:1018B0000228F5D903204DE14748036823F0F803D7
:1018C0002169F82292FAA2F2B2FA82F201FA02F245
:1018D00013430360D4E7434B00221A60FEF7C2FDB6
:1018E00005463D4B1B6813F0020FC9D0FEF7BAFD49
:1018F000401B0228F5D903202CE140F26D11384835
:1019000001F012FCC3E7384B00221A60FEF7AAFD73
:101910000546314B5B6F13F0020F06D0FEF7A2FDB8
:10192000401B0228F5D9032014E1236813F0040FAB
:1019300060D0A368012B01D9052B1FD1002301938F
:10194000254B1A6C42F080521A641B6C03F08053D2
:101950000193019B254A136843F480731360FEF7DB
:1019600081FD0546214B1B6813F4807F0CD1FEF7E7
:1019700079FD401B0228F5D90320EBE040F29711D6
:10198000174801F0D1FBD9E7227A194B1A70A368E6
:1019900083B1FEF767FD05460F4B1B6F13F0020F77
:1019A00028D1FEF75FFD401B41F288339842F3D9FE
:1019B0000320CFE0FEF756FD0546074B1B6F13F0E3
:1019C000020F17D0FEF74EFD401B41F288339842BC
:1019D000F3D90320BEE000BF0038024002380240C5
:1019E000204A000800004742800E47420070004035
:1019F00070380240A369022B39D8A369002B00F08C
:101A0000A880564A926802F00C02082A00F0A480CE
:101A1000022B40F08880E36913B1B3F5800F2CD11D
:101A2000236A3F2B2FD8636A323BB3F5BF7F30D890
:101A3000A36A022B05D0042B03D0062B01D0082B60
:101A40002DD1E36A043B0B2B2FD8454B00221A60A3
:101A5000FEF708FD0546414B1B6813F0007F2AD0B6
:101A6000FEF700FD401B0228F5D9032072E04FF479
:101A7000E6713C4801F058FBBFE740F2D511394808
:101A800001F052FBCCE74FF4EB71364801F04CFB10
:101A9000C9E740F2D711334801F046FBC8E74FF4DD
:101AA000EC71304801F040FBCBE740F2D9112D48F2
:101AB00001F03AFBC9E7E369226A1343616A47F61A
:101AC000C07292FAA2F2B2FA82F201FA02F213435F
:101AD000A26A5208013A4FF4403191FAA1F1B1FAE9
:101AE00081F18A401343E16A4FF0706292FAA2F2E8
:101AF000B2FA82F201FA02F21343184A5360184B09
:101B000001221A60FEF7AEFC0446144B1B6813F06A
:101B1000007F06D1FEF7A6FC001B0228F5D90320A2
:101B200018E0002016E00E4B00221A60FEF79AFC27
:101B300004460A4B1B6813F0007F06D0FEF792FCA8
:101B4000001B0228F5D9032004E0002002E0012058
:101B500000E0002003B030BD0120FBE70038024068
:101B600060004742204A0008214B9B6803F00C03A9
:101B7000042B3AD0082B01D01E4870471C4B5868E4
:101B800000F03F005B6813F4800F1ED01A4AB2FBCE
:101B9000F0F2174B586847F6C073184093FAA3F356
:101BA000B3FA83F3D84000FB02F0114B5B6803F4F7
:101BB00040334FF4403292FAA2F2B2FA82F2D340AA
:101BC00001335B00B0FBF3F070470A4AB2FBF0F25E
:101BD000074B586847F6C073184093FAA3F3B3FA5B
:101BE00083F3D84000FB02F0DFE70348704700BFF3
:101BF000003802400024F40000BD010570B5044621
:101C00000D460368013B0E2B11D8072D15D88C4BC0
:101C10001B6803F00F03AB4215D2EBB2884A137076
:101C2000136803F00F03AB420DD0012070BD40F2EA
:101C30003721844801F078FAE7E74FF40E718148C4
:101C400001F072FAE3E7236813F0020F18D0A368DB
:101C50007BB1802B0DD0902B0BD0A02B09D0B02BBB
:101C600007D0C02B05D0D02B03D0E02B01D0F02B18
:101C700037D1754A936823F0F003A1680B43936052
:101C8000236813F0010F73D06368032B2FD86368A8
:101C9000012B32D09A1E012A36D96B4A126812F0F3
:101CA000020F00F0CA8068498A6822F003021343D9
:101CB0008B60FEF7D7FB06466368012B2BD0022B07
:101CC00038D0032B45D0604B9B6813F00C0F4FD0DE
:101CD000FEF7C8FB801B41F288339842F3D90320FA
:101CE000A4E740F24F21574801F01EFAC1E740F245
:101CF0005621544801F018FAC9E7534A126812F401
:101D0000003FD0D1012091E74F4A126812F0007FC6
:101D1000C9D101208AE74C4B9B6803F00C03042BCC
:101D200026D0FEF79FFB801B41F288339842F2D900
:101D300003207BE7444B9B6803F00C03082B17D070
:101D4000FEF790FB801B41F288339842F2D90320C2
:101D50006CE73D4B9B6803F00C030C2B08D0FEF79F
:101D600081FB801B41F288339842F2D903205DE762
:101D7000334B1B6803F00F03AB4209D9EAB2304B77
:101D80001A701B6803F00F03AB4201D001204DE72E
:101D9000236813F0040F14D0E3685BB1B3F5805FE0
:101DA00008D0B3F5A05F05D0B3F5C05F02D0B3F59E
:101DB000E05F36D1244A936823F4E053E1680B4393
:101DC0009360236813F0080F15D023695BB1B3F556
:101DD000805F08D0B3F5A05F05D0B3F5C05F02D037
:101DE000B3F5E05F23D1184A936823F46043216977
:101DF00043EAC1039360FFF7B7FE134B9B6803F000
:101E0000F003F02292FAA2F2B2FA82F2D3400F4A21
:101E1000D35CD8400E4B1860002001F025FA00205A
:101E200004E74FF42D71074801F07EF9C2E740F254
:101E3000BB21044801F078F9D5E70120F6E600BFA0
:101E4000003C0240204A000800380240104A0008C6
:101E50000C000020014B1868704700BF0C000020E8
:101E600008B5FFF7F7FF074B9B6803F460434FF497
:101E7000604292FAA2F2B2FA82F2D340024AD35CF2
:101E8000D84008BD00380240104A00080F23036004
:101E90000B4B9A6802F0030242609A6802F0F0026B
:101EA00082609A6802F4E052C2609B68DB0803F427
:101EB000E0530361034B1B6803F00F030B60704793
:101EC00000380240003C024010B4036A046A24F067
:101ED00001040462846924F0F00444EA021223F04D
:101EE0000A030B43826103625DF8044B704710B430
:101EF000036A23F0100303628469036A24F47044C4
:101F000044EA023223F0A00343EA01138261036230
:101F10005DF8044B7047836823F0700341F00701BC
:101F200019438160704710B4846824F47F4442EA06
:101F300003230B43234383605DF8044B7047000089
:101F400010B504460368174A93421FD0B3F1804F7F
:101F50001CD0A2F57C42934218D002F580629342D5
:101F600014D002F58062934210D002F59A32934267
:101F70000CD002F58062934208D002F58062934251
:101F800004D04FF4B271084801F0CEF82268D3684B
:101F900043F00103D3602268136843F00103136028
:101FA000002010BD00000140504A000838B590F8EC
:101FB0003830012B00F070820D460446012380F872
:101FC0003830022380F839300B68B3F5805F11D0C8
:101FD000B3F5005F0ED06BB1102B0BD0202B09D0C6
:101FE000302B07D0402B05D0502B03D0602B01D0D5
:101FF000702B4AD12268936823F47F4323F0770340
:1020000093602B68402B00F0BF8144D9702B00F007
:10201000058100F28F80502B00F06481602B40F02E
:10202000F6802368AD4A934217D0B3F1804F14D0A5
:10203000A2F57C42934210D002F5806293420CD00C
:1020400002F58062934208D002F59A32934204D09E
:1020500040F6BA71A24801F067F86B68B3F5004F1B
:1020600005D023B1022B02D00A2B40F08181EB680E
:102070000F2B00F28381EA6869682068FFF737FF59
:1020800060212068FFF747FFC1E040F66D7194487A
:1020900001F04AF8AEE7102B00F0BC8126D9202BC6
:1020A00000F0D981302B40F0B28023688B4A9342F4
:1020B00017D0B3F1804F14D0A2F57C42934210D0D8
:1020C00002F5806293420CD002F58062934208D000
:1020D00002F59A32934204D040F6E871804801F04C
:1020E00023F830212068FFF716FF90E0002B40F026
:1020F0008E802368794A934217D0B3F1804F14D071
:10210000A2F57C42934210D002F5806293420CD03B
:1021100002F58062934208D002F59A32934204D0CD
:1021200040F6D6716E4800F0FFFF00212068FFF7EF
:10213000F2FE6CE0B3F5805F40D0B3F5005F66D18E
:102140002368664A934213D0B3F1804F10D0A2F5B2
:102150007C4293420CD002F58062934208D002F593
:102160008062934204D040F69A715D4800F0DCFF33
:102170006B68B3F5004F05D023B1022B02D00A2BB8
:1021800040F09980AB684BB1B3F5805F06D0B3F5F2
:10219000005F03D0B3F5405F40F09380EB680F2BF6
:1021A00000F29580EB686A68A9682068FFF7BBFEBB
:1021B0002268936843F48043936028E02368474A89
:1021C00093421FD0B3F1804F1CD0A2F57C429342C2
:1021D00018D002F58062934214D002F580629342D7
:1021E00010D002F59A3293420CD002F580629342ED
:1021F00008D002F58062934204D040F679713848E5
:1022000000F092FF2268936823F007039360012394
:1022100084F83930002084F8380038BD23682F4A0C
:10222000934213D0B3F1804F10D0A2F57C42934279
:102230000CD002F58062934208D002F5806293428E
:1022400004D040F68271264800F06EFF6B68B3F54B
:10225000004F04D01BB1022B01D00A2B19D1AB685F
:1022600043B1B3F5805F05D0B3F5005F02D0B3F59D
:10227000405F14D1EB680F2B17D8EB686A68A96828
:102280002068FFF750FE2268936843F0770393605D
:10229000BDE740F68471124800F046FFDFE740F6E4
:1022A00085710F4800F040FFE4E740F686710C4866
:1022B00000F03AFFE1E740F69C71094800F034FF76
:1022C00060E740F69D71064800F02EFF66E740F695
:1022D0009E71034800F028FF64E700BF0000014042
:1022E000504A000823686D4A93421FD0B3F1804FD3
:1022F0001CD0A2F57C42934218D002F58062934232
:1023000014D002F58062934210D002F59A329342C3
:102310000CD002F58062934208D002F580629342AD
:1023200004D040F6AC715E4800F0FEFE6B68B3F579
:10233000004F04D01BB1022B01D00A2B0CD1EB684B
:102340000F2B0FD8EA6869682068FFF7BDFD5021A0
:102350002068FFF7E0FD5AE740F6AF71504800F003
:10236000E3FEECE74FF47B614D4800F0DDFEE9E76A
:1023700040F6BD714A4800F0D7FE78E640F6BE71DF
:10238000474800F0D1FE76E62368444A93421FD0C6
:10239000B3F1804F1CD0A2F57C42934218D002F5D5
:1023A0008062934214D002F58062934210D002F50D
:1023B0009A3293420CD002F58062934208D002F523
:1023C0008062934204D040F6C871354800F0ACFEFC
:1023D0006B68B3F5004F04D01BB1022B01D00A2B60
:1023E0000CD1EB680F2B0FD8EA6869682068FFF7FB
:1023F0006BFD40212068FFF78EFD08E740F6CB71AA
:10240000274800F091FEECE740F6CC71244800F03C
:102410008BFEE9E72368214A934217D0B3F1804F3E
:1024200014D0A2F57C42934210D002F58062934210
:102430000CD002F58062934208D002F59A329342A2
:1024400004D040F6DC71164800F06EFE10212068C2
:10245000FFF761FDDBE62368104A934217D0B3F122
:10246000804F14D0A2F57C42934210D002F58062D6
:1024700093420CD002F58062934208D002F59A3262
:10248000934204D040F6E271054800F04DFE202151
:102490002068FFF740FDBAE60220BEE600000140DA
:1024A000504A0008704770477047704710B504469F
:1024B00003681A6912F0020F11D0DA6812F0020FE5
:1024C0000DD06FF002021A610123037603689B6945
:1024D00013F0030F70D0FFF7E6FF00232376236885
:1024E0001A6912F0040F12D0DA6812F0040F0ED03D
:1024F0006FF004021A610223237623689B6913F4A8
:10250000407F5FD02046FFF7CEFF0023237623686D
:102510001A6912F0080F12D0DA6812F0080F0ED004
:102520006FF008021A61042323762368DB6913F035
:10253000030F4ED02046FFF7B6FF00232376236813
:102540001A6912F0100F12D0DA6812F0100F0ED0C4
:102550006FF010021A61082323762368DB6913F4F5
:10256000407F3DD02046FFF79EFF0023237623685F
:102570001A6912F0010F03D0DA6812F0010F36D198
:1025800023681A6912F0800F03D0DA6812F0800F06
:1025900034D123681A6912F0400F03D0DA6812F0C0
:1025A000400F32D123681A6912F0200F03D0DA6885
:1025B00012F0200F30D110BDFFF774FF2046FFF757
:1025C00073FF8AE72046FFF76DFF2046FFF76CFF99
:1025D0009BE72046FFF766FF2046FFF765FFACE765
:1025E0002046FFF75FFF2046FFF75EFFBDE76FF075
:1025F00001021A61204600F0C1FBC1E76FF08002C2
:102600001A61204600F01FF9C3E76FF040021A611B
:102610002046FFF74AFFC5E76FF020021A61204607
:1026200000F010F9C7E700000368234A90420ED07B
:10263000B0F1804F0BD0A2F57C42904207D002F55A
:102640008062904203D002F58062904203D123F071
:1026500070034A681343184A90421AD0B0F1804F71
:1026600017D0A2F57C42904213D002F580629042CE
:102670000FD002F5806290420BD002F59A32904260
:1026800007D002F58062904203D002F5806290424A
:1026900003D123F44073CA68134303608B68C36299
:1026A0000B688362044B984202D001234361704758
:1026B0000B690363F9E700BF00000140002855D013
:1026C00010B5044603682A4A93421ED0B3F1804FE6
:1026D0001BD0A2F57C42934217D002F58062934250
:1026E00013D002F5806293420FD002F59A329342E2
:1026F0000BD002F58062934207D002F580629342CC
:1027000003D0D9211B4800F00FFDA3683BB1102B6B
:1027100005D0202B03D0402B01D0602B16D123698C
:102720002BB1B3F5807F02D0B3F5007F13D194F8BD
:102730003930ABB1022384F83930211D2068FFF70E
:1027400073FF012384F83930002010BDDA210948D5
:1027500000F0EAFCE3E7DB21064800F0E5FCE6E7F1
:1027600084F83830204600F061FDE3E7012070472F
:1027700000000140504A000838B504460D46036881
:102780002E4A934213D0B3F1804F10D0A2F57C4271
:1027900093420CD002F58062934208D002F5806229
:1027A000934204D04FF4CB61254800F0BDFC2B6868
:1027B0006BB1102B0BD0202B09D0302B07D0402B26
:1027C00005D0502B03D0602B01D0702B27D16B6824
:1027D000802B00D04BBB94F83830012B2BD001223A
:1027E00084F83820022384F8393021684B6823F0BC
:1027F00070034B6021684B68286803434B60216875
:102800008B6823F080038B6021688B6868680343C2
:102810008B6084F83920002084F8380038BD40F2FD
:102820005961074800F080FCD1E740F25A61044842
:1028300000F07AFCCFE70220F0E700BF0000014083
:10284000804A000870477047FEE7000008B503465D
:102850000C4A12685AB10B4A1068033323F0030381
:102860000344094A934206D8064A136008BD054A44
:1028700006491160EFE701F0EFFB0C2303604FF016
:10288000FF30F3E78400002000FC0020F0BF0020B0
:1028900001230360014B0B60704700BF0400002060
:1028A0000FB400B583B004AB53F8042B019380211F
:1028B000064801F00FFC002803DD0146034800F044
:1028C00037F803B05DF804EB04B070478C000020CB
:1028D0002DE9F04385B004460F4643560BB10E4632
:1028E0001EE0042528462146ABBE0446384605B006
:1028F000BDE8F08314F9011B04AA1A4402F8101C65
:102900000133AB42F6D304AA1344002203F8102C7F
:102910004FF00408E94640464946ABBE8046761B68
:10292000002EE3D03546102E28BF10250023E8E7FF
:1029300008B5FFF7CDFF08BD08B500F09FF8054BBF
:10294000054A9A60D3F8882042F47002C3F88820C0
:1029500008BD00BF00ED00E00000000808B500F071
:10296000B3F808BDF8B504460D4617461E4627487D
:10297000FFF796FF21682648FFF792FF6168254818
:10298000FFF78EFFA1682448FFF78AFFE16823481C
:10299000FFF786FF21692248FFF782FF616921481E
:1029A000FFF77EFFA1692048FFF77AFFE1691F4822
:1029B000FFF776FF1E48FFF773FF29461D48FFF714
:1029C0006FFF1D4CE16A1D48FFF76AFF216B1C4831
:1029D000FFF766FFE16B1B48FFF762FF15F0800F02
:1029E0000AD115F4004F0CD11748FFF759FF06998B
:1029F0001648FFF755FFF8BD39461548FFF750FF59
:102A0000EFE731461348FFF74BFFEDE7B44A000804
:102A1000C44A0008D44A0008E44A0008F44A0008FE
:102A2000044B0008144B0008244B0008344B0008EA
:102A3000444B0008504B000800ED00E0604B0008DC
:102A4000704B0008804B0008B04B0008B84B0008E2
:102A5000904B0008A04B000883691A888A4201D075
:102A6000002070470268033A012A03D802338361C9
:102A70000120704700207047FEE700000F49D1F8A1
:102A8000883043F47003C1F888300D4B1A6842F067
:102A900001021A60002098601A6822F0847222F401
:102AA00080321A60074A5A601A6822F480221A603B
:102AB000D8604FF000638B60704700BF00ED00E00E
:102AC0000038024010300024224B9B6803F00C03B6
:102AD000042B14D0082B16D01BB11F4B1F4A1A60B1
:102AE00002E01D4B1D4A1A601A4B9B68C3F3031387
:102AF0001B4AD15C184A1368CB4013607047164BD1
:102B0000184A1A60F0E7134B5A685B6803F03F03FA
:102B100012F4800F13D0134AB2FBF3F20D4B5B6833
:102B2000C3F3881303FB02F30A4A5268C2F301425B
:102B300001325200B3FBF2F3074A1360D4E7074AAD
:102B4000B2FBF3F2034B5B68C3F3881303FB02F39E
:102B5000EAE700BF003802400C0000200024F40027
:102B6000FC4B000800BD0105002303E0002240F8F3
:102B700023200133092BF9DD002383627047826A29
:102B8000531C836240F822100A2B00D070470023A8
:102B90008362FBE710B4836A002B53D0013B50F8EB
:102BA000232040F2155101FB02F1002B4CD0013BD8
:102BB00050F823202D4C04FB0211002B46D0013B82
:102BC00050F823206FF4935404FB0211002B3FD0E4
:102BD000013B50F8232040F6A46404FB0211CBB360
:102BE000013B50F8232043F6154404FB02119BB32C
:102BF000013B50F8232043F6154404FB02116BB34C
:102C0000013B50F8232040F6A46404FB02113BB3BF
:102C1000013B50F823206FF4935404FB02110BB3D3
:102C2000013B50F82320114C04FB0212E3B1013B9D
:102C300050F8230040F2155303FB002000145DF808
:102C4000044B70470923AAE70923B1E70923B7E733
:102C50000923BEE70923C4E70923CAE70923D0E70C
:102C60000923D6E70923DCE70923E1E782F2FFFF26
:102C700030B58BB0002400942B4B1A6B42F0040249
:102C80001A631A6B02F004020092009A01941A6B04
:102C900042F080021A631A6B02F080020192019ADC
:102CA00002941A6B42F001021A631A6B02F00102DD
:102CB0000292029A03941A6B42F002021A631A6B90
:102CC00002F002020392039A04941A6B42F0080283
:102CD0001A631B6B03F008030493049B4FF6FF7306
:102CE000059303250695079405A91048FEF7C8FB30
:102CF00049F6FE7305930695079405A90C48FEF75F
:102D0000BFFB4FF2FF7305930695079405A9094889
:102D1000FEF7B6FB042305930695079405A906481C
:102D2000FEF7AEFB0BB030BD003802400008024099
:102D30000000024000040240000C024000B583B0D5
:102D400000220192094B196B41F4800119631B6B3E
:102D500003F480030193019B05213820FDF7F4FF64
:102D60003820FEF737F803B05DF804FB0038024066
:102D700008B540F6B83000F09CFDFAE708B50268E7
:102D8000034B9A4200D008BDFDF764FBFBE700BF90
:102D900000000140014B1870704700BF1000002078
:102DA00008B50F4B1B6842F2120293420CD8013354
:102DB0000B4A13600A4B1A6841F20A039A4207D081
:102DC000074B1B6843B108BD054B00221A60F1E7B1
:102DD0000020FFF7DFFFF3E70120FFF7DBFFF2E75B
:102DE0000C010020014B1878704700BF1000002034
:102DF00010B400231C4605E030F8232040F82320BF
:102E0000144401338B42F7D3B4FBF1F05DF8044B6B
:102E10007047002393420BD210B451F82340241A78
:102E200041F8234001339342F7D35DF8044B7047D8
:102E30007047F0B58DB006460F46154601A8FFF75E
:102E400093FE002405E056F8241001A8FFF797FE32
:102E50000134AC42F7D300240BE001A8FFF79AFE3F
:102E600046F82400631956F8231001A8FFF787FEDF
:102E700001347B1BA342F0D80DB0F0BDF8B5054678
:102E80000F464E1E7608002402E00014E85001347C
:102E9000BC4213D2200490FBF6F0A0F5803001F084
:102EA000D7F8C0F58030A30055F8242000FB02F0CD
:102EB0000028EADA00F57F40FF30E6E7F8BD0000C1
:102EC00008B51448FFF73CF8FFF78CFF0228FBD049
:102ED00041F20A0505FB00F00F4B03EB80000F4C9D
:102EE00020600220FFF756FF29462068FFF780FF89
:102EF0000B4B18602A462168FFF78BFF0A222946F0
:102F00002068FFF796FF4FF480512068FFF7B6FF67
:102F1000DAE700BF74BF0020203F0020703E002091
:102F200010010020FEE7000000B585B01648174BE1
:102F300003604FF480334360002383600361836147
:102F40000362C362124A8262C3600123C3610363E6
:102F50004361FDF739FB68B9002300930123019316
:102F60000723029369460848FDF7E8FD38B905B024
:102F70005DF804FB4FF484710648FFF7D3FF4FF46C
:102F800089710448FFF7CEFF743E00200020014005
:102F90000100000F344C000800B587B018484FF00E
:102FA0008043036000234360836042F21072C2607A
:102FB0000361FFF783FB98B906A94FF4805341F8EA
:102FC000103D0F48FEF7F2FF78B9002300930193FC
:102FD00069460B48FFF7D0FB60B907B05DF804FB0A
:102FE00040F225110748FFF79DFF40F22B110548DD
:102FF000FFF798FF4FF499710248FFF793FF00BF66
:1030000074BF0020344C000800B595B00022019236
:10301000294B196C41F0805119641B6C03F08053EB
:103020000193019B029225490B6823F4404343F42A
:1030300000430B600B6803F440430293029B02239E
:10304000089301210B9110210C910E930F920822ED
:1030500010925422119212930423139308A8FEF79E
:1030600065FB08BB0F230393022104910023059302
:103070004FF480520692079303A8FEF7BFFDB8B93C
:10308000FEF7E8FE0E4BA3FB00308009FDF7B8FE0B
:103090000420FDF7CBFE00220F214FF0FF30FDF79B
:1030A00053FE15B05DF804FBD5210648FFF73AFF43
:1030B000E3210448FFF736FF00380240007000406B
:1030C000D34D6210344C000800B58BB0FDF7A8F961
:1030D000FFF79AFFFFF7CCFDFFF730FEFFF724FF65
:1030E000FFF75AFF0D4C05AD26460FCE0FC53368CE
:1030F0002B60002105A800F0C2FB094B18606D464B
:1031000014340FCC0FC523682B600021684600F0F3
:10311000B6FB044B186000F0ADFBFEE70C4C00085A
:10312000BC3E002070BF0020704708B50320FDF7AB
:10313000EDFD002211466FF00B00FDF705FE0022A9
:1031400011466FF00A00FDF7FFFD002211466FF0F7
:103150000900FDF7F9FD002211466FF00400FDF7AC
:10316000F3FD002211466FF00300FDF7EDFD002294
:103170000F216FF00100FDF7E7FD00220F214FF056
:10318000FF30FDF7E1FD08BD0268234B9A4200D0F5
:10319000704730B587B004460025009503F58C33A1
:1031A0005A6C42F480725A645B6C03F4807300932F
:1031B000009B0123019303230293039501A9174860
:1031C000FEF75EF91648174B036045608560C560E1
:1031D0004FF4806303614FF4006343614FF4005385
:1031E0008361C5614FF4003303624562FDF7C0FEA1
:1031F00060B90B4BA3639C63002205211220FDF7ED
:10320000A3FD1220FDF7E6FD07B030BD7C21064886
:10321000FFF788FEEDE700BF0020014000000240FC
:10322000C03E0020106402405C4C00080368B3F10B
:10323000804F00D0704700B583B00022019203F5A3
:103240000E33196C41F0010119641B6C03F001038A
:103250000193019B05211C20FDF776FD1C20FDF745
:10326000B9FD03B05DF804FB10B588B0002201463B
:103270001920FDF769FD1920FDF7ACFD002401942C
:10328000134B5A6C42F001025A645B6C03F0010369
:103290000193019B02A903A8FEF7F8FDFEF7E0FDEC
:1032A0000C4BA3FB00239B0C013B0B480B4A026019
:1032B00040F2E732C260436004618460FFF7FEF9C8
:1032C00010B1012008B010BD0348FEF739FEF9E740
:1032D0000038024083DE1B43B0BF002000000140E5
:1032E0007047FEE7FEE7FEE7FEE7704708B500F02F
:1032F000E9FA08BD08B50248FDF74CFB08BD00BF60
:10330000743E002008B50248FFF7D0F808BD00BFA2
:10331000B0BF002008B50648FFF7C8F8054B19688C
:103320000122054B03EB81010448FDF73BFA08BD80
:1033300074BF00200C010020203F0020743E0020BC
:1033400008B50248FDF7AAFF08BD00BFC03E002037
:10335000124A12F0070F1ED0D11D21F00701C1F54E
:10336000705313440A460E48026000214160134422
:10337000083B23F007030B48036059601960991A52
:1033800051601360084B1960084B1960084B4FF0EF
:1033900000421A6070474FF47053E4E718010020B0
:1033A000243D002014010020203D00201C3D002071
:1033B000183D002010B4134B1A6882421BD3596881
:1033C0005C18844203D14068014459601846416842
:1033D0004418A24213D10C4C2468A2420DD052686A
:1033E000114441601A6812680260984200D0186067
:1033F0005DF8044B70471346DEE70460F5E70260B2
:10340000F3E700BF243D00201401002070B50446FE
:1034100000F04CFC3A4B1B68BBB13A4B1B681C429A
:1034200063D1ACB1083414F0070F11D024F00704B5
:10343000083404F007035BB14FF0500383F31188A5
:10344000BFF36F8FBFF34F8FFEE7FFF781FFE4E716
:10345000002C4CD02C4B1B68A3424AD32B4B1D682D
:1034600001E02B4615466A68A24202D22A68002A69
:10347000F7D1234A1268AA423DD01E6808362A684E
:103480001A606B681B1B102B10D9281910F0070F3E
:1034900008D04FF0500383F31188BFF36F8FBFF351
:1034A0004F8FFEE743606C60FFF784FF6A68164940
:1034B0000B689B1A0B60164909688B4201D21449AC
:1034C0000B60104B1B6813436B6000232B6000F0F4
:1034D00081FC16F0070F10D04FF0500383F31188D2
:1034E000BFF36F8FBFF34F8FFEE70026EFE7002695
:1034F000EDE70026EBE70026E9E7304670BD00BFA8
:1035000014010020183D00201C3D0020243D002017
:10351000203D002080B338B50446A0F1080550F8DE
:10352000042C164909680A4208D14FF0500383F36E
:103530001188BFF36F8FBFF34F8FFEE750F8080C71
:1035400040B14FF0500383F31188BFF36F8FBFF387
:103550004F8FFEE722EA010244F8042C00F0A6FB9C
:1035600054F8041C064A13680B4413602846FFF7FE
:1035700021FF00F02FFC38BD704700BF183D002030
:103580001C3D00200B4B1B68B3F1FF3F08D04FF0F0
:10359000500383F31188BFF36F8FBFF34F8FFEE7A4
:1035A0004FF0500383F31188BFF36F8FBFF34F8F3A
:1035B000FEE700BF1400002006480068006880F3A2
:1035C000088862B661B6BFF34F8FBFF36F8F00DF1D
:1035D00000BF000008ED00E0DFF80C00016841F4D6
:1035E000700101607047000088ED00E04FF08073CB
:1035F00040F8043C21F0010140F8081C054B40F85C
:103600000C3C40F8202C6FF0020340F8243C443876
:10361000704700BF85350008000000000000000072
:10362000074B19680868B0E8F04F80F30988BFF3CA
:103630006F8F4FF0000080F311887047AFF3008068
:10364000343D00204FF0500383F31188BFF36F8F98
:10365000BFF34F8F0A4A136801331360012B00D068
:103660007047084B1B6813F0FF0FF9D04FF0500361
:1036700083F31188BFF36F8FBFF34F8FFEE700BF57
:103680001400002004ED00E0094B1B6843B94FF023
:10369000500383F31188BFF36F8FBFF34F8FFEE7A3
:1036A000013B034A13600BB983F31188704700BFD5
:1036B00014000020000000000000000000000000D6
:1036C000EFF30980BFF36F8F154B1A681EF0100FD0
:1036D00008BF20ED108A20E9F04F10604DF8043D3E
:1036E0004FF0500080F31188BFF34F8FBFF36F8FFF
:1036F00000F052FC4FF0000080F3118808BC1968FC
:103700000868B0E8F04F1EF0100F08BFB0EC108A48
:1037100080F30988BFF36F8F704700BFAFF300805D
:10372000343D002008B54FF0500383F31188BFF3F8
:103730006F8FBFF34F8F00F0C1FA18B1034B4FF0FA
:1037400080521A60002383F3118808BD04ED00E065
:10375000064B1B68064AA2FB03239B09013B054A53
:103760001360054B07221A60704700BF0C00002051
:10377000D34D621014E000E010E000E0314B1A6815
:10378000314B9A420DD02F4B1A68304B9A4211D1CF
:103790004FF0500383F31188BFF36F8FBFF34F8F48
:1037A000FEE74FF0500383F31188BFF36F8FBFF331
:1037B0004F8FFEE700B583B0254B1A78D2B2019245
:1037C000FF221A701B78DBB28DF803309DF80330AE
:1037D00003F050031F4A13701F4B07221A609DF815
:1037E000033013F0800F0AD01B4A1368013B1360AB
:1037F0009DF803305B00DBB28DF80330EFE7164A2B
:1038000013681B0203F4E0631360019BDBB2104AF0
:103810001370124B1A6842F470021A601A6842F070
:1038200070421A60FFF794FF0D4B00221A60FFF7F9
:10383000D3FE0C4A136843F040431360FFF7BCFE0D
:10384000FFF7A0FE00ED00E071C20F4170C20F4112
:1038500000E400E02C3D0020303D002020ED00E0A1
:103860001400002034EF00E0842801D003307047BA
:103870000020704708B500F0DBF9002008BDF0B566
:1038800085B00F46446805680669B0F90800FFF77F
:10389000EBFF03AB019300903B46B2B229462046B2
:1038A00000F094F9012802D1039805B0F0BD002082
:1038B000FBE708B5034600B90123184600F004FBF6
:1038C000002008BD08B500F0B3FB012801D0FFF7C8
:1038D00029FF08BD00F1080343604FF0FF3282600A
:1038E000C3600361002303607047002303617047D6
:1038F00043684B609A688A609A6851609960086171
:10390000036801330360704730B40D68B5F1FF3FC1
:1039100002D000F1080202E0026904E01A4653688E
:103920001C68AC42FAD953684B6099608A60516058
:10393000086103680133036030BC70470369426863
:10394000816891608268416851605A68824205D0FE
:1039500000220261186801381860704782685A6056
:10396000F6E70000084B1B681B683BB1064B1B6861
:10397000DB68DB685A68054B1A607047034B4FF0F1
:10398000FF321A60704700BF383D0020103E002013
:1039900010B50446006BFFF7BDFD2046FFF7BAFDEA
:1039A00010BD2DE9F04780469946089D099F0A9C65
:1039B000266B02F18042013A06EB820626F00706EA
:1039C00000230F2B07D8C856E21882F83400CA56D5
:1039D0000AB10133F5E7002384F84330062D00D9FE
:1039E0000625E56265644FF0000AC4F848A0201D72
:1039F000FFF77BFF04F11800FFF777FF2461C5F1A3
:103A00000705A5616462C4F84CA084F850A04A463A
:103A100041463046FFF7EAFD206007B13C60BDE853
:103A2000F087000038B5002407E004EB840293001F
:103A30000E481844FFF74EFF0134062CF5D90C4D03
:103A40002846FFF747FF0B4C2046FFF743FF0A4885
:103A5000FFF740FF0948FFF73DFF0948FFF73AFF2E
:103A6000084B1D60084B1C6038BD00BF403D002066
:103A7000E43D0020F83D0020183E0020443E002098
:103A8000303E0020383D00203C3D002010B504466B
:103A9000FFF7D8FD204A1368013313601F4B1B68E2
:103AA0005BB11F4B1B686BB91C4B1B68DA6AE36A7E
:103AB0009A4207D8194B1C6004E0184B1C6013682D
:103AC000012B26D0174A136801331360E36A0122E1
:103AD0009A401549086802430A6003EB83039A0081
:103AE000211D12481044FFF703FFFFF7CDFD0C4BDB
:103AF0001B686BB1094B1B68DA6AE36A9A4207D20A
:103B00000B4B4FF080521A60BFF34F8FBFF36F8F94
:103B100010BDFFF787FFD5E7CC3D0020343D0020E6
:103B20002C3E0020DC3D0020E03D0020403D0020F8
:103B300004ED00E070B504460E461D4B1D681D4B9C
:103B400018680430FFF7FAFE50B91A4B1B68DA6A9E
:103B5000012303FA02F218490B6823EA02030B60FF
:103B6000B4F1FF3F13D02C44124B1B685C60A5429C
:103B700016D8124B18680F4B19680431FFF7C4FEB2
:103B80000F4B1B68A34212D90D4B1C600FE0002E97
:103B9000E9D0084B196804310A48FFF7A9FE06E08E
:103BA000094B1868034B19680431FFF7ADFE70BD6F
:103BB000583E0020343D0020E03D0020383D0020EC
:103BC000103E0020303E00203C3D00202DE9F04317
:103BD00085B007468846154699469000FFF716FCC3
:103BE000F8B106465420FFF711FC0446A8B106635D
:103BF000D4B10023039302940D9B01930C9B00937B
:103C00004B462A4641463846FFF7CBFE2046FFF793
:103C10003DFF012005B0BDE8F0833046FFF77AFC98
:103C2000E6E74FF0FF30F5E74FF0FF30F2E7000036
:103C300000B583B0174B01930023009380221649EF
:103C40001648FFF7C3FF012805D0B0F1FF3F17D09A
:103C500003B05DF804FB4FF0500383F31188BFF30A
:103C60006F8FBFF34F8F0E4B4FF0FF321A600D4B2B
:103C700001221A600C4B00221A60FFF77FFDE7E774
:103C80004FF0500383F31188BFF36F8FBFF34F8F53
:103C9000FEE700BF0C3E0020784C0008713F000892
:103CA000103E00202C3E0020583E0020024A13689F
:103CB00001331360704700BFD83D0020F8B53A4B80
:103CC0001B68002B64D1394B1D6801351D60C5B9D7
:103CD000374B1B681B6843B14FF0500383F31188C7
:103CE000BFF36F8FBFF34F8FFEE7314A1168314B3F
:103CF000186810601960304A136801331360FFF7C9
:103D000031FE2E4B1B68AB4238D900242C4B1B686C
:103D1000DB6A03EB83039A002A4B9B58012B3CD9A7
:103D200001243AE00124224B1B681B6843B3204B5B
:103D30001B68DB68DE6873689D4226D3371D3846F2
:103D4000FFF7FCFDB36A1BB106F11800FFF7F6FDA3
:103D5000F36A01229A401C49086802430A6003EB97
:103D600083039A00394617481044FFF7C1FDF26AF1
:103D7000134B1B68DB6A9A42D4D2D4E70024D2E703
:103D80000E4B4FF0FF321A60C0E70C4A1360BDE7DC
:103D90000E4A13680133136000240D4B1B6803B1F6
:103DA00001242046F8BD00BFD83D0020583E002029
:103DB000383D00203C3D0020143E0020103E0020F5
:103DC000343D0020403D0020E03D0020D43D002057
:103DD0005C3E002038B5334B1B6843B94FF05003AD
:103DE00083F31188BFF36F8FBFF34F8FFEE7FFF7A9
:103DF00029FC2C4B1A68013A1A601B68002B4DD124
:103E0000294B1B6823B90024FFF73EFC204638BD30
:103E10000024264B1B681BB3244BDB68DC6804F1D1
:103E20001800FFF78BFD251D2846FFF787FDE36A85
:103E300001229A401E49086802430A6003EB83038B
:103E40009A0029461B481044FFF752FDE26A1A4BBC
:103E50001B68DB6A9A42DCD3184B01221A60D8E750
:103E60000CB1FFF77FFD164B1C6854B1FFF726FF1E
:103E700010B1124B01221A60013CF7D1104B002205
:103E80001A600E4B1B685BB10E4B4FF080521A60EC
:103E9000BFF34F8FBFF36F8F0124B5E70024B3E763
:103EA0000024B1E7D83D0020CC3D0020183E002082
:103EB000E03D0020403D0020343D00205C3E0020DD
:103EC000D43D002004ED00E010B5A8B104460F4B2E
:103ED0001B6843B14FF0500383F31188BFF36F8F1A
:103EE000BFF34F8FFEE7FFF7E1FE00212046FFF70B
:103EF00021FEFFF76FFF38B9054B4FF080521A6073
:103F0000BFF34F8FBFF36F8F10BD00BFD83D0020B0
:103F100004ED00E0134B1B6813B310B5FFF7C6FEAA
:103F2000114B1C68FFF756FF24B90E4B1B68002B82
:103F3000F4D110BDFFF786FB0B4BDB68DC68201D5E
:103F4000FFF7FCFC094A1368013B1360054A13683C
:103F5000013B1360FFF798FB2046FFF719FDE4E7EC
:103F6000704700BFD03D0020443E0020CC3D0020E3
:103F700008B5FFF7CFFF064B1B68012BF9D9054B9E
:103F80004FF080521A60BFF34F8FBFF36F8FF0E78F
:103F9000403D002004ED00E0204B1B681BB1204B8E
:103FA00001221A6070471E4B00221A601D4B1B68CD
:103FB000B3FA83F3DBB2C3F11F0303EB83018A007F
:103FC00019498A5842B94FF0500383F31188BFF35F
:103FD0006F8FBFF34F8FFEE710B413489A00D418C9
:103FE000A10001444C6864684C601A449100083197
:103FF000084484420BD003EB83039A000A4B13441A
:104000005B68DA68094B1A605DF8044B70476168B9
:104010000548142202FB03025160ECE7D83D002062
:104020005C3E0020E03D0020403D0020343D00206B
:10403000054B1B6833B1054B1B680BB10020704763
:1040400002207047012070472C3E0020D83D002000
:104050000028B8BF40427047014B1868704700BF46
:104060001800002010B5431E0A44914200D110BD33
:1040700011F8014B03F8014FF7E730B5141E054660
:104080009BB0184605DA8B232B604FF0FF301BB036
:1040900030BD4FF40273ADF80C3014BF04F1FF33A0
:1040A0002346029305934FF6FF7300910491ADF8F8
:1040B0000E3002461E9B6946284600F073F8431CEA
:1040C000BCBF8B232B60002CE1D0009B00221A7018
:1040D000DDE7000007B5009313460A460146034892
:1040E0000068FFF7CAFF03B05DF804FB180000206A
:1040F0002DE9F0478E689E4282460C4690469946CE
:1041000037D88A8912F4906F31D0256809696F1AFF
:104110006569022305EB450595FBF3F509F10103FC
:104120003B449D4238BF1D46530530D5294600F01B
:104130006FFB064650B90C23CAF80030A38943F040
:104140004003A3814FF0FF30BDE8F0873A46216974
:10415000FFF788FFA38923F4906343F08003A381D2
:10416000266165613E44ED1B2660A5604E464E45C6
:1041700000D94E4632464146206800F0E1FAA36875
:104180009B1BA36023681E4426600020DCE72A46B0
:1041900000F098FB06460028E2D12169504600F065
:1041A000E9FAC8E72DE9F04F9DB0804603938B896B
:1041B0001D060C4616460FD50B696BB9402100F061
:1041C00027FB2060206128B90C23C8F800304FF08D
:1041D000FF30C7E0402363610023099320238DF85B
:1041E000293030238DF82A304FF0010B37463D46F9
:1041F00015F8013B0BB1252B3ED1B7EB060A0BD0CE
:104200005346324621464046FFF772FF013000F028
:10421000A480099B534409933B78002B00F09D80B8
:1042200000234FF0FF32CDE90523049307938DF867
:1042300053301A932F46052217F8011B4F4800F000
:104240002FFA049BD0B9D90644BF20228DF8532001
:104250001A0744BF2B228DF853202A782A2A15D01A
:10426000079A2F4600200A25394611F8013B303BBA
:10427000092B4DD9B8B10FE02F46B8E73F4A801A55
:104280000BFA00F0184304903D46D3E7039A111D42
:1042900012680391002A01DB079204E0524243F0C6
:1042A0000203079204933B782E2B0CD17B782A2BA8
:1042B00033D1039B1A1D1B680392002BB8BF4FF02C
:1042C000FF33023705932E4D39780322284600F03C
:1042D000E7F938B14023401B03FA00F0049B034385
:1042E00001370493397827488DF8281006227E1C60
:1042F00000F0D6F9002838D0234B13BB039B0733BB
:1043000023F0070308330393099B4B4409936DE79C
:1043100005FB023201200F46A6E700230137059373
:1043200019460A25384610F8012B303A092A03D9D4
:10433000002BC8D00591C6E705FB012101230746E4
:10434000F0E703AB00932246104B04A94046AFF3BD
:104350000080B0F1FF3F8146D6D1A3895B063FF5CF
:1043600036AF09981DB0BDE8F08F03AB009322462D
:10437000064B04A9404600F081F8EAE7804C0008AB
:10438000864C00088A4C000800000000F14000083C
:104390002DE9F04791461F468A680B69DDF82080B9
:1043A0009342B8BF1346C9F8003091F8432006463F
:1043B0000C4612B10133C9F800302368990642BF98
:1043C000D9F800300233C9F80030256815F0060529
:1043D00007D104F1190AE368D9F800209B1AAB420F
:1043E00028DC94F843302268003318BF012392067A
:1043F0002DD404F1430239463046C047013020D065
:104400002368E568D9F8002003F00603042B08BFF1
:10441000AD1AA36822690CBF25EAE5750025934211
:10442000C4BF9B1AED184FF000091A344D451AD13C
:10443000002008E00123524639463046C04701308B
:1044400003D14FF0FF30BDE8F0870135C3E7E11835
:104450005A1C302081F84300224494F8451082F819
:1044600043100233C5E70123224639463046C04790
:104470000130E6D009F10109D8E700002DE9F04349
:1044800001F1430C0C46097E85B06E29174606469D
:1044900098460C9A00F0B38022D8632936D00AD807
:1044A000002900F0B980582900F0838004F142050A
:1044B00084F8421032E0642901D06929F6D12068DD
:1044C0001368050603F104012AD51B681160002B4F
:1044D00003DA2D225B4284F843206F480A2239E038
:1044E000732900F09D8008D86F2920D07029DDD174
:1044F000236843F02003236003E0752917D078294F
:10450000D4D1782384F84530644855E01368191DE8
:104510001B68116004F1420584F8423001238CE0ED
:104520001B68116010F0400F18BF1BB2CFE7136873
:104530002568181D1060280601D51B6802E0680672
:10454000FBD51B8854486F2914BF0A22082200217A
:1045500084F843106568A560002DC0F2958021683D
:1045600021F004012160002B3DD1002D40F08E8010
:104570006546082A0BD12368DB0708D523696268E2
:104580009A42DEBF302305F8013C05F1FF35ACEB64
:1045900005032361CDF800803B4603AA214630463F
:1045A000FFF7F6FE01304DD14FF0FF3005B0BDE80A
:1045B000F083394884F84510136821681D1D1B6875
:1045C00015600A060BD5CA0744BF41F020012160DF
:1045D0001BB9226822F0200222601022B7E74D06A4
:1045E00048BF9BB2EFE76546B3FBF2F102FB113324
:1045F000C35C05F8013D0B460029F5D1B9E7136806
:1046000025686169181D106028061B6801D51960AE
:1046100002E06A06FBD51980002323616546B9E7ED
:104620001368191D11601D6862680021284600F09A
:1046300037F808B1401B606063682361002384F889
:104640004330A7E723692A4639463046C047013040
:10465000AAD023689B0713D4E068039B9842B8BF95
:104660001846A3E701234A4639463046C047013081
:104670009AD00135E368039A9B1AAB42F2DCEBE770
:10468000002504F11909F5E7002BACD1037884F873
:10469000423004F142056CE7914C0008A24C00083E
:1046A00001F0FF01102A2BDB10F0070F08D010F8E3
:1046B000013B013A8B422DD010F0070F42B3F6D1E7
:1046C000F0B441EA012141EA014122F007047FF000
:1046D00000070023F0E80256083C85EA010586EA57
:1046E000010685FA47F5A3FA87F586FA47F6A5FA93
:1046F00087F68EB9EED1F0BC01F0FF0102F007029F
:1047000032B110F8013B013A83EA010313B1F8D149
:104710000020704701387047002D06BF354603382A
:10472000073815F0010F07D1013015F4807F02BF63
:10473000013015F4C03F0130F0BC0138704700BFB4
:10474000884210B501EB020307D8421E99420AD0F5
:1047500011F8014B02F8014FF8E78342F5D98118AF
:10476000D21AD34200D110BD13F8014D01F8014D0A
:10477000F7E7000038B50546002945D051F8043C5C
:104780000C1F002BB8BFE41800F0D2F81F4A1368C2
:10479000104633B9636014602846BDE8384000F025
:1047A000C8B8A3420CD921686218934204BF1A68A2
:1047B0005B68636004BF521822600460ECE7134634
:1047C0005A680AB1A242FAD919685818A0420BD106
:1047D00020680144581882421960DDD1106852687F
:1047E0005A6001441960D7E702D90C232B60D3E744
:1047F000206821188A4204BF11685268626004BFB1
:10480000091821605C60C7E738BD00BF603E00202A
:1048100070B5CD1C25F0030508350C2D38BF0C25CF
:10482000002D064601DBA94203D90C23336000208A
:1048300070BD00F07DF8214A1468214691B9204CE2
:1048400023681BB9304600F063F8206029463046E3
:1048500000F05EF8431C24D10C233360304600F096
:1048600068F8E4E70B685B1B18D40B2B0FD90B60BF
:10487000CD50CC18304600F05CF804F10B00231D3D
:1048800020F00700C31AD3D05A42E250D0E78C423E
:104890004B6816BF636013600C46EBE70C46496833
:1048A000CCE7C41C24F00304A04205D0211A3046F2
:1048B00000F02EF80130CFD02560DBE7603E00200D
:1048C000643E0020F8B5074614460E4621B911464D
:1048D000BDE8F840FFF79CBF22B9FFF74BFF254624
:1048E0002846F8BD00F026F8A0420FD221463846EF
:1048F000FFF78EFF05460028F2D031462246FFF72B
:10490000B1FB31463846FFF735FFE9E73546E7E7C3
:1049100038B5064C0023054608462360FDF796FF90
:10492000431C02D1236803B12B6038BD6C3E0020CC
:104930007047704751F8043C181F002BBCBF0B5840
:10494000C01870472E2E2F73797374656D2F737294
:10495000632F73746D333266342D68616C2F7374FA
:104960006D3332663478785F68616C5F6164632EA2
:10497000630000002E2E2F73797374656D2F737290
:10498000632F73746D333266342D68616C2F7374CA
:104990006D3332663478785F68616C5F636F727410
:1049A00065782E63000000002E2E2F7379737465D6
:1049B0006D2F7372632F73746D333266342D68619B
:1049C0006C2F73746D3332663478785F68616C5F16
:1049D000646D612E630000000006101600061016BC
:1049E0002E2E2F73797374656D2F7372632F73740A
:1049F0006D333266342D68616C2F73746D3332669B
:104A00003478785F68616C5F6770696F2E6300004F
:104A10000000000001020304010203040607080964
:104A20002E2E2F73797374656D2F7372632F7374C9
:104A30006D333266342D68616C2F73746D3332665A
:104A40003478785F68616C5F7263632E6300000086
:104A50002E2E2F73797374656D2F7372632F737499
:104A60006D333266342D68616C2F73746D3332662A
:104A70003478785F68616C5F74696D2E6300000044
:104A80002E2E2F73797374656D2F7372632F737469
:104A90006D333266342D68616C2F73746D333266FA
:104AA0003478785F68616C5F74696D5F65782E63D8
:104AB00000000000537461636B206672616D653A9B
:104AC0000A000000205230203D2020253038580AAE
:104AD00000000000205231203D2020253038580AA7
:104AE00000000000205232203D2020253038580A96
:104AF00000000000205233203D2020253038580A85
:104B00000000000020523132203D20253038580A64
:104B100000000000204C52203D2020253038580A4B
:104B200000000000205043203D2020253038580A46
:104B30000000000020505352203D20253038580AF4
:104B4000000000004653522F4641523A0A0000002E
:104B50002043465352203D2020253038580A00007B
:104B60002048465352203D2020253038580A000066
:104B70002044465352203D2020253038580A00005A
:104B80002041465352203D2020253038580A00004D
:104B9000204D4D464152203D20253038580A000016
:104BA0002042464152203D2020253038580A00003E
:104BB0004D6973630A000000204C522F4558435F33
:104BC00052455455524E3D20253038580A000000B9
:104BD0005B486172644661756C745D0A0000000098
:104BE0005B4275734661756C745D0A005B55736159
:104BF00067654661756C745D0A0000000000000086
:104C0000000000000102030406070809544C0008D4
:104C1000C12E00080000000000000000800000001D
:104C2000444C0008712D0008000000000000000046
:104C3000800000002E2E2F7372632F6D61696E2E1F
:104C400063000000696E64696361746F725461731C
:104C50006B0000004144435461736B002E2E2F7390
:104C600072632F73746D3332663478785F68616C69
:104C70005F6D73702E63000049444C4500000000D6
:104C8000232D302B2000686C4C0065666745464735
:104C900000303132333435363738394142434445B8
:104CA0004600303132333435363738396162636427
:034CB00065660036
:104CB4007856341288000020000000000024F4001C
:104CC40002FFFFFFAAAAAAAA1C00002000000000FD
:104CD40000000000000000000000000000000000D0
:104CE40000000000000000000000000000000000C0
:104CF40000000000000000000000000000000000B0
:104D0400000000000000000000000000000000009F
:104D1400000000000000000000000000000000008F
:104D240000000000000000000000000032547698EB
:040000050800019559
:00000001FF
